:020000040000FA
:060000000A128A11EE2F26
:100E5A000134003483160317880189010730831689
:100E6A000313850083120313850183160313860176
:100E7A008312031386018316031387018312031354
:100E8A0087018316031388018312031388018316CB
:100E9A0003138901831203138901080083120313C0
:100EAA0009140B30F2002630F1005D30F000F00B2F
:100EBA005C2FF10B5C2FF20B5C2F632F8312031351
:100ECA00091089140B30F2002630F1005D30F00071
:100EDA00F00B6D2FF10B6D2FF20B6D2F742F831208
:100EEA000313891009150B30F2002630F1005D302A
:100EFA00F000F00B7E2FF10B7E2FF20B7E2F852F49
:100F0A008312031309110130F6000030F7000800BC
:100F1A000A128A112F270A128A118312031305193A
:100F2A00972F982FA12F8230F400DD30F300F30BB6
:100F3A009C2FF40B9C2FA12F83120313051DA62FA0
:100F4A00A72F922F0A128A1153270A128A11E42F05
:100F5A008230F400DD30F300F30BB12FF40BB12F24
:100F6A00B62F83120313051CBB2FBC2FE42F0230AC
:100F7A00F5008630F4009930F300F30BC22FF40B1E
:100F8A00C22FF50BC22F7808831203138700780348
:100F9A007904031DD12FD22FD82F0310780DF80012
:100FAA00790DF900E42F78087904031DDD2FDE2F6F
:100FBA00D22F0130F8000030F900F601F70176036C
:100FCA0077040319E92FEA2FAD2F922F0A128A11FB
:100FDA0000280A128A112D270A128A11F8000A1209
:100FEA008A112E270A128A11F900F601F7018301E4
:060FFA000A128A118D2F7E
:04400E00F120FF3F5F
:00000001FF
