:020000040000FA
:060000000A128A11FC2F18
:100EFE000A128A11A2270A128A11831203130519E4
:100F0E00892F8A2F932F8230F400DD30F300F30BFC
:100F1E008E2FF40B8E2F932F83120313051D982FF4
:100F2E00992F842F0A128A11C6270A128A11842F2A
:100F3E000A128A11002883160317880189010730C7
:100F4E00831603138500831203138501831603137F
:100F5E0086018312031386018316031387018312FE
:100F6E000313870183160313880183120313880169
:100F7E008316031389018312031389010800831258
:100F8E00031309140B30F2002630F1005D30F0002F
:100F9E00F00BCF2FF10BCF2FF20BCF2FD62F8312BB
:100FAE000313091089140B30F2002630F1005D3066
:100FBE00F000F00BE02FF10BE02FF20BE02FE72FFC
:100FCE0083120313891009150B30F2002630F1003D
:100FDE005D30F000F00BF12FF10BF12FF20BF12F32
:100FEE00F82F831203130911080083010A128A11C4
:020FFE007F2F43
:04400E00F120FF3F5F
:00000001FF
