:020000040000FA
:060000000A128A11EE2F26
:100DFC0001340134831603178801890107308316E7
:100E0C0003138500831203138501831603138601D4
:100E1C0083120313860183160313870183120313B2
:100E2C008701831603138801831203138801831629
:100E3C00031389018312031389010800831203131E
:100E4C0086018701880109140630F2001330F10085
:100E5C00AD30F000F00B302FF10B302FF20B302FA8
:100E6C00372F83120313091089140630F200133044
:100E7C00F100AD30F000F00B412FF10B412FF20BD4
:100E8C00412F482F83120313891009150630F200E5
:100E9C001330F100AD30F000F00B522FF10B522F4C
:100EAC00F20B522F592F8312031309110130F60044
:100EBC000030F700F901F90AF801F80A08000A12E3
:100ECC008A1100270A128A118312031305196F2F36
:100EDC00702F792F8230F400DD30F300F30B742F78
:100EEC00F40B742F792F83120313051D7E2F7F2F84
:100EFC006A2F0A128A1124270A128A11E42F8230CF
:100F0C00F400DD30F300F30B892FF40B892F8E2FB7
:100F1C0083120313051C932F942FBA2F0230F50064
:100F2C008630F4009930F300F30B9A2FF40B9A2FC0
:100F3C00F50B9A2F79088312031387007903031D8D
:100F4C00A82FA92FB02F7908F3007307F4007408A9
:100F5C00F900BA2F7908031DB42FB52FA92F061449
:100F6C00F901F90AF601F701851CBD2FBE2FE42FFC
:100F7C000230F5008630F4009930F300F30BC42FE7
:100F8C00F40BC42FF50BC42F7808831203138800BD
:100F9C007803031DD22FD32FDA2F7808F3007307B1
:100FAC00F4007408F800E42F7808031DDE2FDF2FFF
:100FBC00D32F8614F801F80AF601F70176037704AB
:100FCC000319E92FEA2F852F6A2F0A128A1100289C
:100FDC000A128A11FE260A128A11F8000A128A11C4
:100FEC00FF260A128A11F900F601F70183010A1291
:040FFC008A11652FC2
:04400E00D120FF3F7F
:00000001FF
