:020000040000FA
:060000000A128A110C280F
:10000800FE00030EF0000A08F1000A168A15A52959
:100018000A128A110F28FB018313D4308400E330BD
:100028000A168A1101200A128A1183179030840057
:10003800A4300A168A1101200A128A1183010A16AD
:100048008A11F228831603134B08F5004A08F400B6
:100058004908F3004808F2000030F9000030F800C1
:100068000030F7000030F6000A168A15F0230A124D
:100078008A11031840284128E928831603134B08DE
:1000880083120313D800831603134A088312031339
:10009800D70083160313490883120313D600831667
:1000A8000313480883120313D5000A168A15672517
:1000B8000A128A1183120313580857045604550468
:1000C800031D67286828E928831603134708803A20
:1000D800FF0080307F02031D732802304602031C94
:1000E80076287728E928831603134508F50044087D
:1000F800F4004308F3004208F2004030F900893068
:10010800F8007030F7005F30F6000A168A15E3250C
:100118000A128A110318912892289B28F73083160F
:100128000313C6070318C70AFF30C707A328F83008
:1001380083160313C6070318C70AFF30C707460804
:100148000A128A159D240A128A118312031345087C
:1001580083160313C500831203134408831603137D
:10016800C40083120313430883160313C3008312C6
:100178000313420883160313C2004B08F5004A080C
:10018800F4004908F3004808F2004508F90044085B
:10019800F8004308F7004208F6000A168A113420CE
:1001A8000A128A11750883160313BD007408BC006F
:1001B8007308BB007208BA000030CB000030CA00D8
:1001C8000030C9000030C8004F29831603134B08BC
:1001D80083120313D800831603134A0883120313E8
:1001E800D70083160313490883120313D600831616
:1001F8000313480883120313D5000A168A156725C6
:100208000A128A1183120313580883160313BD00B8
:1002180083120313570883160313BC0083120313B6
:10022800560883160313BB0083120313550883165D
:100238000313BA003D08F5003C08F4003B08F3003E
:100248003A08F20000300A168A1587260A128A111F
:10025800750883160313A3007408A2007308A1008D
:100268007208A0004B08A7004A08A6004908A50084
:100278004808A4000A128A11AF270A128A118316A5
:1002880003132308CB002208CA002108C90020084C
:10029800C800C601C701CF01CF0A4F088312031354
:1002A800EA0001300310EA0DFF3E031D5629031032
:1002B8006A0D693E84000A128A150A200A128A11F8
:1002C800EB000A128A150A200A128A11EC000A1297
:1002D8008A150A200A128A11ED000A128A150A20C4
:1002E8000A128A11EE006E08831603133D02031DDD
:1002F8009329831203136D08831603133C02031D0D
:100308009329831203136C08831603133B02031DFE
:100318009329831203136B08831603133A020318F5
:10032800962997299829A629013083120313EA00F0
:100338006A0883160313CF070A304F06031DA52941
:10034800A62951294F084D0783120313EA00831683
:1003580003134E0803184E0A83120313EB00831687
:1003680003134608831203136A07EC00831603136A
:1003780047080318470A831203136B07ED006C083C
:1003880083160313C002831203136D088316031325
:10039800031CC103C1024D084E040319D429D529F1
:1003A800DB29FF30C0070318C10AFF30C10703303B
:1003B8003E0583120313EA000030831603133F053A
:1003C80083120313EB006A086B040319EC29ED2967
:1003D8000A2AFF3083160313C0070318C10AFF3027
:1003E800C1070A2A203083120313EA008316031375
:1003F8004C088400831203136A08831780000130B5
:10040800EA006A0883160313CC07ED298316031341
:100418004108803AFF0080307F02031D152A013011
:1004280040020318182A192AF629033083160313E1
:100438003E0583120313EA000030831603133F05B9
:1004480083120313EB006A086B0403192C2A2D2A64
:10045800B12A2D30EA00831603134C088400831256
:1004680003136A08831780000130EA006A088316BC
:100478000313CC07B12A4F0883120313EA00013093
:100488000310EA0DFF3E031D442A03106A0D693E5E
:1004980084000A128A150A200A128A11F2000A1226
:1004A8008A150A200A128A11F3000A128A150A20EC
:1004B8000A128A11F4000A128A150A200A128A11ED
:1004C800F500831603133D08F9003C08F8003B08C3
:1004D800F7003A08F6000A168A1596240A128A11B5
:1004E800750883160313C5007408C4007308C30095
:1004F8007208C2000030F5000030F4000030F3004C
:100508000A30F2004508F9004408F8004308F700EB
:100518004208F6000A168A1540240A128A1175083C
:1005280083160313C5007408C4007308C300720857
:10053800C2004208303E83120313EA0083160313F5
:100548004C088400831203136A0883178000013063
:10055800EA006A0883160313CC07013083160313D5
:10056800CF024F0A031DB92ABA2A3F2AD42A3030AB
:1005780083120313EA00831603134C0884008312C2
:1005880003136A08831780000130EA006A0883169B
:100598000313CC07FF30C6070318C70AFF30C70785
:1005A8004708803AFF0080307F02031DDD2A0130B2
:1005B80046020318E02AE12ABB2A831603134E08D1
:1005C800803AFF0080307F02031DEC2A09304D027B
:1005D800031CEF2AF02AF92A083083120313EA00D1
:1005E8006A0883160313CF00032B831603134D08E1
:1005F80083120313EA006A0883160313CF004F0817
:1006080083120313EA00EB016A0883160313CD0271
:10061800831203136B0883160313031CCE03CE0245
:100628004F080319182B192B2C2B2E308312031368
:10063800EA00831603134C088400831203136A0824
:10064800831780000130EA006A0883160313CC0779
:100658004F080A128A159D240A128A11831203135D
:10066800450883160313B80083120313440883163E
:100678000313B70083120313430883160313B6004A
:1006880083120313420883160313B5003808831234
:100698000313AF0083160313370883120313AE0046
:1006A80083160313360883120313AD00831603134E
:1006B800350883120313AC00831603134B08831207
:1006C8000313AB00831603134A0883120313AA000B
:1006D80083160313490883120313A900831603130F
:1006E800480883120313A8000A128A153C210A122B
:1006F8008A11831203132B08D8002A08D700290867
:10070800D6002808D5000A168A1567250A128A1104
:1007180083120313580883160313BD0083120313AF
:10072800570883160313BC00831203135608831655
:100738000313BB0083120313550883160313BA006F
:10074800562C4F0883120313EA0001300310EA0DF8
:10075800FF3E031DAA2B03106A0D693E84000A128E
:100768008A150A200A128A11F2000A128A150A202A
:100778000A128A11F3000A128A150A200A128A112B
:10078800F4000A128A150A200A128A11F500831643
:1007980003133D08F9003C08F8003B08F7003A0845
:1007A800F6000A168A1596240A128A117508831605
:1007B8000313C5007408C4007308C3007208C2009C
:1007C8000030F5000030F4000030F3000A30F20089
:1007D8004508F9004408F8004308F7004208F60005
:1007E8000A168A1540240A128A11750883160313FB
:1007F800C5007408C4007308C3007208C200420828
:10080800303E83120313EA00831603134C08840056
:10081800831203136A08831780000130EA006A080C
:1008280083160313CC074F0883120313EA00013021
:100838000310EA0DFF3E031D1C2C03106A0D693ED0
:1008480084000A128A150A200A128A11F2000A1272
:100858008A150A200A128A11F3000A128A150A2038
:100868000A128A11F4000A128A150A200A128A1139
:10087800F500831603133D08F9003C08F8003B080F
:10088800F7003A08F6000A168A1540240A128A1157
:10089800750883160313BD007408BC007308BB00F9
:1008A8007208BA000130CF024F0A031D5C2C5D2C80
:1008B800A52B772C303083120313EA008316031319
:1008C8004C088400831203136A08831780000130E0
:1008D800EA006A0883160313CC07FF30CD07031814
:1008E800CE0AFF30CE074D084E04031D7C2C7D2C0C
:1008F8005E2C812D831603134D084E04031D852C91
:10090800862C942C3D083C043B043A04031D8D2C92
:100918008E2C942C0130CD070318CE0A0030CE0758
:100928004E08803A803C031D9B2C4D084F0203184B
:100938009E2C9F2CAA2C831603134D088312031395
:10094800EA006A0883160313CF00CE2C831603131C
:100958004E08803A83120313EA0080306A02031DAE
:10096800B92C831603134F084D020318BC2CBD2C59
:10097800CE2C831603134F0883120313EA00EB01EE
:100988006A0883160313CD00831203136B088316BA
:100998000313CE0083160313400841040319D52C12
:1009A800D62CF02C03303E0583120313EA000030E6
:1009B800831603133F0583120313EB006A086B04C5
:1009C8000319E72CE82CF02CFF3083160313C0071B
:1009D8000318C10AFF30C107831603133F1FF52C04
:1009E800F62C192D4E08803A83120313EA00831659
:1009F80003134108803A831203136A02031D082D6A
:100A08008316031340084D0203180B2D0C2D152DCA
:100A1800831603134D08C0024E08031CC103C1020C
:100A2800192D83160313C001C1014108803A803C87
:100A3800031D202D40084F020318232D242D382D87
:100A4800831603134F0883120313EA00EB016A08A5
:100A580083160313C002831203136B088316031350
:100A6800031CC103C1023C2D83160313C001C1013D
:100A7800400841040319412D422D612D2030831275
:100A88000313EA00831603134C088400831203132C
:100A98006A08831780000130EA006A088316031386
:100AA800CC07FF30C0070318C10AFF30C107400850
:100AB8004104031D602D612D422D03303E05831234
:100AC8000313EA000030831603133F058312031350
:100AD800EB006A086B040319722D732D812D2D30DC
:100AE800EA00831603134C088400831203136A0870
:100AF800831780000A168A111D2D013083160313EF
:100B0800A807FF30280784000A128A150A200A124B
:100B18008A1183120313EA006A0883160313CF00AD
:100B28004F08031D982D9B2D0A168A110A2D83162E
:100B380003134C08840083178001080083120313F1
:100B4800D5006E305502031CAA2DAB2DBA2E3F30AE
:100B5800AB000030AA000030A9000030A8006430C3
:100B6800A0000030A1005508C600C7014608A20031
:100B78004708A3000A168A155B230A128A118312F2
:100B880003132008C80001300310C80DFF3E031DE1
:100B9800C82D0310480D7D3E84000A128A150A20CC
:100BA8000A128A11C9000A128A150A200A128A1121
:100BB800CA000A128A150A200A128A11CB000A12E0
:100BC8008A150A200A128A11CC004C08AF004B087B
:100BD800AE004A08AD004908AC000A128A153C214B
:100BE8000A128A11831203132B08D4002A08D3008F
:100BF8002908D2002808D1000A30A0000030A1003E
:100C08005508C600C7014608F4004708F5006430D7
:100C1800F2000030F3000A168A15DB220A128A1144
:100C2800730883120313A3007208A2000A168A1518
:100C38005B230A128A11831203132008C8000130AB
:100C48000310C80DFF3E031D242E0310480D593E06
:100C580084000A128A150A200A128A11C9000A1287
:100C68008A150A200A128A11CA000A128A150A204D
:100C78000A128A11CB000A128A150A200A128A114E
:100C8800CC004C08AB004B08AA004A08A900490848
:100C9800A8005408AF005308AE005208AD00510830
:100CA800AC000A128A153C210A128A118312031316
:100CB8002B08D0002A08CF002908CE002808CD002C
:100CC8000A30F2000030F3005508C600C701460894
:100CD800F4004708F5000A168A15DB220A128A1161
:100CE800720883120313C80001300310C80DFF3EB9
:100CF800031D792E0310480D353E84000A128A150B
:100D08000A200A128A11C9000A128A150A200A1230
:100D18008A11CA000A128A150A200A128A11CB00FF
:100D28000A128A150A200A128A11CC004C08AB0054
:100D38004B08AA004A08A9004908A8005008AF00B3
:100D48004F08AE004E08AD004D08AC000A128A15D7
:100D58003C210A128A11831203132B08C5002A08A2
:100D6800C4002908C3002808C200AE2F0B30550262
:100D7800031CBF2EC02E6B2F3F30AB000030AA00E3
:100D88000030A9000030A8000A30A0000030A100FF
:100D98005508C600C7014608A2004708A3000A165E
:100DA8008A155B230A128A11831203132008C800CC
:100DB80001300310C80DFF3E031DDD2E0310480D42
:100DC800593E84000A128A150A200A128A11C9009B
:100DD8000A128A150A200A128A11CA000A128A15EA
:100DE8000A200A128A11CB000A128A150A200A124E
:100DF8008A11CC004C08AF004B08AE004A08AD0081
:100E08004908AC000A128A153C210A128A11831279
:100E180003132B08D4002A08D3002908D200280875
:100E2800D1000A30F2000030F3005508C600C701AF
:100E38004608F4004708F5000A168A15DB220A124C
:100E48008A11720883120313C80001300310C80DF9
:100E5800FF3E031D2A2F0310480D353E84000A1259
:100E68008A150A200A128A11C9000A128A150A204C
:100E78000A128A11CA000A128A150A200A128A114D
:100E8800CB000A128A150A200A128A11CC004C08D3
:100E9800AB004B08AA004A08A9004908A800540852
:100EA800AF005308AE005208AD005108AC000A125A
:100EB8008A153C210A128A11831203132B08C500D4
:100EC8002A08C4002908C3002808C200AE2F3F30F2
:100ED800AB000030AA000030A9000030A800550877
:100EE800C60001300310C60DFF3E031D762F031008
:100EF800460D353E84000A128A150A200A128A1104
:100F0800C7000A128A150A200A128A11C8000A1292
:100F18008A150A200A128A11C9000A128A150A209B
:100F28000A128A11CA004A08AF004908AE004808E8
:100F3800AD004708AC000A128A153C210A128A1132
:100F4800831203132B08C5002A08C4002908C3000C
:100F58002808C2000800803083160313A306270858
:100F680083120313D900831603132608831203136D
:100F7800D80083160313250883120313D70083169A
:100F88000313240883120313D600831603132308BC
:100F980083120313DD00831603132208831203133D
:100FA800DC0083160313210883120313DB00831666
:100FB8000313200883120313DA000A168A11742215
:100FC8000A128A1183120313590883160313A30004
:100FD80083120313580883160313A2008312031302
:100FE800570883160313A1008312031356088316A8
:060FF8000313A000080035
:10100000FF1B0A2883137F1883170008840A03191B
:10101000FF0A080008308A000408840A82070034A6
:101020000034003480343F34003400342034413400
:1010300000340034C8344234003400347A34443448
:10104000003440341C34463400345034C334473404
:1010500000342434743449348034963418344B3496
:101060002034BC34BE344C3428346B346E344E34AB
:10107000F934023415345034EC347834AD346034FF
:10108000CA34F234493471340034003480343F348B
:10109000CD34CC34CC343D340A34D73423343C34CE
:1010A0006F34123483343A341734B734D13438348B
:1010B000AC34C53427343734BD3437348634353412
:1010C0009534BF34D63433347734CC342B34323483
:1010D0005F34703489343034FF34E634DB342E34FA
:1010E0000834E5343C341E3460344234A2340D34C8
:1010F00001340034003400340A3400340034003445
:101100006434003400340034E834033400340034F0
:101110001034273400340034A034863401340034D1
:10112000403442340F3400348034963498340034E0
:101130000034E134F53405340034CA349A343B3495
:101140004134443443342034203443344F344E3417
:101150005434203420342034543445344D34503405
:1011600020340A340034253431342E343234663499
:101170002034253431342E34323466342034203453
:10118000253431342E34323466340034413444341E
:1011900043342034203443344F344E3454342034D8
:1011A0002034543445344D345034003400300A1661
:1011B0008A1512220A128A1501300A168A1512227D
:1011C0000A128A150800F801F51FE728E828EF2819
:1011D000F409F509F40A0319F50AF801F80AF31FEE
:1011E000F228F328F828F209F309F20A0319F30A9E
:1011F000720873040319FD28FE282D29F701F70A48
:101200000C2901300310F20DF30DFF3E031D0229DE
:101210000130F6007608F707F31F0F29102901297E
:1012200073087502031D162972087402031C19291C
:101230001A2920297208F4027308031CF503F50229
:1012400001300310F30CF20CFF3E031D2129013085
:10125000F702031D2C292D2910297808031931299B
:1012600032293729F409F509F40A0319F50A750832
:10127000F3007408F2000800831203132B0880396E
:10128000B0003008B5002B08B0003007B1003108BD
:10129000BB00AA1F4C294D294E293B143B080319BA
:1012A0005229532962293B0A031D572958296029CD
:1012B0000030AB000030AA000030A9000030A800C8
:1012C000AA176A290030AB000030AA000030A9003C
:1012D0000030A8002F088039B0003008B5062F086C
:1012E000B0003007B1003108BA00AE1F7829792963
:1012F0007A293A143A0803197E297F298E293A0A55
:10130000031D832984298C290030AF000030AE00F2
:101310000030AD000030AC00AE1796290030AF00B1
:101320000030AE000030AD000030AC003A080319C8
:101330009A299B29A0293B08031D9F29A029A92997
:101340000030AB000030AA000030A9000030A80037
:101350009C2C2808B0003008F2002E080A168A15C6
:101360007E220A128A15730883120313C1007208C1
:10137000C0004008B000B101B201B3013308B900A8
:101380003208B8003108B7003008B6004108B00094
:10139000B101B201B3013308BF003208BE00310809
:1013A000BD003008BC002908B0003008F2002D084C
:1013B0000A168A157E220A128A15730883120313ED
:1013C000C1007208C0004008B000B101B201B30111
:1013D0003008B607310803110318013E0319F1293B
:1013E000B707320803110318013E0319F829B8079B
:1013F000330803110318013E0319FF29B9074108F7
:10140000B000B101B201B3013008BC0731080311CB
:101410000318013E03190D2ABD07320803110318F2
:10142000013E0319142ABE07330803110318013EB5
:1014300003191B2ABF072A08B0003008F2002C0845
:101440000A168A157E220A128A157308831203135C
:10145000C1007208C0004008B000B101B201B30180
:101460003008B607310803110318013E0319392A61
:10147000B707320803110318013E0319402AB807C1
:10148000330803110318013E0319472AB90741081D
:10149000B000B101B201B3013008BC07310803113B
:1014A0000318013E0319552ABD073208031103181A
:1014B000013E03195C2ABE07330803110318013EDD
:1014C0000319632ABF070830B0000310B60DB70D2B
:1014D000B80DB90DB00B652A2908B0003008F2002C
:1014E0002C080A168A157E220A128A15730883129E
:1014F0000313C1007208C0004008B0004108B100E9
:10150000B201B3013008B607310803110318013ED8
:1015100003198B2AB707320803110318013E031978
:10152000922AB807330803110318013E0319992AB8
:10153000B9072808B0003008F2002D080A168A15ED
:101540007E220A128A15730883120313C1007208DF
:10155000C0004008B0004108B100B201B30130083A
:10156000B607310803110318013E0319B82AB7075B
:10157000320803110318013E0319BF2AB8073308C4
:1015800003110318013E0319C62AB9070830B00039
:101590000310B60DB70DB80DB90DB00BC82A280849
:1015A000B0003008F2002C080A168A157E220A12B2
:1015B0008A15730883120313C1007208C000400823
:1015C000B0004108B100B201B3013008B6073108DC
:1015D00003110318013E0319EE2AB707320803115D
:1015E0000318013E0319F52AB8073308031103183D
:1015F000013E0319FC2AB9072908B0003008F2009F
:101600002E080A168A157E220A128A15730883127A
:101610000313C1007208C0004008B0004108B100C7
:10162000B201B3013008BC07310803110318013EB1
:1016300003191B2BBD07320803110318013E0319C0
:10164000222BBE07330803110318013E0319292B6F
:10165000BF072A08B0003008F2002D080A168A15C4
:101660007E220A128A15730883120313C1007208BE
:10167000C0004008B0004108B100B201B301300819
:10168000BC07310803110318013E0319482BBD079D
:10169000320803110318013E03194F2BBE0733080C
:1016A00003110318013E0319562BBF072A08B00087
:1016B0003008F2002E080A168A157E220A128A15B0
:1016C000730883120313C1007208C0004008B00001
:1016D0004108B100B201B30108300310B00DB10DE3
:1016E000B20DB30DFF3E031D6D2B3008BC07310852
:1016F00003110318013E03197E2BBD0732080311A5
:101700000318013E0319852BBE0733080311031884
:10171000013E03198C2BBF073608B0003708B10013
:101720003808B2003908B30018300310B30CB20CFB
:10173000B10CB00CFF3E031D952B3008BC073108DF
:1017400003110318013E0319A62BBD07320803112C
:101750000318013E0319AD2BBE073308031103180C
:10176000013E0319B42BBF070830B0000310B60DBB
:10177000B70DB80DB90DB00BB62B3B083A07B0004A
:10178000B101B10D3008823EC00031080318013E9E
:10179000FF3EC100E82B0130B0000310BC0DBD0DB1
:1017A000BE0DBF0DB00BCD2BB91FD72BD82BD92B0E
:1017B0003C140130B0000310B60DB70DB80DB90DD3
:1017C000B00BDB2BFF30C0070318C10AFF30C10785
:1017D000BE1FEB2BEC2BCB2BBA01B91FF02BF12B3F
:1017E0000D2CFF303605B000FF303705B100FF305B
:1017F0003805B2007F303905B300330832043104B4
:1018000030040319042C052C082CBA01BA0A0D2C3B
:101810003C1C0B2C0C2C0D2C052C3A080319112CFC
:10182000122C432C0130BC07003003180130BD07D7
:10183000003003180130BE07003003180130BF0725
:101840003F1C232C242C432C3C08B0003D08B10045
:101850003E08B2003F08B3000130B400330DB30CB2
:10186000B20CB10CB00CB40B2E2C3308BF003208F4
:10187000BE003108BD003008BC000130C0070318AD
:10188000C10A0030C1074108803AFF0080307F0262
:10189000031D4C2CFF304002031C4F2C502C5B2CA2
:1018A0007F3083120313BF008030BE000030BD00C4
:1018B0000030BC00902C831203134108803AFF00D3
:1018C00080307F02031D662C013040020318692C12
:1018D0006A2C762C003083120313BF000030BE0048
:1018E0000030BD000030BC00B501902C8312031302
:1018F0004008B0003008BB00FF30BC05FF30BD051C
:101900007F30BE050030BF053B1C872C882C892CFE
:10191000BE173B08B0000310300CB1003108BF0007
:101920003508B0003008BF043F08AB003E08AA00ED
:101930003D08A9003C08A800080083120313D40046
:10194000D41FA32CA42C532ED409D40A5408803AB3
:10195000123E031CAC2CAD2C972D0A30A000003099
:10196000A1005408F400F501F41BF5036430F20003
:101970000030F3000A128A15E3200A128A15730850
:1019800083120313A3007208A2000A168A15FE240C
:101990000A128A15831203132008C60001300310AF
:1019A000C60DFF3E031DCF2C0310460D593E84008B
:1019B0000A128A150A200A128A15C7000A128A1505
:1019C0000A200A128A15C8000A128A150A200A1269
:1019D0008A15C9000A128A150A200A128A15CA0035
:1019E0004A08AB004908AA004808A9004708A8000F
:1019F0006430A0000030A1005408A200A301A21B83
:101A0000A3030A168A15FE240A128A1583120313E9
:101A10002008CB0001300310CB0DFF3E031D0B2D22
:101A200003104B0D7D3E84000A128A150A200A120B
:101A30008A15CC000A128A150A200A128A15CD00CE
:101A40000A128A150A200A128A15CE000A128A156D
:101A50000A200A128A15CF004F08AF004E08AE00C8
:101A60004D08AD004C08AC000A128A153C210A1240
:101A70008A15831203132B08D3002A08D2002908E1
:101A8000D1002808D0000A30F2000030F3005408DA
:101A9000F400F501F41BF5030A128A15E3200A127B
:101AA0008A15720883120313C60001300310C60D95
:101AB000FF3E031D562D0310460D353E84000A12CD
:101AC0008A150A200A128A15C7000A128A150A20E6
:101AD0000A128A15C8000A128A150A200A128A15E3
:101AE000C9000A128A150A200A128A15CA004A0871
:101AF000AB004908AA004808A9004708A8005308F5
:101B0000AF005208AE005108AD005008AC000A12F8
:101B10008A153C210A128A15831203132B08C5006B
:101B20002A08C4002908C3002808C200FF2F54084F
:101B3000803A753E031C9D2D9E2D262E0A30F20004
:101B40000030F3005408F400F501F41BF5030A1209
:101B50008A15E3200A128A15720883120313C6003D
:101B600001300310C60DFF3E031DB12D0310460DBD
:101B7000353E84000A128A150A200A128A15C70007
:101B80000A128A150A200A128A15C8000A128A1532
:101B90000A200A128A15C9000A128A150A200A1296
:101BA0008A15CA004A08AB004908AA004808A900DB
:101BB0004708A8000A30A0000030A1005408A20085
:101BC000A301A21BA3030A168A15FE240A128A1572
:101BD000831203132008CB0001300310CB0DFF3E0E
:101BE000031DED2D03104B0D593E84000A128A157A
:101BF0000A200A128A15CC000A128A150A200A1233
:101C00008A15CD000A128A150A200A128A15CE00FA
:101C10000A128A150A200A128A15CF004F08AF004F
:101C20004E08AE004D08AD004C08AC000A128A15F3
:101C30003C210A128A15831203132B08C5002A08B7
:101C4000C4002908C3002808C200FF2F5408C6009A
:101C500001300310C60DFF3E031D292E0310460D53
:101C6000353E84000A128A150A200A128A15C70016
:101C70000A128A150A200A128A15C8000A128A1541
:101C80000A200A128A15C9000A128A150A200A12A5
:101C90008A15CA004A08C5004908C4004808C3009C
:101CA0004708C200FF2F5408803A123E031C592EE9
:101CB0005A2E442F0A30A0000030A1005408F4002E
:101CC000F501F41BF5036430F2000030F3000A1252
:101CD0008A15E3200A128A15730883120313A300DE
:101CE0007208A2000A168A15FE240A128A158312A7
:101CF00003132008C60001300310C60DFF3E031D6C
:101D00007C2E0310460D253E84000A128A150A20F7
:101D10000A128A15C7000A128A150A200A128A15A1
:101D2000C8000A128A150A200A128A15C9000A1266
:101D30008A150A200A128A15CA004A08AB00490807
:101D4000AA004808A9004708A8006430A000003095
:101D5000A1005408A200A301A21BA3030A168A151E
:101D6000FE240A128A15831203132008CB000130C7
:101D70000310CB0DFF3E031DB82E03104B0D493E43
:101D800084000A128A150A200A128A15CC000A1247
:101D90008A150A200A128A15CD000A128A150A200D
:101DA0000A128A15CE000A128A150A200A128A150A
:101DB000CF004F08AF004E08AE004D08AD004C08F4
:101DC000AC000A128A153C210A128A1583120313E9
:101DD0002B08D3002A08D2002908D1002808D000F7
:101DE0000A30F2000030F3005408F400F501F41B4F
:101DF000F5030A128A15E3200A128A157208831263
:101E00000313C60001300310C60DFF3E031D032F50
:101E10000310460D013E84000A128A150A200A1298
:101E20008A15C7000A128A150A200A128A15C800E4
:101E30000A128A150A200A128A15C9000A128A157E
:101E40000A200A128A15CA004A08AB004908AA00EB
:101E50004808A9004708A8005308AF005208AE0080
:101E60005108AD005008AC000A128A153C210A1234
:101E70008A15831203132B08C5002A08C4002908F9
:101E8000C3002808C200FF2F5408803A753E031C87
:101E90004A2F4B2FD32F0A30F2000030F3005408A2
:101EA000F400F501F41BF5030A128A15E3200A1267
:101EB0008A15720883120313C60001300310C60D81
:101EC000FF3E031D5E2F0310460D013E84000A12E3
:101ED0008A150A200A128A15C7000A128A150A20D2
:101EE0000A128A15C8000A128A150A200A128A15CF
:101EF000C9000A128A150A200A128A15CA004A085D
:101F0000AB004908AA004808A9004708A8000A3001
:101F1000A0000030A1005408A200A301A21BA3034B
:101F20000A168A15FE240A128A1583120313200842
:101F3000CB0001300310CB0DFF3E031D9A2F031081
:101F40004B0D253E84000A128A150A200A128A15B2
:101F5000CC000A128A150A200A128A15CD000A122C
:101F60008A150A200A128A15CE000A128A150A203A
:101F70000A128A15CF004F08AF004E08AE004D0878
:101F8000AD004C08AC000A128A153C210A128A15D1
:101F9000831203132B08C5002A08C4002908C300B4
:101FA0002808C200FF2F5408C60001300310C60DD8
:101FB000FF3E031DD62F0310460D013E84000A127A
:101FC0008A150A200A128A15C7000A128A150A20E1
:101FD0000A128A15C8000A128A150A200A128A15DE
:101FE000C9000A128A150A200A128A15CA004A086C
:101FF000C5004908C4004808C3004708C2000800DB
:1020020064008001840A04060319003404060228CD
:10201200F601202876087307840074080318740AEE
:10202200FF000A128A1500200A168A110A168A155A
:10203200CB210A168A110130F5007508F6077608D9
:102042007307840074080318740A83120313FF00D1
:102052000A128A1500200A168A11003A031D322834
:1020620033280B2808000310740D750DFA007A0846
:1020720083120313A5002508031D402841284A287E
:102082000030F5000030F4000030F3000030F200C0
:10209200F1280310780D790DFA007A08A4002408BB
:1020A200031D5428552856284128F417FF30F205FD
:1020B200FF30F305FF30F4050030F505F817FF3067
:1020C200F605FF30F705FF30F8050030F90500305E
:1020D200A3000030A2000030A1000030A0007F3039
:1020E200A502A0302407FA007A08A5022030FA00DF
:1020F2007A08A4000130FA000310A00DA10DA20D70
:10210200A30DFA0B7D2879087502031D9228780821
:102112007402031D922877087302031D9228760821
:102122007202031C95289628A5287608F2027708E1
:10213200031C770FF3027808031C780FF402790866
:10214200031C790FF50220140130FA000310F20D7E
:10215200F30DF40DF50DFA0BA7280130A402031DAF
:10216200B328B4287B28A51FB728B828D228250869
:10217200803A9F3E0318BE28BF28C028412801305C
:102182000310A30CA20CA10CA00CFF3E031DC1283E
:102192000130FA007A08A507031DD028D128C028EB
:1021A200E92820302502031CD728D828E428412812
:1021B2000130FA000310A00DA10DA20DA30DFA0B20
:1021C200DB280130A5022508031DE828E928D928C3
:1021D2002308F5002208F4002108F3002008F20089
:1021E20008000A168A15A5220A168A110A168A15E5
:1021F200A1230A168A110A128A15D6200A168A11F2
:102202000A168A159A210A168A110A168A15D721E0
:102212000A168A110A168A15AC210A168A11831225
:1022220003130710930183160313141819291A298B
:10223200222983120313130883160313D0005008B4
:10224200E200033083160313D1009730D000D00B85
:102252002829D10B2829831203130714871093010D
:10226200831603131418362937293F2983120313BF
:10227200130883160313D0005008E10003308316BD
:102282000313D1009730D000D00B4529D10B45293B
:10229200831203138714071193018316031314186F
:1022A200532954295C298312031313088316031339
:1022B200D0005008E000033083160313D10097309A
:1022C200D000D00B6229D10B6229831203130715A8
:1022D2008316031360088312031386003C30AB009D
:1022E200A030AA009030A9002E30A8008316031354
:1022F2006208D000D101D201D3015308F50052087F
:10230200F4005108F3005008F20001300A168A1551
:1023120087260A168A11750883120313AF00740800
:10232200AE007308AD007208AC000A128A153C2197
:102332000A168A11831203132B0883160313DF0074
:10234200831203132A0883160313DE008312031376
:10235200290883160313DD0083120313280883164A
:102362000313DC006108D000D101D201D30153086C
:10237200F5005208F4005108F3005008F200003052
:102382000A168A1587260A168A11750883160313F8
:10239200DB007408DA007308D9007208D8006008FC
:1023A200D000D1010310500DF200510DF300F401E1
:1023B200F31BF4037408F50001300A168A15872608
:1023C2000A168A11750883160313D7007408D600FB
:1023D2007308D5007208D4009130F3008030F40005
:1023E2000A168A1109200A168A110D300A168A1550
:1023F200CB210A168A110A300A168A15CB210A162F
:102402008A11A43083160313D0005008A8005F0875
:10241200AC005E08AB005D08AA005C08A9005B087E
:10242200B0005A08AF005908AE005808AD0057086E
:10243200B4005608B3005508B2005408B1009030F9
:102442000A168A11FC240A168A119030F300013010
:10245200F4000A168A1109200A168A110D300A168A
:102462008A15CB210A168A110A300A168A15CB213F
:102472000A168A110A128A15D6200A168A11F6013C
:10248200F60A01300A168A1535220A168A11B73061
:10249200F5008030F6000A168A1515230A168A11ED
:1024A200F601F60A02300A168A1535220A168A1130
:1024B2009030F5000130F6000A168A1515230A1627
:1024C2008A11063083160313D2001330D100AD30C7
:1024D200D000D00B6A2AD10B6A2AD20B6A2A1029A1
:1024E2000A128A110C288312031359088039DE005C
:1024F2005E08E6005908DE005E07DF005F08E800BC
:10250200D81F842A852A862A6814680803198A2A09
:102512008B2A9B2A680A031D8F2A902A982A003048
:10252200D9000030D8000030D7000030D600D817CC
:10253200D901A32A0030D9000030D8000030D700DA
:102542000030D6005D088039DE005E08E7006708CB
:1025520066060319AD2AAE2AAF2A66175D08DE00A9
:102562005E07DF005F08E700DC1FB82AB92ABA2A33
:10257200671467080319BE2ABF2ACF2A670A031DF8
:10258200C32AC42ACC2A0030DD000030DC0000302F
:10259200DB000030DA00DC17DD01D72A0030DD0075
:1025A2000030DC000030DB000030DA00680867022F
:1025B2000318DC2ADD2A212B661FE02AE12AE52AFC
:1025C2008030DE005E08E6066808DE005E08E9008C
:1025D2006708DE005E08E8006908DE005E08E700C2
:1025E2005608DE005E08E9005A08DE005E08D600E2
:1025F2006908DE005E08DA005708DE005E08E900BE
:102602005B08DE005E08D7006908DE005E08DB00BA
:102612005808DE005E08E9005C08DE005E08D800AB
:102622006908DE005E08DC005908DE005E08E90089
:102632005D08DE005E08D9006908DE005E08DD0084
:10264200E9016708DE00DF015F08E10068085E0259
:10265200E000031CE1036108803AFF0080307F0242
:10266200031D352B1A306002031C382B392B762BB5
:10267200831203135908580457045604031D422BAE
:10268200442B0130452B0030DE005E08E9000030AB
:10269200D9000030D8000030D7000030D6006708DB
:1026A200DE005E08E8007E2B691C582B592B622B3A
:1026B2006908DE0003105E0C0138DF005F08E900E4
:1026C200642B0310E90C561C672B682B692BE91746
:1026D2000130DE00590DD90CD80CD70CD60CDE0B0C
:1026E2006B2B0130DE005E08E807831203136708D4
:1026F2006802031C7D2B7E2B552B661B812B822BA4
:10270200CD2B6808031D862B872B902B0030D90018
:102712000030D8000030D7000030D600FB2C5A0819
:10272200D6075B0803110318013E0319992BD7073B
:102732005C0803110318013E0319A02BD8075D089A
:1027420003110318013E0319A72BD907591CAA2B01
:10275200AB2B812C691CAE2BAF2BB82B6908DE008A
:1027620003105E0C0138DF005F08E900BA2B03108A
:10277200E90C561CBD2BBE2BBF2BE9170130DE0026
:10278200590DD90CD80CD70CD60CDE0BC12B01304D
:10279200DE005E08E807812C5908803AFF005D08D8
:1027A200803A7F02031DDF2B5C085802031DDF2BDA
:1027B2005B085702031DDF2B5A0856020318E22B4F
:1027C200E32B3B2CFF30DE00FF30DF00FF30E00068
:1027D200FF30E1005A08E2005B08E3005C08E40015
:1027E2005D08E5005608E2025708031C570FFA2B52
:1027F200FB2BE3025808031C580F002C012CE402A7
:102802005908031C590F062C072CE5026208DE0743
:1028120063080318630F0E2C0F2CDF0764080318DC
:10282200640F142C152CE00765080318650AE107EC
:102832006108D9006008D8005F08D7005E08D6009A
:102842008030DE005E08E606E909E90A6908031D30
:102852002B2C2C2C492C0130D607003003180130C8
:10286200D707003003180130D807003003180130B1
:10287200D907492C5A08D6025B08031C5B0FD70202
:102882005C08031C5C0FD8025D08031C5D0FD902B3
:102892005908580457045604031D502C512C7D2C02
:1028A2006908031D552C562C7D2C0030D9000030B0
:1028B200D8000030D7000030D600FB2C0130DE00FB
:1028C2000310D60DD70DD80DD90DDE0B612CE91FE3
:1028D2006B2C6C2C6D2C5614691C702C712C742C66
:1028E2000314E90D762C0310E90D680803197A2CFC
:1028F2007B2C7D2C0130E802D81F802C812C5F2C90
:10290200E701E91F852C862C942C69087F3903196D
:102912008B2C8C2C8F2CE701E70A942C561C922CC2
:10292200932C942C8C2C67080319982C992CCD2C61
:102932000130D607003003180130D70700300318E2
:102942000130D807003003180130D907591CAA2CCE
:10295200AB2CCD2C5608DE005708DF005808E000EB
:102962005908E1000130E200610DE10CE00CDF0CDE
:10297200DE0CE20BB52C6108D9006008D8005F08B4
:10298200D7005E08D600680A0319C82CC92CCD2CC2
:102992000130DE005E08E807680A0319D12CD22C48
:1029A200D72C6808031DD62CD72CE52C0030D90073
:1029B2000030D8000030D7000030D6006808031D70
:1029C200E32CE42CE52CE601681CE82CE92CEB2C2A
:1029D200D817EF2C7F30DE005E08D8056808DE00CD
:1029E20003105E0CDF005F08D900E61FF92CFA2CF9
:1029F200FB2CD917080083160313CC00A9308312CD
:102A02000313EA006A0883160313B9000A128A1133
:102A1200812D25304F0603190F2D102D242D4F081F
:102A220083120313EA00831603134C0884008312F3
:102A320003136A08831780000130EA006A088316CC
:102A42000313CC07072DC001C101BE01BF01280835
:102A520084000A128A150A200A168A110A168A1591
:102A6200E5210A168A11031C372D382D842D831671
:102A72000313C001C1010A30F2000030F3008316D3
:102A820003134108F5004008F4000A168A1559227A
:102A92000A168A11730883160313C1007208C00054
:102AA200280884000A128A150A200A168A11D03EC2
:102AB20083120313EA00FF3003180030EB006A08A8
:102AC20083160313C0070318C10A831203136B088A
:102AD20083160313C107013083120313EA006A0845
:102AE20083160313A807280884000A128A150A20ED
:102AF2000A168A110A168A15E5210A168A1103187E
:102B0200832D842D3C2D83160313280884000A127A
:102B12008A150A200A168A112E3A031D912D922D2A
:102B2200E72D3F17013083120313EA006A08831668
:102B32000313A807CD01CE01D62D0A30F2000030D2
:102B4200F300831603134E08F5004D08F4000A162D
:102B52008A1559220A168A11730883160313CE00A6
:102B62007208CD00280884000A128A150A200A1663
:102B72008A11D03E83120313EA00FF30031800309B
:102B8200EB006A0883160313CD070318CE0A8312DB
:102B920003136B0883160313CE070130831203134A
:102BA200EA006A0883160313A807280884000A1299
:102BB2008A150A200A168A110A168A15E5210A16AA
:102BC2008A110318E52DE62D9E2DEF2DCD01CE01A4
:102BD2003F16EF2D831603133F150D2E013083167A
:102BE2000313A807FF30280784000A128A150A2057
:102BF2000A168A11CF0083120313EA00EB016B0855
:102C0200003A0319052E072D6A08003A0319FD2F11
:102C1200663A0319EB2D072D00303E05831203138C
:102C2200EA000730831603133F0583120313EB00F8
:102C32006A086B0403191E2E212E0A128A117E2C99
:102C4200831603133F1E262E272E2B2E0630CD0071
:102C52000030CE003908840083130008C800840ABB
:102C62000008C900840A0008CA00840A0008CB00D0
:102C7200043083120313EA006A0883160313B907A8
:102C82004B08F5004A08F4004908F3004808F2002E
:102C92000030F9000030F8000030F7000030F60094
:102CA2000A168A15E3250A168A110318592E5A2E76
:102CB200772E831603134B08F5004A08F4004908DF
:102CC200F3004808F2000A168A15B4210A168A117E
:102CD200750883160313CB007408CA007308C90071
:102CE2007208C8000330BE040030BF048316031309
:102CF200C601C7014B08F5004A08F4004908F30071
:102D02004808F2000030F9000030F8000030F70007
:102D12000030F6000A168A15F0230A168A110318E3
:102D2200932E942E942F0310831603134A0D4B0DEA
:102D3200823EC600FF3003180030C700FF30C607CE
:102D42000318C70AFF30C7070330F2000030F30050
:102D52004708F5004608F4000A168A1559220A1691
:102D62008A11730883160313C7007208C6000A305B
:102D720083120313A0000030A10083160313470837
:102D820083120313A300831603134608831203134B
:102D9200A2000A168A15FE240A168A118312031348
:102DA200210883160313C700831203132008831616
:102DB2000313C600C71FDE2EDF2EE52EFF30C60727
:102DC2000318C70AFF30C7074603FF3A0A128A15DB
:102DD2009D240A168A1183120313450883160313CE
:102DE200C50083120313440883160313C40083121D
:102DF2000313430883160313C30083120313420809
:102E020083160313C2004B0883120313AB0083160D
:102E120003134A0883120313AA00831603134908F3
:102E220083120313A90083160313480883120313A2
:102E3200A80083160313450883120313AF008316F9
:102E42000313440883120313AE00831603134308CB
:102E520083120313AD008316031342088312031374
:102E6200AC000A128A153C210A168A118312031336
:102E72002B0883160313C500831203132A08831633
:102E82000313C40083120313290883160313C30018
:102E920083120313280883160313C2004508F500A2
:102EA2004408F4004308F3004208F2003F30F900FE
:102EB2008030F8000030F7000030F6000A168A155C
:102EC200E3250A168A110318672F682F712FFF3026
:102ED20083160313C6070318C70AFF30C707942FC8
:102EE200831603134508F5004408F4004308F30071
:102EF2004208F2004130F9002030F8000030F700BB
:102F02000030F6000A168A15E3250A168A11031CF8
:102F12008B2F8C2F942F013083160313C6070318AF
:102F2200C70A0030C707831603134E08803AFF0012
:102F320080307F02031D9F2F0D304D020318A22FF8
:102F4200A32FEA2F831603134D080A128A11A22512
:102F52000A168A11831203134508D9004408D800BF
:102F62004308D7004208D600831603134B08831286
:102F72000313DD00831603134A0883120313DC00D4
:102F820083160313490883120313DB00831603130A
:102F9200480883120313DA000A168A1174220A16E9
:102FA2008A1183120313590883160313CB00831269
:102FB2000313580883160313CA0083120313570816
:102FC20083160313C90083120313560883160313CF
:102FD200C800831603134708803AFF0080307F023F
:102FE200031DF52F0A3046020318FA2F0A128A111E
:0E2FF20026280A128A1177280A128A119B2DAE
:103334000C308316031399000800F20072088312FC
:1033440003138800080071088A00700E8300FE0EC3
:103354007E0E0900831603131812831203139817A1
:103364001816080075087404730472040319BB2941
:10337400BC29BE298030F506080083160313871183
:1033840087122030831203139400831603139401CD
:103394000800F20083160313981CD129D229CC29E2
:1033A40072088312031399000800831603139816F6
:1033B400831203130C12831603130C128B170B17AF
:1033C400071387170800F300F2013A307302031859
:1033D400EC29ED29F52930307302031CF229F32975
:1033E400F529F201F20A720C0800F40083120313A7
:1033F400091474080A168A159F210A168A1583125D
:10340400031389141A30F300F30B062A0000831205
:10341400031389100630F300F30B0E2A0000080092
:10342400F50083120313091075080A168A159F21E3
:103434000A168A158312031389140B30F4006230C0
:10344400F300F30B232AF40B232A00008312031343
:1034540089100630F4003030F300F30B2F2AF40BFC
:103464002F2A00000800F8007803031D3A2A3B2A9B
:10347400472A7608803EF7007708F90079080A168B
:103484008A1512220A168A15582A02307806031D54
:103494004C2A4D2A582A7608C03EF7007708F900CE
:1034A40079080A168A1512220A168A150800F601E6
:1034B400F701721C5E2A5F2A652A7408F60703184E
:1034C400F70A7508F70701300310F40DF50DFF3EF8
:1034D400031D662A01300310F30CF20CFF3E031D9A
:1034E4006D2A72087304031D782A792A5B2A7708E7
:1034F400F3007608F2000800FA00F601F7017208FA
:10350400F400F5017408F8007508F9007A1C8B2A98
:103514008C2A922A7808F6070318F70A7908F7071D
:1035240001300310F80DF90DFF3E031D932A03101B
:10353400FA0C7A08031D9F2AA02A882A7708F30028
:103544007608F20008000330831603178800890107
:103554000330831603138500831203138501831636
:10356400031388018312031388018316031389014B
:103574008312031389018316031386018312031331
:1035840086010A168A15BF210A168A1583160313A3
:103594000710831203130710831603138710831273
:1035A40003138714831603130711831203130715D8
:1035B4000800720873040319E02AE12A102BF701AA
:1035C400F70AEF2A01300310F20DF30DFF3E031D3D
:1035D400E52A0130F6007608F707F31FF22AF32AEA
:1035E400E42A73087502031DF92A72087402031C85
:1035F400FC2AFD2A032B7208F4027308031CF5034A
:10360400F50201300310F30CF20CFF3E031D042BF2
:103614000130F702031D0F2B102BF32A7508F3005A
:103624007408F200080083120313A001A1013E2BC9
:1036340020087507F8007608F7000318F70AA01F9A
:10364400242BF7037708F900790883120313FF008A
:10365400780884000A128A1500200A168A150A16A8
:103664008A15F7210A168A15013083120313A0075D
:103674000318A10A0030A10720087507F80076088E
:10368400F7000318F70AA01F482BF7037708F9007F
:10369400790883120313FF00780884000A128A153C
:1036A40000200A168A15003A031D592B5A2B1A2B8F
:1036B400080083120313A501A6012008210403199D
:1036C400642B652B9C2BA401A40A732B01300310DB
:1036D400A00DA10DFF3E031D692B0130F8007808F1
:1036E400A407A11F762B772B682B01300310A50D9F
:1036F400A60DFF3E031D782B21082302031D842BF6
:1037040020082202031C872B882B8F2B2008A2025F
:103714002108031CA303A302251401300310A10CE8
:10372400A00CFF3E031D902B0130A402031D9B2B14
:103734009C2B772B2608A1002508A00008008312E3
:1037440003130910891000300A168A159F210A16DE
:103754008A153430F700F130F600F60BAF2BF70B77
:10376400AF2BB42B30300A168A1512220A168A158A
:103774000D30F700FB30F600F60BBE2BF70BBE2B1B
:10378400C32B30300A168A1512220A168A151D30E8
:10379400F7009130F600F60BCD2BF70BCD2B303024
:1037A4000A168A1512220A168A1538300A168A153C
:1037B40012220A168A150C300A168A1512220A16C3
:1037C4008A1501300A168A1512220A168A1506303D
:1037D4000A168A1512220A168A1508000030720584
:1037E40083120313A00000307305A1008030740518
:1037F400A2007F307505A3002308220421042004BD
:10380400031D052C062C0E2C0030F5000030F400AE
:103814000030F3000030F20000307605A0000030E4
:103824007705A10080307805A2007F307905A300D8
:103834002308220421042004031D212C222C2A2CD9
:103844000030F9000030F8000030F7000030F600D6
:1038540079087506031D382C78087406031D382C66
:1038640077087306031D382C7608720603193B2C5F
:103874003C2C3E2C03103F2C0314080075087404E0
:10388400730472040319472C482C8D2C83120313E0
:10389400A001A00A5A2C0130FA000310F20DF30D16
:1038A400F40DF50DFA0B4F2C0130FA007A08A0073D
:1038B400F51F5D2C5E2C4D2C75087902031D6C2CB4
:1038C40074087802031D6C2C73087702031D6C2C9A
:1038D40072087602031C6F2C702C7E2C7208F60280
:1038E4007308031C730FF7027408031C740FF802A7
:1038F4007508031C750FF90201300310F50CF40C64
:10390400F30CF20CFF3E031D7F2C0130A002031DBB
:103914008C2C8D2C5E2C7908F5007808F40077083F
:10392400F3007608F2000800003083120313A300AA
:103934000030A2000030A1000030A000750874041B
:10394400730472040319A72CA82CF52CA401A40A4F
:10395400B82C0130FA000310F20DF30DF40DF50D3F
:10396400FA0BAD2C0130FA007A08A407F51FBB2C22
:10397400BC2CAB2C0130FA000310A00DA10DA20D3C
:10398400A30DFA0BBE2C75087902031DD32C740801
:103994007802031DD32C73087702031DD32C7208FD
:1039A4007602031CD62CD72CE62C7208F602730878
:1039B400031C730FF7027408031C740FF8027508D4
:1039C400031C750FF902201401300310F50CF40CDC
:1039D400F30CF20CFF3E031DE72C0130A402031D7F
:1039E400F42CF52CBC2C2308F5002208F400210843
:1039F400F3002008F200080083120313A501A11F9D
:103A0400042D052D0C2DA009A109A00A0319A10A52
:103A1400A501A50AA31F0F2D102D192DA209A30975
:103A2400A20A0319A30A0130F9007908A506A60120
:103A3400A701200821040319202D212D582DA401AC
:103A4400A40A2F2D01300310A00DA10DFF3E031D6C
:103A5400252D0130F9007908A407A11F322D332D3B
:103A6400242D01300310A60DA70DFF3E031D342D98
:103A740021082302031D402D20082202031C432D8C
:103A8400442D4B2D2008A2022108031CA303A302EA
:103A9400261401300310A10CA00CFF3E031D4C2D75
:103AA4000130A402031D572D582D332D2508031969
:103AB4005C2D5D2D622DA609A709A60A0319A70A84
:103AC4002708A1002608A00008000310831203138E
:103AD400570D580DD9005908DF005F08031D732DD9
:103AE400742D7D2D0030D8000030D7000030D60072
:103AF4000030D500E22D5508D9005608DA005708E1
:103B0400DB005808DC001F300310DC0CDB0CDA0C83
:103B1400D90CFF3E031D862D5908DD005D08DE002B
:103B2400D717FF30D505FF30D605FF30D705003055
:103B3400D8059630DF02DF1FA02DA12DBB2D5F0815
:103B4400803A973E0318A72DA82DA92D742D013076
:103B54000310D80CD70CD60CD50CFF3E031DAA2D90
:103B64000130D9005908DF07031DB92DBA2DA92D3D
:103B7400D22D20305F02031CC02DC12DCD2D742DFC
:103B84000130D9000310D50DD60DD70DD80DD90BA2
:103B9400C42D0130DF025F08031DD12DD22DC22DAB
:103BA4005E080319D62DD72DE22DD509D609D709DC
:103BB400D809D50A0319D60A0319D70A0319D80A4A
:103BC40008000030720583120313A000003073054F
:103BD400A10080307405A2007F307505A30023087E
:103BE400220421042004031DF82DF92D012E003098
:103BF400F5000030F4000030F3000030F200003033
:103C04007605A00000307705A10080307805A20079
:103C14007F307905A3002308220421042004031D16
:103C2400142E152E1D2E0030F9000030F80000303F
:103C3400F7000030F600F51F202E212E452E00300F
:103C4400A0000030A1000030A2008030A300720860
:103C5400A0027308031C730F302E312EA1027408C6
:103C6400031C740F362E372EA2027508031C750F21
:103C74003C2E3D2EA3022308F5002208F40021085F
:103C8400F3002008F200F91F482E492E6D2E003053
:103C9400A0000030A1000030A2008030A30076080C
:103CA400A0027708031C770F582E592EA10278081A
:103CB400031C780F5E2E5F2EA2027908031C790F75
:103CC400642E652EA3022308F9002208F8002108B7
:103CD400F7002008F6008030F5068030F9067908F0
:103CE4007502031D7F2E78087402031D7F2E77084A
:103CF4007302031D7F2E760872020318822E832E10
:103D0400852E0310862E0314080083120313A000CB
:103D1400200803198E2E8F2EA32EF51F922E932E7C
:103D2400A32E7209A2007309A3007409A4007509E3
:103D3400A500A20A0319A30A0319A40A0319A50AD0
:103D4400AB2E7508A5007408A4007308A3007208BC
:103D5400A2007508740473047204031DB22EB32EFA
:103D6400BC2E0030F5000030F4000030F3000030C9
:103D7400F200422F9630F6007608A100CE2E0130D4
:103D8400F6007608A10701300310A50CA40CA30CBF
:103D9400A20CFF3E031DC62EFE302505031DD32EA7
:103DA400D42EC12EF02E0130F6007608A107013082
:103DB400A207003003180130A307003003180130B4
:103DC400A407003003180130A50701300310A50C27
:103DD400A40CA30CA20CFF3E031DE82EFF30250506
:103DE400031DF52EF62ED52E022F0130A10201302F
:103DF400F6000310A20DA30DA40DA50DF60BFB2ECA
:103E0400A41B052F062F0C2F0230210203180B2FA1
:103E14000C2FF72E21180F2F102F182FFF30A2056B
:103E2400FF30A3057F30A405FF30A5050310A10CC6
:103E34002108F600F701F801F90118300310F60D16
:103E4400F70DF80DF90DFF3E031D202F7608A2048F
:103E54007708A3047808A4047908A50420080319A2
:103E6400342F352F3A2FF51F382F392F3A2FA51716
:103E74002508F5002408F4002308F3002208F200C2
:103E84000800720883120313A0007308A1007408C9
:103E9400A2000310210D220DA3002308A900290864
:103EA400031D552F562F5F2F0030F5000030F4000E
:103EB4000030F3000030F200FF2F7608A0007708EE
:103EC400A1007808A2000310210D220DA3002308ED
:103ED400A8002808031D6F2F702F712F562FF3177A
:103EE400FF30F205FF30F3050030F405F717FF301B
:103EF400F605FF30F7050030F8050030A700003064
:103F0400A6000030A5000030A4007F30A90298303C
:103F14002807A0002008A9021830A0002008A80043
:103F24000130A0000310A40DA50DA60DA70DA00B34
:103F3400942F78087402031DA52F77087302031DBC
:103F4400A52F76087202031CA82FA92FB42F760878
:103F5400F2027708031C770FF3027808031C780A2F
:103F6400F402241401300310F20DF30DF40DFF3E9E
:103F7400031DB52F0130A802031DC12FC22F922F9C
:103F8400A91FC52FC62FE02F2908803A973E031892
:103F9400CC2FCD2FCE2F562F01300310A70CA60CFB
:103FA400A50CA40CFF3E031DCF2F0130A000200858
:103FB400A907031DDE2FDF2FCE2FF72F183029027C
:103FC400031CE52FE62FF22F562F0130A00003101B
:103FD400A40DA50DA60DA70DA00BE92F0130A90274
:103FE4002908031DF62FF72FE72F2708F5002608C9
:0C3FF400F4002508F3002408F200080087
:04400E00D120FF3F7F
:00000001FF
