:020000040000FA
:100000000A128A11E72F83120313A101F81F09288E
:100010000A281128F709F809F70A0319F80AA101B3
:10002000A10AFA1F142815281E28F909FA09F90A45
:100030000319FA0A0130FB007B08A106A201A30103
:10004000770878040319252826285D28A001A00A2E
:10005000342801300310F70DF80DFF3E031D2A2848
:100060000130FB007B08A007F81F37283828292813
:1000700001300310A20DA30DFF3E031D392878089F
:100080007A02031D452877087902031C482849286D
:1000900050287708F9027808031CFA03FA022214A0
:1000A00001300310F80CF70CFF3E031D51280130FE
:1000B000A002031D5C285D28382821080319612847
:1000C00062286728A209A309A20A0319A30A230820
:1000D000F8002208F700080083160313C900A130B6
:1000E000AD002D08B600D02F25304C060319792815
:1000F0007A2886284C08AD00490884002D0883170B
:1001000080000130AD002D08C907D02FBD01BE0110
:10011000BB01BC01200884000A128A150A200A12B9
:100120008A110A168A1105200A128A11031C9928BD
:100130009A28DA2883160313BD01BE010A30F000A5
:100140000030F100831603133E08F3003D08F2006F
:100150000A168A1500240A128A11710883160313DD
:10016000BE007008BD00200884000A128A150A200B
:100170000A128A11D03EAD00FF3003180030AE00E5
:100180002D08BD070318BE0A2E08BE070130AD00BA
:100190002D08A007200884000A128A150A200A12D6
:1001A0008A110A168A1105200A128A110318D92801
:1001B000DA289E2883160313200884000A128A1561
:1001C0000A200A128A112E3A031DE728E8282D2951
:1001D0003C170130AD002D08A007CA01CB011C2936
:1001E0000A30F0000030F100831603134B08F300CF
:1001F0004A08F2000A168A1500240A128A117108A8
:1002000083160313CB007008CA00200884000A126A
:100210008A150A200A128A11D03EAD00FF30031859
:100220000030AE002D08CA070318CB0A2E08CB07F2
:100230000130AD002D08A007200884000A128A159D
:100240000A200A128A110A168A1105200A128A1136
:1002500003182B292C29F0283329CA01CB013C167D
:1002600033293C154F29013083160313A007FF30B3
:10027000200784000A128A150A200A128A11CC006B
:10028000AD00AE012E08003A03194729D02F2D08E2
:10029000003A0319E22F663A03193129D02F0030B2
:1002A0003B05AD0007303C05AE002D082E040319B8
:1002B0005A295B290D2F3C1E5E295F2963290630D0
:1002C000CA000030CB003608840083130008C50044
:1002D000840A0008C600840A0008C700840A0008CF
:1002E000C8000430AD002D08B6074808F3004708E1
:1002F000F2004608F1004508F0000030F700003039
:10030000F6000030F5000030F4000A168A15A42625
:100310000A128A1103188D298E29AB29831603131B
:100320004808F3004708F2004608F1004508F000CD
:100330000A168A150A230A128A11730883160313F0
:10034000C8007208C7007108C6007008C5000330F5
:10035000BB040030BC0483160313C301C401480866
:10036000F3004708F2004608F1004508F0000030AD
:10037000F7000030F6000030F5000030F4000A16F7
:100380008A1537250A128A110318C729C829B82ADD
:10039000031083160313470D480D823EC300FF3040
:1003A00003180030C400FF30C3070318C40AFF302D
:1003B000C4070330F0000030F1004408F3004308A4
:1003C000F2000A168A1500240A128A11710883168F
:1003D0000313C4007008C3000A30F7000030F800AF
:1003E0004408FA004308F9000A128A1103200A128D
:1003F0008A11780883160313C4007708C300C41F4A
:10040000022A032A092AFF30C3070318C40AFF304F
:10041000C4074303FF3A0A128A1540210A128A11BF
:1004200083120313410883160313C20083120313BC
:10043000400883160313C100831203133F08831679
:100440000313C000831203133E0883160313BF0077
:10045000480883120313A700831603134708831267
:100460000313A60083160313460883120313A50083
:1004700083160313450883120313A4008316031382
:10048000420883120313AB0083160313410883123F
:100490000313AA0083160313400883120313A90051
:1004A000831603133F0883120313A8000A128A1548
:1004B0009F240A128A118312031327088316031339
:1004C000C20083120313260883160313C10083128C
:1004D0000313250883160313C00083120313240893
:1004E00083160313BF004208F3004108F2004008DE
:1004F000F1003F08F0003F30F7008030F600003098
:10050000F5000030F4000A168A15A4260A128A1192
:1005100003188B2A8C2A952AFF3083160313C307EE
:100520000318C40AFF30C407B82A8316031342080D
:10053000F3004108F2004008F1003F08F0004130AC
:10054000F7002030F6000030F5000030F4000A1605
:100550008A15A4260A128A11031CAF2AB02AB82AC7
:10056000013083160313C3070318C40A0030C407FD
:10057000831603134B08803AFF0080307F02031D6F
:10058000C32A0D304A020318C62AC72A0E2B831627
:1005900003134A080A168A116D230A128A1183125C
:1005A00003134108D5004008D4003F08D3003E089B
:1005B000D20083160313480883120313D90083164D
:1005C0000313470883120313D80083160313460846
:1005D00083120313D70083160313450883120313F2
:1005E000D6000A168A1178250A128A11831203137B
:1005F000550883160313C800831203135408831687
:100600000313C70083120313530883160313C60092
:1006100083120313520883160313C50083160313B2
:100620004408803AFF0080307F02031D192B0A30F6
:10063000430203181C2B1D2B6E2B83160313480833
:10064000F3004708F2004608F1004508F0000030CA
:10065000F7000030F6000030F5000030F4000A1614
:100660008A1537250A128A110318372B382BE02BED
:1006700083160313480883120313D400831603134D
:10068000470883120313D30083160313460883120B
:100690000313D20083160313450883120313D100FA
:1006A0000A168A1528260A128A118312031354087F
:1006B000530452045104031D5E2B5F2BE02B831661
:1006C00003134408803AFF0080307F02031D6A2B29
:1006D00002304302031C6D2B6E2BE02B8316031399
:1006E0004208F3004108F2004008F1003F08F00022
:1006F0004030F7008930F6007030F5005F30F400CC
:100700000A168A15A4260A128A110318882B892B27
:10071000922BF73083160313C3070318C40AFF3064
:10072000C4079A2BF83083160313C3070318C40AAF
:10073000FF30C40743080A128A1540210A128A11A1
:1007400083120313410883160313C2008312031399
:10075000400883160313C100831203133F08831656
:100760000313C000831203133E0883160313BF0054
:100770004808F3004708F2004608F1004508F00079
:100780004208F7004108F6004008F5003F08F40071
:100790000A168A112D210A128A117308831603136F
:1007A000BA007208B9007108B8007008B7000030CC
:1007B000C8000030C7000030C6000030C500642CFF
:1007C00083160313480883120313D40083160313FC
:1007D000470883120313D3008316031346088312BA
:1007E0000313D20083160313450883120313D100A9
:1007F0000A168A1528260A128A118312031354082E
:1008000083160313BA0083120313530883160313CA
:10081000B90083120313520883160313B80083121E
:100820000313510883160313B7003A08F30039087D
:10083000F2003808F1003708F00000300A168A1577
:1008400046270A128A11730883120313E9007208FB
:10085000E8007108E7007008E600831603134808F3
:1008600083120313ED008316031347088312031347
:10087000EC0083160313460883120313EB00831660
:100880000313450883120313EA000A168A15DC23B2
:100890000A128A1183120313690883160313C8000E
:1008A00083120313680883160313C700831203130C
:1008B000670883160313C6008312031366088316A2
:1008C0000313C500C301C401CC01CC0A4C08AD0020
:1008D00001300310AD0DFF3E031D692C03102D0DDB
:1008E000693E84000A128A150A200A128A11AE0093
:1008F0000A128A150A200A128A11AF000A128A15F2
:100900000A200A128A11B0000A128A150A200A1255
:100910008A11B10031083A02031D982C30083902BF
:10092000031D982C2F083802031D982C2E0837021F
:1009300003189B2C9C2C9D2CA72C0130AD002D085E
:10094000CC070A304C06031DA62CA72C662C4C089D
:100950004A07AD004B0803184B0AAE0043082D07A9
:10096000AF0044080318440A2E07B0002F08BD0248
:100970003008031CBE03BE024A084B040319C12CF5
:10098000C22CC82CFF30BD070318BE0AFF30BE07BB
:1009900003303B05AD0000303C05AE002D082E04B1
:1009A0000319D32CD42CE92CFF30BD070318BE0A41
:1009B000FF30BE07E92C203083160313AD00490831
:1009C00084002D08831780000130AD002D08C90771
:1009D000D42C3E08803AFF0080307F02031DF22CA9
:1009E00001303D020318F52CF62CDB2C0330831666
:1009F00003133B05AD0000303C05AE002D082E046E
:100A00000319032D042D762D2D30AD0049088400E7
:100A10002D08831780000130AD002D08C907762D01
:100A20004C08AD0001300310AD0DFF3E031D132D2A
:100A300003102D0D693E84000A128A150A200A123D
:100A40008A11F0000A128A150A200A128A11F1008E
:100A50000A128A150A200A128A11F2000A128A154D
:100A60000A200A128A11F3003A08F7003908F60042
:100A70003808F5003708F4000A128A15DA200A123D
:100A80008A11730883160313C2007208C10071082B
:100A9000C0007008BF000030F3000030F2000030EA
:100AA000F1000A30F0004208F7004108F600400863
:100AB000F5003F08F4000A168A15D4250A128A1197
:100AC000730883160313C2007208C1007108C000C6
:100AD0007008BF003F08303EAD00490884002D0873
:100AE000831780000130AD002D08C9070130CC020A
:100AF0004C0A031D7C2D7D2D102D912D3030831639
:100B00000313AD00490884002D08831780000130CD
:100B1000AD002D08C907FF30C3070318C40AFF3012
:100B2000C4074408803AFF0080307F02031D9A2DDD
:100B30000130430203189D2D9E2D7E2D8316031335
:100B40004B08803AFF0080307F02031DA92D093039
:100B50004A02031CAC2DAD2DB42D083083160313AF
:100B6000AD002D08CC00BA2D831603134A08AD0042
:100B70002D08CC004C08AD00AE012D08CA022E088D
:100B8000031CCB03CB024C080319C72DC82DD32D52
:100B90002E30AD00490884002D08831780000130F5
:100BA000AD002D08C9074C080A128A1540210A1207
:100BB0008A1183120313410883160313B5008312AD
:100BC0000313400883160313B400831203133F0872
:100BD00083160313B300831203133E088316031313
:100BE000B200350883120313AB00831603133408D5
:100BF00083120313AA00831603133308831203130B
:100C0000A90083160313320883120313A800831666
:100C10000313480883120313A7008316031347081E
:100C200083120313A60083160313460883120313CB
:100C3000A50083160313450883120313A4000A12A8
:100C40008A159F240A128A11831203132708D400DD
:100C50002608D3002508D2002408D1000A168A15D8
:100C600028260A128A1183120313540883160313C9
:100C7000BA0083120313530883160313B9008312B7
:100C80000313520883160313B80083120313510889
:100C900083160313B700ED2E4C08AD00013003108E
:100CA000AD0DFF3E031D4F2E03102D0D693E840038
:100CB0000A128A150A200A128A11F0000A128A15ED
:100CC0000A200A128A11F1000A128A150A200A1251
:100CD0008A11F2000A128A150A200A128A11F300F8
:100CE0003A08F7003908F6003808F5003708F4002C
:100CF0000A128A15DA200A128A117308831603135E
:100D0000C2007208C1007108C0007008BF00003046
:100D1000F3000030F2000030F1000A30F000420829
:100D2000F7004108F6004008F5003F08F4000A16F5
:100D30008A15D4250A128A11730883160313C20078
:100D40007208C1007108C0007008BF003F08303E43
:100D5000AD00490884002D08831780000130AD00E4
:100D60002D08C9074C08AD0001300310AD0DFF3E42
:100D7000031DB52E03102D0D693E84000A128A153D
:100D80000A200A128A11F0000A128A150A200A1291
:100D90008A11F1000A128A150A200A128A11F20039
:100DA0000A128A150A200A128A11F3003A08F7007B
:100DB0003908F6003808F5003708F4000A168A15D5
:100DC000D4250A128A11730883160313BA00720815
:100DD000B9007108B8007008B7000130CC024C0AA5
:100DE000031DF32EF42E4C2E062F3030AD00490893
:100DF00084002D08831780000130AD002D08C9073D
:100E0000FF30CA070318CB0AFF30CB074A084B0450
:100E1000031D0B2F0C2FF52ED02F4A084B04031D5A
:100E2000122F132F212F3A08390438043704031DD9
:100E30001A2F1B2F212F0130CA070318CB0A0030AD
:100E4000CB074B08803A803C031D282F4A084C02F0
:100E500003182B2F2C2F332F831603134A08AD00B2
:100E60002D08CC004B2F831603134B08803AAD009E
:100E700080302D02031D3E2F4C084A020318412FDB
:100E8000422F4B2F831603134C08AD00AE012D08E3
:100E9000CA002E08CB00831603133D083E04031935
:100EA000522F532F652F03303B05AD0000303C051A
:100EB000AE002D082E0403195E2F5F2F652FFF3023
:100EC000BD070318BE0AFF30BE073C1F682F692FFD
:100ED000842F4B08803AAD003E08803A2D02031D56
:100EE000732F3D084A020318762F772F802F831621
:100EF00003134A08BD024B08031CBE03BE02842F25
:100F000083160313BD01BE013E08803A803C031DD9
:100F10008B2F3D084C0203188E2F8F2F9B2F83168B
:100F200003134C08AD00AE012D08BD022E08031CB2
:100F3000BE03BE029F2F83160313BD01BE013D08F1
:100F40003E040319A42FA52FBC2F2030AD00490863
:100F500084002D08831780000130AD002D08C907DB
:100F6000FF30BD070318BE0AFF30BE073D083E0430
:100F7000031DBB2FBC2FA52F03303B05AD00003058
:100F80003C05AE002D082E040319C72FC82FD02F03
:100F90002D30AD00490884002D088317800081287A
:100FA0000130A007FF30200784000A128A150A20AA
:100FB0000A128A11AD002D08CC004C08031DE12F48
:100FC000E22F7428490884008317800108008312E7
:100FD0000313EE018313D1308400E0300A168A1522
:100FE00002230A128A11831790308400A4300A1653
:100FF0008A1502230A128A1183010A168A11EB2923
:10100000FF1B0A2883137F1883170008840A03191B
:10101000FF0A080008308A000408840A82070034A6
:101020000034003480343F34003400342034413400
:1010300000340034C8344234003400347A34443448
:10104000003440341C34463400345034C334473404
:1010500000342434743449348034963418344B3496
:101060002034BC34BE344C3428346B346E344E34AB
:10107000F934023415345034EC347834AD346034FF
:10108000CA34F234493471340034003480343F348B
:10109000CD34CC34CC343D340A34D73423343C34CE
:1010A0006F34123483343A341734B734D13438348B
:1010B000AC34C53427343734BD3437348634353412
:1010C0009534BF34D63433347734CC342B34323483
:1010D0005F34703489343034FF34E634DB342E34FA
:1010E0000834E5343C341E3460344234A2340D34C8
:1010F00001340034003400340A3400340034003445
:101100006434003400340034E834033400340034F0
:101110001034273400340034A034863401340034D1
:10112000403442340F3400348034963498340034E0
:101130000034E134F53405340034CA349A343B3495
:10114000253431342E34323466342034253431346D
:101150002E34323466342034203420342534313473
:101160002E34323466340034413444344334203431
:10117000203443344F344E3454342034203420341B
:10118000543445344D34503420340A34003441341E
:10119000443443342034203443344F344E345434B4
:0E11A00020342034543445344D34503400345F
:1011B4000030FC000030FB000030FA000030F90081
:1011C40073087204710470040319E928EA283729A2
:1011D400FD01FD0AFA280130F8000310F00DF10DAD
:1011E400F20DF30DF80BEF280130F8007808FD0735
:1011F400F31FFD28FE28ED280130F8000310F90D37
:10120400FA0DFB0DFC0DF80B002973087702031D82
:10121400152972087602031D152971087502031D2C
:10122400152970087402031C182919292829700823
:10123400F4027108031C710FF5027208031C720F8B
:10124400F6027308031C730FF702791401300310BC
:10125400F30CF20CF10CF00CFF3E031D29290130B4
:10126400FD02031D36293729FE287C08F3007B087C
:10127400F2007A08F1007908F000080083120313E1
:10128400D000D01F46294729F42AD009D00A500893
:10129400803A123E031C4F295029382A0A30F7009D
:1012A4000030F8005008F200F301F21BF30364303D
:1012B400F0000030F1000A168A1117200A128A156C
:1012C4007108FA007008F9000A128A1103200A1240
:1012D4008A15770883120313C20001300310C20D6C
:1012E400FF3E031D70290310420D593E84000A126B
:1012F4008A150A200A128A15C3000A128A150A20BE
:101304000A128A15C4000A128A150A200A128A15BA
:10131400C5000A128A150A200A128A15C600460850
:10132400A7004508A6004408A5004308A4006430AB
:10133400F7000030F8005008F900FA01F91BFA032D
:101344000A128A1103200A128A15770883120313DA
:10135400C70001300310C70DFF3E031DAC29031065
:10136400470D7D3E84000A128A150A200A128A1546
:10137400C8000A128A150A200A128A15C9000A121C
:101384008A150A200A128A15CA000A128A150A2026
:101394000A128A15CB004B08AB004A08AA00490878
:1013A400A9004808A8000A128A159F240A128A155F
:1013B400831203132708CF002608CE002508CD008A
:1013C4002408CC000A30F0000030F1005008F2008C
:1013D400F301F21BF3030A168A1117200A128A1565
:1013E400700883120313C20001300310C20DFF3EC4
:1013F400031DF7290310420D353E84000A128A1595
:101404000A200A128A15C3000A128A150A200A122F
:101414008A15C4000A128A150A200A128A15C50000
:101424000A128A150A200A128A15C6004608A7005D
:101434004508A6004408A5004308A4004F08AB00D3
:101444004E08AA004D08A9004C08A8000A128A15E3
:101454009F240A128A15831203132708C100260841
:10146400C0002508BF002408BE009E2C5008803A06
:10147400753E031C3E2A3F2AC72A0A30F00000307A
:10148400F1005008F200F301F21BF3030A168A116B
:1014940017200A128A15700883120313C200013040
:1014A4000310C20DFF3E031D522A0310420D353EA8
:1014B40084000A128A150A200A128A15C3000A1225
:1014C4008A150A200A128A15C4000A128A150A20EB
:1014D4000A128A15C5000A128A150A200A128A15E8
:1014E400C6004608A7004508A6004408A50043080E
:1014F400A4000A30F7000030F8005008F900FA019F
:10150400F91BFA030A128A1103200A128A157708B2
:1015140083120313C70001300310C70DFF3E031DE0
:101524008E2A0310470D593E84000A128A150A2098
:101534000A128A15C8000A128A150A200A128A1584
:10154400C9000A128A150A200A128A15CA000A1248
:101554008A150A200A128A15CB004B08AB004A08E8
:10156400AA004908A9004808A8000A128A159F245D
:101574000A128A15831203132708C1002608C00023
:101584002508BF002408BE009E2C5008C20001306C
:101594000310C20DFF3E031DCA2A0310420D353E3F
:1015A40084000A128A150A200A128A15C3000A1234
:1015B4008A150A200A128A15C4000A128A150A20FA
:1015C4000A128A15C5000A128A150A200A128A15F7
:1015D400C6004608C1004508C0004408BF004308CF
:1015E400BE009E2C5008803A123E031CFA2AFB2AA5
:1015F400E32B0A30F7000030F8005008F200F30142
:10160400F21BF3036430F0000030F1000A168A1173
:1016140017200A128A157108FA007008F9000A12D4
:101624008A1103200A128A15770883120313C20051
:1016340001300310C20DFF3E031D1B2B0310420D8E
:10164400253E84000A128A150A200A128A15C3004C
:101654000A128A150A200A128A15C4000A128A1567
:101664000A200A128A15C5000A128A150A200A12CB
:101674008A15C6004608A7004508A6004408A50028
:101684004308A4006430F7000030F8005008F90063
:10169400FA01F91BFA030A128A1103200A128A15A5
:1016A400770883120313C70001300310C70DFF3EF0
:1016B400031D572B0310470D493E84000A128A1557
:1016C4000A200A128A15C8000A128A150A200A1268
:1016D4008A15C9000A128A150A200A128A15CA0034
:1016E4000A128A150A200A128A15CB004B08AB008D
:1016F4004A08AA004908A9004808A8000A128A153D
:101704009F240A128A15831203132708CF00260880
:10171400CE002508CD002408CC000A30F0000030AB
:10172400F1005008F200F301F21BF3030A168A11C8
:1017340017200A128A15700883120313C20001309D
:101744000310C20DFF3E031DA22B0310420D013EE8
:1017540084000A128A150A200A128A15C3000A1282
:101764008A150A200A128A15C4000A128A150A2048
:101774000A128A15C5000A128A150A200A128A1545
:10178400C6004608A7004508A6004408A50043086B
:10179400A4004F08AB004E08AA004D08A9004C084D
:1017A400A8000A128A159F240A128A1583120313A9
:1017B4002708C1002608C0002508BF002408BE0071
:1017C4009E2C5008803A753E031CE92BEA2B722CA0
:1017D4000A30F0000030F1005008F200F301F21B6F
:1017E400F3030A168A1117200A128A157008831245
:1017F4000313C20001300310C20DFF3E031DFD2B75
:101804000310420D013E84000A128A150A200A12AE
:101814008A15C3000A128A150A200A128A15C400FE
:101824000A128A150A200A128A15C5000A128A1594
:101834000A200A128A15C6004608A7004508A60011
:101844004408A5004308A4000A30F7000030F8005B
:101854005008F900FA01F91BFA030A128A1103204D
:101864000A128A15770883120313C7000130031084
:10187400C70DFF3E031D392C0310470D253E840080
:101884000A128A150A200A128A15C8000A128A1531
:101894000A200A128A15C9000A128A150A200A1295
:1018A4008A15CA000A128A150A200A128A15CB0060
:1018B4004B08AB004A08AA004908A9004808A80038
:1018C4000A128A159F240A128A1583120313270801
:1018D400C1002608C0002508BF002408BE009E2CB5
:1018E4005008C20001300310C20DFF3E031D752CC9
:1018F4000310420D013E84000A128A150A200A12BE
:101904008A15C3000A128A150A200A128A15C4000D
:101914000A128A150A200A128A15C5000A128A15A3
:101924000A200A128A15C6004608C1004508C000EC
:101934004408BF004308BE000800831203132708AD
:101944008039AC002C08B1002708AC002C07AD008E
:101954002D08B700A61FAF2CB02CB12C37143708B4
:101964000319B52CB62CC52C370A031DBA2CBB2C75
:10197400C32C0030A7000030A6000030A5000030C2
:10198400A400A617CD2C0030A7000030A60000301C
:10199400A5000030A4002B088039AC002C08B10647
:1019A4002B08AC002C07AD002D08B600AA1FDB2CB9
:1019B400DC2CDD2C361436080319E12CE22CF12C36
:1019C400360A031DE62CE72CEF2C0030AB00003068
:1019D400AA000030A9000030A800AA17F92C003092
:1019E400AB000030AA000030A9000030A80036087F
:1019F4000319FD2CFE2C032D3708031D022D032D86
:101A04000C2D0030A7000030A6000030A5000030E7
:101A1400A400FF2F2408AC002C08F0002A080A16A2
:101A24008A1525240A128A15710883120313BD002E
:101A34007008BC003C08AC00AD01AE01AF012F083A
:101A4400B5002E08B4002D08B3002C08B2003D08E0
:101A5400AC00AD01AE01AF012F08BB002E08BA00E7
:101A64002D08B9002C08B8002508AC002C08F0009B
:101A740029080A168A1525240A128A157108831260
:101A84000313BD007008BC003C08AC00AD01AE01FE
:101A9400AF012C08B2072D0803110318013E0319E6
:101AA400542DB3072E0803110318013E03195B2DAF
:101AB400B4072F0803110318013E0319622DB5075B
:101AC4003D08AC00AD01AE01AF012C08B8072D08EC
:101AD40003110318013E0319702DB9072E080311D1
:101AE4000318013E0319772DBA072F0803110318B1
:101AF400013E03197E2DBB072608AC002C08F0001C
:101B040028080A168A1525240A128A1571088312D0
:101B14000313BD007008BC003C08AC00AD01AE016D
:101B2400AF012C08B2072D0803110318013E031955
:101B34009C2DB3072E0803110318013E0319A32D8E
:101B4400B4072F0803110318013E0319AA2DB50782
:101B54003D08AC00AD01AE01AF012C08B8072D085B
:101B640003110318013E0319B82DB9072E080311F8
:101B74000318013E0319BF2DBA072F0803110318D8
:101B8400013E0319C62DBB070830AC000310B20D8B
:101B9400B30DB40DB50DAC0BC82D2508AC002C0845
:101BA400F00028080A168A1525240A128A157108D5
:101BB40083120313BD007008BC003C08AC003D0850
:101BC400AD00AE01AF012C08B2072D0803110318B4
:101BD400013E0319EE2DB3072E0803110318013E2D
:101BE4000319F52DB4072F0803110318013E031937
:101BF400FC2DB5072408AC002C08F00029080A16AF
:101C04008A1525240A128A15710883120313BD004C
:101C14007008BC003C08AC003D08AD00AE01AF014B
:101C24002C08B2072D0803110318013E03191B2EBB
:101C3400B3072E0803110318013E0319222EB4071B
:101C44002F0803110318013E0319292EB507083084
:101C5400AC000310B20DB30DB40DB50DAC0B2B2EAF
:101C64002408AC002C08F00028080A168A1525243C
:101C74000A128A15710883120313BD007008BC0090
:101C84003C08AC003D08AD00AE01AF012C08B20722
:101C94002D0803110318013E0319512EB3072E0812
:101CA40003110318013E0319582EB4072F0803111A
:101CB4000318013E03195F2EB5072508AC002C0854
:101CC400F0002A080A168A1525240A128A157108B2
:101CD40083120313BD007008BC003C08AC003D082F
:101CE400AD00AE01AF012C08B8072D08031103188D
:101CF400013E03197E2EB9072E0803110318013E75
:101D04000319852EBA072F0803110318013E03197E
:101D14008C2EBB072608AC002C08F00029080A16F4
:101D24008A1525240A128A15710883120313BD002B
:101D34007008BC003C08AC003D08AD00AE01AF012A
:101D44002C08B8072D0803110318013E0319AB2E04
:101D5400B9072E0803110318013E0319B22EBA075E
:101D64002F0803110318013E0319B92EBB072608D7
:101D7400AC002C08F0002A080A168A1525240A1239
:101D84008A15710883120313BD007008BC003C0857
:101D9400AC003D08AD00AE01AF0108300310AC0D3E
:101DA400AD0DAE0DAF0DFF3E031DD02E2C08B807B0
:101DB4002D0803110318013E0319E12EB9072E085B
:101DC40003110318013E0319E82EBA072F08031163
:101DD4000318013E0319EF2EBB073208AC00330889
:101DE400AD003408AE003508AF0018300310AF0C56
:101DF400AE0CAD0CAC0CFF3E031DF82E2C08B8073E
:101E04002D0803110318013E0319092FB9072E08E1
:101E140003110318013E0319102FBA072F080311E9
:101E24000318013E0319172FBB070830AC00031039
:101E3400B20DB30DB40DB50DAC0B192F3708360721
:101E4400AC00AD01AD0D2C08823EBC002D0803187A
:101E5400013EFF3EBD004B2F0130AC000310B80D16
:101E6400B90DBA0DBB0DAC0B302FB51F3A2F3B2F5C
:101E74003C2F38140130AC000310B20DB30DB40D77
:101E8400B50DAC0B3E2FFF30BC070318BD0AFF3065
:101E9400BD07BA1F4E2F4F2F2E2FB601B51F532F3C
:101EA400542F702FFF303205AC00FF303305AD00E6
:101EB400FF303405AE007F303505AF002F082E0407
:101EC4002D042C040319672F682F6B2FB601B60A53
:101ED400702F381C6E2F6F2F702F682F3608031940
:101EE400742F752FA62F0130B80700300318013066
:101EF400B907003003180130BA0700300318013065
:101F0400BB073B1C862F872FA62F3808AC00390847
:101F1400AD003A08AE003B08AF000130B0002F0D11
:101F2400AF0CAE0CAD0CAC0CB00B912F2F08BB005A
:101F34002E08BA002D08B9002C08B8000130BC07DF
:101F44000318BD0A0030BD073D08803AFF00803009
:101F54007F02031DAF2FFF303C02031CB22FB32FAF
:101F6400BE2F7F3083120313BB008030BA000030D1
:101F7400B9000030B800F32F831203133D08803AF0
:101F8400FF0080307F02031DC92F01303C0203187B
:101F9400CC2FCD2FD92F003083120313BB00003078
:101FA400BA000030B9000030B800B101F32F831239
:101FB40003133C08AC002C08B700FF30B805FF3011
:101FC400B9057F30BA050030BB05371CEA2FEB2F6B
:101FD400EC2FBA173708AC0003102C0CAD002D08F9
:101FE400BB003108AC002C08BB043B08A7003A082E
:101FF400A6003908A5003808A40008000C30831690
:10200400031399000800F100F0013A30710203183B
:102014000C280D28152830307102031C12281328AF
:102024001528F001F00A700C0800F601F31F1B28B4
:102034001C282328F209F309F20A0319F30AF6010A
:10204400F60AF11F262827282C28F009F109F00A9E
:102054000319F10A70087104031931283228612820
:10206400F501F50A402801300310F00DF10DFF3E93
:10207400031D36280130F4007408F507F11F4328C6
:102084004428352871087302031D4A287008720217
:10209400031C4D284E2854287008F2027108031CB2
:1020A400F303F30201300310F10CF00CFF3E031DA7
:1020B40055280130F502031D60286128442876085C
:1020C4000319652866286B28F209F309F20A031933
:1020D400F30A7308F1007208F00008007008F800B1
:1020E4007108F9007208FA000310790D7A0DFB00EB
:1020F4007B0883120313A5002508031D8228832867
:102104008C280030F3000030F2000030F100003081
:10211400F0002C297408F8007508F9007608FA0014
:102124000310790D7A0DFB007B08A4002408031D1D
:102134009C289D289E288328F117FF30F005FF3046
:10214400F1050030F205F517FF30F405FF30F50511
:102154000030F6050030A3000030A2000030A100DA
:102164000030A0007F30A50298302407F8007808DA
:10217400A5021830F8007808A4000130F800031014
:10218400A00DA10DA20DA30DF80BC12876087202B3
:10219400031DD22875087102031DD2287408700229
:1021A400031CD528D628E1287408F0027508031CFE
:1021B400750FF1027608031C760AF202201401302E
:1021C4000310F00DF10DF20DFF3E031DE228013066
:1021D400A402031DEE28EF28BF28A51FF228F32828
:1021E4000D292508803A973E0318F928FA28FB2878
:1021F400832801300310A30CA20CA10CA00CFF3EF9
:10220400031DFC280130F8007808A507031D0B29DD
:102214000C29FB28242918302502031C1229132910
:102224001F2983280130F8000310A00DA10DA20D71
:10223400A30DF80B16290130A5022508031D232937
:10224400242914292308F3002208F2002108F100AC
:102254002008F00008000310720D730DF8007808D0
:1022640083120313A5002508031D39293A2943299C
:102274000030F3000030F2000030F1000030F000D4
:10228400EA290310760D770DF8007808A4002408D5
:10229400031D4D294E294F293A29F217FF30F00525
:1022A400FF30F105FF30F2050030F305F617FF307B
:1022B400F405FF30F505FF30F6050030F705003072
:1022C400A3000030A2000030A1000030A0007F3045
:1022D400A502A0302407F8007808A5022030F800F1
:1022E4007808A4000130F8000310A00DA10DA20D80
:1022F400A30DF80B762977087302031D8B29760842
:102304007202031D8B2975087102031D8B29740841
:102314007002031C8E298F299E297408F002750807
:10232400031C750FF1027608031C760FF20277087E
:10233400031C770FF30220140130F8000310F00D92
:10234400F10DF20DF30DF80BA0290130A402031DC9
:10235400AC29AD297429A51FB029B129CB29250899
:10236400803A9F3E0318B729B829B9293A29013080
:102374000310A30CA20CA10CA00CFF3E031DBA2950
:102384000130F8007808A507031DC929CA29B9290D
:10239400E22920302502031CD029D129DD293A293C
:1023A4000130F8000310A00DA10DA20DA30DF80B30
:1023B400D4290130A5022508031DE129E229D229E7
:1023C4002308F3002208F2002108F1002008F0009D
:1023D40008000A168A15B8230A168A110A168A15DD
:1023E40085250A168A110A168A1521230A168A11C6
:1023F4000A168A1100200A168A110A168A152E2333
:102404000A168A110A168A15FA220A168A118312E2
:10241400031307109301831603131418122A132AA3
:102424001B2A83120313130883160313CD004D08CC
:10243400DF00033083160313CE009730CD00CD0B9D
:10244400212ACE0B212A8312031307148710930128
:102454008316031314182F2A302A382A83120313DD
:10246400130883160313CD004D08DE0003308316D2
:102474000313CE009730CD00CD0B3E2ACE0B3E2A5F
:10248400831203138714071193018316031314187B
:102494004C2A4D2A552A8312031313088316031357
:1024A400CD004D08DD00033083160313CE009730B2
:1024B400CD00CD0B5B2ACE0B5B2A831203130715C9
:1024C400831603135D088312031386003C30A700B0
:1024D400A030A6009030A5002E30A400831603136C
:1024E4005F08CD00CE01CF01D0015008F3004F08A2
:1024F400F2004E08F1004D08F00001300A168A156A
:1025040046270A168A11730883120313AB00720854
:10251400AA007108A9007008A8000A128A159F244D
:102524000A168A1183120313270883160313DC0087
:1025340083120313260883160313DB008312031389
:10254400250883160313DA00831203132408831661
:102554000313D9005E08CD00CE01CF01D00150088D
:10256400F3004F08F2004E08F1004D08F00000306F
:102574000A168A1546270A168A1173088316031346
:10258400D8007208D7007108D6007008D5005D081D
:10259400CD00CE0103104D0DF0004E0DF100F201FF
:1025A400F11BF2037208F30001300A168A1546275C
:1025B4000A168A11730883160313D4007208D30011
:1025C4007108D2007008D100A530F1008030F2000B
:1025D4000A168A154C240A168A110D300A168A1511
:1025E40015230A168A110A300A168A1515230A16A3
:1025F4008A11913083160313CD004D08A0005C08A6
:10260400A4005B08A3005A08A2005908A1005808B6
:10261400A8005708A7005608A6005508A5005408A6
:10262400AC005308AB005208AA005108A90090302E
:102634000A128A116C200A168A119030F1000130B6
:10264400F2000A168A154C240A168A110D300A164D
:102654008A1515230A168A110A300A168A151523B3
:102664000A168A110A168A1521230A168A11F401F8
:10267400F40A01300A168A1594230A168A11B8300E
:10268400F3008030F4000A168A15B1240A168A1160
:10269400F401F40A02300A168A1594230A168A11E0
:1026A4009030F3000130F4000A168A15B1240A169A
:1026B4008A11063083160313CF001330CE00AD30D9
:1026C400CD00CD0B632BCE0B632BCF0B632B092AD1
:1026D4000A128A11002883120313D1006E305102AA
:1026E400031C752B762B832C3F30A7000030A600EB
:1026F4000030A5000030A4006430F6000030F7007C
:102704005108C200C3014208F8004308F9000A1640
:102714008A15F3240A168A11760883120313C40057
:1027240001300310C40DFF3E031D932B0310440D11
:102734007D3E84000A128A150A200A168A11C500F1
:102744000A128A150A200A168A11C6000A128A1564
:102754000A200A168A11C7000A128A150A200A16C4
:102764008A11C8004808AB004708AA004608A90017
:102774004508A8000A128A159F240A168A11831292
:1027840003132708D0002608CF002508CE0024080C
:10279400CD000A30F6000030F7005108C200C30132
:1027A4004208F2004308F3006430F0000030F10006
:1027B4000A168A1577240A168A117108F900700816
:1027C400F8000A168A15F3240A168A117608831269
:1027D4000313C40001300310C40DFF3E031DED2B91
:1027E4000310440D593E84000A128A150A200A1661
:1027F4008A11C5000A128A150A200A168A11C6000F
:102804000A128A150A200A168A11C7000A128A15A2
:102814000A200A168A11C8004808A7004708A6001B
:102824004608A5004508A4005008AB004F08AA00BC
:102834004E08A9004D08A8000A128A159F240A16FA
:102844008A11831203132708CC002608CB0025081D
:10285400CA002408C9000A30F0000030F100510811
:10286400C200C3014208F2004308F3000A168A15A5
:1028740077240A168A11700883120313C4000130E6
:102884000310C40DFF3E031D422C0310440D353EBE
:1028940084000A128A150A200A168A11C5000A122F
:1028A4008A150A200A168A11C6000A128A150A20F5
:1028B4000A168A11C7000A128A150A200A168A11F2
:1028C400C8004808A7004708A6004608A500450810
:1028D400A4004C08AB004B08AA004A08A900490808
:1028E400A8000A128A159F240A168A118312031358
:1028F4002708C1002608C0002508BF002408BE0020
:10290400772D0B305102031C882C892C342D3F3039
:10291400A7000030A6000030A5000030A4000A3053
:10292400F6000030F7005108C200C3014208F80065
:102934004308F9000A168A15F3240A168A11760840
:1029440083120313C40001300310C40DFF3E031DA2
:10295400A62C0310440D593E84000A128A150A203D
:102964000A168A11C5000A128A150A200A168A1143
:10297400C6000A128A150A200A168A11C7000A120A
:102984008A150A200A168A11C8004808AB004708AD
:10299400AA004608A9004508A8000A128A159F241F
:1029A4000A168A11831203132708D0002608CF00C1
:1029B4002508CE002408CD000A30F0000030F100D4
:1029C4005108C200C3014208F2004308F3000A168A
:1029D4008A1577240A168A11700883120313C40017
:1029E40001300310C40DFF3E031DF32C0310440DEE
:1029F400353E84000A128A150A200A168A11C50077
:102A04000A128A150A200A168A11C6000A128A15A1
:102A14000A200A168A11C7000A128A150A200A1601
:102A24008A11C8004808A7004708A6004608A50060
:102A34004508A4005008AB004F08AA004E08A9009E
:102A44004D08A8000A128A159F240A168A118312B7
:102A540003132708C1002608C0002508BF00240866
:102A6400BE00772D3F30A7000030A6000030A5003F
:102A74000030A4005108C20001300310C20DFF3E13
:102A8400031D3F2D0310420D353E84000A128A15A2
:102A94000A200A168A11C3000A128A150A200A1685
:102AA4008A11C4000A128A150A200A168A11C5005E
:102AB4000A128A150A200A168A11C6004608AB00B3
:102AC4004508AA004408A9004308A8000A128A1568
:102AD4009F240A168A11831203132708C1002608AB
:102AE400C0002508BF002408BE0008008312031399
:102AF40055088039DA005A08E2005508DA005A0706
:102B0400DB005B08E400D41F882D892D8A2D641412
:102B1400640803198E2D8F2D9F2D640A031D932D98
:102B2400942D9C2D0030D5000030D4000030D3000B
:102B34000030D200D417D501A72D0030D5000030C5
:102B4400D4000030D3000030D20059088039DA00B4
:102B54005A08E300630862060319B12DB22DB32DA0
:102B640062175908DA005A07DB005B08E300D81F34
:102B7400BC2DBD2DBE2D631463080319C22DC32DB6
:102B8400D32D630A031DC72DC82DD02D0030D900C5
:102B94000030D8000030D7000030D600D817D90153
:102BA400DB2D0030D9000030D8000030D7000030D1
:102BB400D600640863020318E02DE12D252E621F60
:102BC400E42DE52DE92D8030DA005A08E206640888
:102BD400DA005A08E5006308DA005A08E4006508D8
:102BE400DA005A08E3005208DA005A08E5005608E9
:102BF400DA005A08D2006508DA005A08D6005308E9
:102C0400DA005A08E5005708DA005A08D3006508C4
:102C1400DA005A08D7005408DA005A08E5005808C0
:102C2400DA005A08D4006508DA005A08D8005508B2
:102C3400DA005A08E5005908DA005A08D500650890
:102C4400DA005A08D900E5016308DA00DB015B0801
:102C5400DD0064085A02DC00031CDD035D08803AD1
:102C6400FF0080307F02031D392E1A305C02031CE2
:102C74003C2E3D2E7A2E831203135508540453041C
:102C84005204031D462E482E0130492E0030DA002E
:102C94005A08E5000030D5000030D4000030D300DD
:102CA4000030D2006308DA005A08E400822E651C62
:102CB4005C2E5D2E662E6508DA0003105A0C01386E
:102CC400DB005B08E500682E0310E50C521C6B2E3C
:102CD4006C2E6D2EE5170130DA00550DD50CD40C91
:102CE400D30CD20CDA0B6F2E0130DA005A08E40749
:102CF4008312031363086402031C812E822E592E4F
:102D0400621B852E862ED12E6408031D8A2E8B2EDF
:102D1400942E0030D5000030D4000030D3000030B1
:102D2400D200FF2F5608D207570803110318013E9B
:102D340003199D2ED307580803110318013E0319E4
:102D4400A42ED407590803110318013E0319AB2E0E
:102D5400D507551CAE2EAF2E852F651CB22EB32E73
:102D6400BC2E6508DA0003105A0C0138DB005B083E
:102D7400E500BE2E0310E50C521CC12EC22EC32E3C
:102D8400E5170130DA00550DD50CD40CD30CD20C58
:102D9400DA0BC52E0130DA005A08E407852F5508EE
:102DA400803AFF005908803A7F02031DE32E580839
:102DB4005402031DE32E57085302031DE32E560845
:102DC40052020318E62EE72E3F2FFF30DA00FF30C1
:102DD400DB00FF30DC00FF30DD005608DE00570862
:102DE400DF005808E0005908E1005208DE025308E9
:102DF400031C530FFE2EFF2EDF025408031C540F36
:102E0400042F052FE0025508031C550F0A2F0B2F22
:102E1400E1025E08DA075F0803185F0F122F132F11
:102E2400DB0760080318600F182F192FDC076108EF
:102E34000318610ADD075D08D5005C08D4005B084F
:102E4400D3005A08D2008030DA005A08E206E509B5
:102E5400E50A6508031D2F2F302F4D2F0130D207AF
:102E6400003003180130D307003003180130D407B1
:102E7400003003180130D5074D2F5608D2025708E9
:102E8400031C570FD3025808031C580FD4025908C7
:102E9400031C590FD5025508540453045204031D4E
:102EA400542F552F812F6508031D592F5A2F812F19
:102EB4000030D5000030D4000030D3000030D20000
:102EC400FF2F0130DA000310D20DD30DD40DD50D30
:102ED400DA0B652FE51F6F2F702F712F5214651CAD
:102EE400742F752F782F0314E50D7A2F0310E50D39
:102EF400640803197E2F7F2F812F0130E402D41F31
:102F0400842F852F632FE301E51F892F8A2F982FA4
:102F140065087F3903198F2F902F932FE301E30A5C
:102F2400982F521C962F972F982F902F63080319D0
:102F34009C2F9D2FD12F0130D20700300318013070
:102F4400D307003003180130D407003003180130D0
:102F5400D507551CAE2FAF2FD12F5208DA005308D6
:102F6400DB005408DC005508DD000130DE005D0D97
:102F7400DD0CDC0CDB0CDA0CDE0BB92F5D08D500A4
:102F84005C08D4005B08D3005A08D200640A031911
:102F9400CC2FCD2FD12F0130DA005A08E407640A70
:102FA4000319D52FD62FDB2F6408031DDA2FDB2F4F
:102FB400E92F0030D5000030D4000030D3000030B9
:102FC400D2006408031DE72FE82FE92FE201641CF7
:102FD400EC2FED2FEF2FD417F32F7F30DA005A08A0
:102FE400D4056408DA0003105A0CDB005B08D50032
:0C2FF400E21FFD2FFE2FFF2FD517080055
:1035E800F000700883120313880008008316031381
:1035F8001812831203139817181608006400800124
:10360800840A0406031900340406032B73087204A1
:10361800710470040319112B122B142B8030F3063C
:103628000800F00083160313981C1B2B1C2B162B69
:103638007008831203139900080000300A168A15CF
:1036480071230A168A1501300A168A1571230A167B
:103658008A150800831603139816831203130C1295
:10366800831603130C128B170B1707138717080001
:103678008316031387118712071083120313071089
:1036880083160313871083120313871483160313F7
:1036980007118312031307152030940083160313B0
:1036A80094010800F20083120313091472080A1621
:1036B8008A15F4220A168A158312031389141A30FC
:1036C800F100F10B652B00008312031389100630FB
:1036D800F100F10B6D2B00000800F30083120313B7
:1036E800091073080A168A15F4220A168A15831215
:1036F800031389140B30F2006230F100F10B822BB6
:10370800F20B822B00008312031389100630F2009B
:103718003030F100F10B8E2BF20B8E2B00000800DD
:10372800F6007603031D992B9A2BA62B7408803E6E
:10373800F5007508F70077080A168A1571230A1626
:103748008A15B72B02307606031DAB2BAC2BB72B93
:103758007408C03EF5007508F70077080A168A1540
:1037680071230A168A150800033083160317880088
:10377800890103308316031385008312031385011F
:103788008316031388018312031388018316031316
:103798008901831203138901831603138601831297
:1037A800031386010A168A153C230A168A1508008F
:1037B800803083120313E9066D08D5006C08D40025
:1037C8006B08D3006A08D2006908D9006808D800D5
:1037D8006708D7006608D6000A168A1178250A16DF
:1037E8008A15831203135508E9005408E8005308A2
:1037F800E7005208E6000800F401F501701C052CEA
:10380800062C0C2C7208F4070318F50A7308F50740
:1038180001300310F20DF30DFF3E031D0D2C013096
:103828000310F10CF00CFF3E031D142C70087104FA
:10383800031D1F2C202C022C7508F1007408F000C1
:103848000800F800F401F5017008F200F3017208AD
:10385800F6007308F700781C322C332C392C7608C4
:10386800F4070318F50A7708F50701300310F60D79
:10387800F70DFF3E031D3A2C0310F80C7808031DC2
:10388800462C472C2F2C7508F1007408F00008000E
:10389800F401632C74087107840072080318720A13
:1038A800FF000A128A1500200A168A150A168A15B8
:1038B80015230A168A150130F3007308F4077408F3
:1038C8007107840072080318720A83120313FF0039
:1038D8000A128A1500200A168A15003A031D752C4B
:1038E800762C4E2C08007008710403197C2C7D2C52
:1038F800AC2CF501F50A8B2C01300310F00DF10DFD
:10390800FF3E031D812C0130F4007408F507F11FF8
:103918008E2C8F2C802C71087302031D952C700837
:103928007202031C982C992C9F2C7008F2027108C3
:10393800031CF303F30201300310F10CF00CFF3EFB
:10394800031DA02C0130F502031DAB2CAC2C8F2CD1
:103958007308F1007208F0000800F801F901D62C8C
:1039680078087307F6007408F5000318F50AF81FBD
:10397800BE2CF5037508F700770883120313FF00C0
:10398800760884000A128A1500200A168A150A1673
:103998008A1556230A168A150130F8070318F90AFA
:1039A8000030F90778087307F6007408F500031863
:1039B800F50AF81FE02CF5037508F700770883125D
:1039C8000313FF00760884000A128A1500200A16DD
:1039D8008A15003A031DF12CF22CB42C0800FB01C7
:1039E800FC01760877040319FA2CFB2C322DFD0113
:1039F800FD0A092D01300310F60DF70DFF3E031DDA
:103A0800FF2C0130FA007A08FD07F71F0C2D0D2D49
:103A1800FE2C01300310FB0DFC0DFF3E031D0E2D87
:103A280077087902031D1A2D76087802031C1D2DCC
:103A38001E2D252D7608F8027708031CF903F902D4
:103A48007B1401300310F70CF60CFF3E031D262DE6
:103A58000130FD02031D312D322D0D2D7C08F7009C
:103A68007B08F600080000307005F800003071058A
:103A7800F90080307205FA007F307305FB007B087F
:103A88007A0479047804031D4A2D4B2D532D0030F8
:103A9800F3000030F2000030F1000030F000003098
:103AA8007405F80000307505F90080307605FA00D5
:103AB8007F307705FB007B087A0479047804031DBE
:103AC800662D672D6F2D0030F7000030F6000030AE
:103AD800F5000030F40077087306031D7D2D760885
:103AE8007206031D7D2D75087106031D7D2D740852
:103AF80070060319802D812D832D0310842D031446
:103B08000800831203130910891000300A168A1559
:103B1800F4220A168A153430F500F130F400F40B5B
:103B2800932DF50B932D982D30300A168A15712395
:103B38000A168A150D30F500FB30F400F40BA22D9F
:103B4800F50BA22DA72D30300A168A1571230A16F7
:103B58008A151D30F5009130F400F40BB12DF50BEA
:103B6800B12D30300A168A1571230A168A15383095
:103B78000A168A1571230A168A150C300A168A1530
:103B880071230A168A1501300A168A1571230A1636
:103B98008A1506300A168A1571230A168A1508002E
:103BA80073087204710470040319DB2DDC2D1F2EB9
:103BB800F901F90AEC2D0130F8000310F00DF10DB0
:103BC800F20DF30DF80BE12D0130F8007808F90734
:103BD800F31FEF2DF02DDF2D73087702031DFE2D47
:103BE80072087602031DFE2D71087502031DFE2D55
:103BF80070087402031C012E022E102E7008F402A5
:103C08007108031C710FF5027208031C720FF6028B
:103C18007308031C730FF70201300310F30CF20C46
:103C2800F10CF00CFF3E031D112E0130F902031DAB
:103C38001E2E1F2EF02D7708F3007608F200750867
:103C4800F1007408F0000800031083120313530DE9
:103C5800540DD5005508DB005B08031D342E352EA6
:103C68003E2E0030D4000030D3000030D2000030A7
:103C7800D100A32E5108D5005208D6005308D7000A
:103C88005408D8001F300310D80CD70CD60CD50C0C
:103C9800FF3E031D472E5508D9005908DA00D317EF
:103CA800FF30D105FF30D205FF30D3050030D405F1
:103CB8009630DB02DB1F612E622E7C2E5B08803A79
:103CC800973E0318682E692E6A2E352E0130031090
:103CD800D40CD30CD20CD10CFF3E031D6B2E01303B
:103CE800D5005508DB07031D7A2E7B2E6A2E932EEE
:103CF80020305B02031C812E822E8E2E352E013041
:103D0800D5000310D10DD20DD30DD40DD50B852EB2
:103D18000130DB025B08031D922E932E832E5A0876
:103D28000319972E982EA32ED109D209D309D409A5
:103D3800D10A0319D20A0319D30A0319D40A0800AD
:103D480000307005F80000307105F9008030720508
:103D5800FA007F307305FB007B087A047904780445
:103D6800031DB72EB82EC02E0030F3000030F2002D
:103D78000030F1000030F00000307405F800003029
:103D88007505F90080307605FA007F307705FB006D
:103D98007B087A0479047804031DD32ED42EDC2EF4
:103DA8000030F7000030F6000030F5000030F40075
:103DB800F31FDF2EE02E042F0030F8000030F9004A
:103DC8000030FA008030FB007008F8027108031C0C
:103DD800710FEF2EF02EF9027208031C720FF52EE8
:103DE800F62EFA027308031C730FFB2EFC2EFB023F
:103DF8007B08F3007A08F2007908F1007808F000EF
:103E0800F71F072F082F2C2F0030F8000030F9007B
:103E18000030FA008030FB007408F8027508031CB3
:103E2800750F172F182FF9027608031C760F1D2F10
:103E38001E2FFA027708031C770F232F242FFB026B
:103E48007B08F7007A08F6007908F5007808F4008E
:103E58008030F3068030F70677087302031D3E2F83
:103E680076087202031D3E2F75087102031D3E2F4E
:103E7800740870020318412F422F442F0310452F56
:103E880003140800F800780803194B2F4C2F602FF3
:103E9800F31F4F2F502F602F7009FA007109FB0094
:103EA8007209FC007309FD00FA0A0319FB0A0319D9
:103EB800FC0A0319FD0A682F7308FD007208FC004C
:103EC8007108FB007008FA0073087204710470042A
:103ED800031D6F2F702F792F0030F3000030F20090
:103EE8000030F1000030F000FF2F9630F400740825
:103EF800F9008B2F0130F4007408F9070130031022
:103F0800FD0CFC0CFB0CFA0CFF3E031D832FFE304E
:103F18007D05031D902F912F7E2FAD2F0130F400CA
:103F28007408F9070130FA07003003180130FB075D
:103F3800003003180130FC07003003180130FD077A
:103F480001300310FD0CFC0CFB0CFA0CFF3E031DAA
:103F5800A52FFF307D05031DB22FB32F922FBF2F42
:103F68000130F9020130F4000310FA0DFB0DFC0DCD
:103F7800FD0DF40BB82FFC1BC22FC32FC92F023025
:103F880079020318C82FC92FB42F7918CC2FCD2F39
:103F9800D52FFF30FA05FF30FB057F30FC05FF30D9
:103FA800FD050310F90C7908F400F501F601F70195
:103FB80018300310F40DF50DF60DF70DFF3E031D37
:103FC800DD2F7408FA047508FB047608FC047708EA
:103FD800FD0478080319F12FF22FF72FF31FF52F9F
:103FE800F62FF72FFD177D08F3007C08F2007B08F9
:083FF800F1007A08F000080056
:04400E00D120FF3F7F
:00000001FF
