:020000040000FA
:060000000A128A110C280F
:10000800FE00030EF2000A08F3000A168A152D2CCA
:100018000A128A110F28F801F9018313D7308400D6
:10002800E1300A168A154C210A128A11831790307A
:100038008400A4300A168A154C210A128A118301F9
:100048000A128A157B28831603134E08831203139A
:10005800A300831603134D0883120313A20083160B
:1000680003134C0883120313A100831603134B08D0
:1000780083120313A0000030A7000030A600003050
:10008800A5000030A4000A168A15D1220A128A1186
:1000980003184F2850283229831603134E08831259
:1000A8000313DC00831603134D0883120313DB00CC
:1000B800831603134C0883120313DA008316031301
:1000C8004B0883120313D9000A168A15A9240A12A9
:1000D8008A11831203135C085B045A045904031D34
:1000E800762877283229831603134A08803AFF00B6
:1000F80080307F02031D822802304902031C8528B4
:100108008628322983160313440883120313A30095
:1001180083160313430883120313A20083160313E1
:10012800420883120313A1008316031341088312A4
:100138000313A0004030A7008930A6007030A50046
:100148005F30A4000A168A1525250A128A11031899
:10015800AE28AF28B828F73083160313C907031849
:10016800CA0AFF30CA07C028F83083160313C90724
:100178000318CA0AFF30CA0749080A128A159D24BB
:100188000A128A1183120313490883160313C40041
:1001980083120313480883160313C300831203133F
:1001A800470883160313C2008312031346088316F5
:1001B8000313C1004E0883120313A300831603130D
:1001C8004D0883120313A200831603134C088312ED
:1001D8000313A100831603134B0883120313A00013
:1001E80083160313440883120313A700831603130B
:1001F800430883120313A6008316031342088312CD
:100208000313A50083160313410883120313A400E4
:100218000A168A1542270A128A1183120313230821
:1002280083160313C80083120313220883160313CB
:10023800C70083120313210883160313C600831211
:100248000313200883160313C5000030CE000030C6
:10025800CD000030CC000030CB0098298316031362
:100268004E0883120313DC00831603134D08831210
:100278000313DB00831603134C0883120313DA00FD
:10028800831603134B0883120313D9000A168A1521
:10029800A9240A128A11831203135C088316031314
:1002A800C800831203135B0883160313C700831265
:1002B80003135A0883160313C6008312031359083D
:1002C80083160313C5004808F7004708F6004608D8
:1002D800F5004508F40000300A168A15C9250A12E7
:1002E8008A11770883160313A3007608A2007508FD
:1002F800A1007408A0004E08A7004D08A6004C08ED
:10030800A5004B08A4000A168A1521230A128A118F
:10031800831603132308CE002208CD002108CC0041
:100328002008CB00C901CA01D201D20A5208B30081
:1003380001300310B30DFF3E031D9D290310330D3B
:10034800693E84000A128A110A270A128A11B40027
:100358000A128A110A270A128A11B5000A128A118A
:100368000A270A128A11B6000A128A110A270A12E3
:100378008A11B70037084802031DCC2936084702FE
:10038800031DCC2935084602031DCC293408450233
:100398000318CF29D029D129DB290130B30033082C
:1003A800D2070A305206031DDA29DB299A29520896
:1003B8005007B30051080318510AB400490833071D
:1003C800B5004A0803184A0A3407B6003508BF02C0
:1003D8003608031CC003C002500851040319F5294C
:1003E800F629FC29FF30BF070318C00AFF30C007F1
:1003F80003303D05B30000303E05B4003308340433
:100408000319072A082A1D2AFF30BF070318C00A44
:10041800FF30C0071D2A203083160313B3004F088E
:1004280084003308831780000130B3003308CF07F6
:10043800082A4008803AFF0080307F02031D262AE0
:1004480001303F020318292A2A2A0F2A033083166B
:1004580003133D05B30000303E05B40033083404EF
:100468000319372A382AEA2A2D30B3004F088400A6
:100478003308831780000130B3003308CF07EA2A16
:100488005208B30001300310B30DFF3E031D472A85
:100498000310330D693E84000A128A110A270A12D2
:1004A8008A1183120313A0000A128A110A270A125A
:1004B8008A11A1000A128A110A270A128A11A200B7
:1004C8000A128A110A270A128A11A3008316031333
:1004D800480883120313A7008316031347088312DF
:1004E8000313A60083160313460883120313A500FB
:1004F80083160313450883120313A4000A168A15EA
:10050800C5230A128A1183120313230883160313BF
:10051800C40083120313220883160313C300831233
:100528000313210883160313C20083120313200840
:1005380083160313C100003083120313B000003088
:10054800AF000030AE000A30AD0083160313440834
:1005580083120313B400831603134308831203138F
:10056800B30083160313420883120313B2008316E1
:100578000313410883120313B1000A128A11A92632
:100588000A128A1183120313300883160313C40056
:10059800831203132F0883160313C3008312031354
:1005A8002E0883160313C200831203132D08831623
:1005B8000313C1004108303EB3004F0884003308DC
:1005C800831780000130B3003308CF070130D2020F
:1005D800520A031DF02AF12A442A052B30308316CB
:1005E8000313B3004F0884003308831780000130D9
:1005F800B3003308CF07FF30C9070318CA0AFF3012
:10060800CA074A08803AFF0080307F02031D0E2B7C
:10061800013049020318112B122BF22A83160313F7
:100628005108803AFF0080307F02031D1D2B0930DE
:100638005002031C202B212B282B08308316031370
:10064800B3003308D2002E2B831603135008B300CF
:100658003308D2005208B300B4013308D00234087A
:10066800031CD103D102520803193B2B3C2B472B07
:100678002E30B3004F088400330883178000013000
:10068800B3003308CF0752080A128A159D240A12AC
:100698008A1183120313490883160313BB008312BC
:1006A8000313480883160313BA0083120313470879
:1006B80083160313B9008312031346088316031322
:1006C800B8003B0883120313B300831603133A08D8
:1006D80083120313B200831603133908831203131A
:1006E800B10083160313380883120313B00083166E
:1006F80003134E0883120313AF00831603134D0828
:1007080083120313AE00831603134C0883120313DA
:10071800AD00831603134B0883120313AC000A12AF
:100728008A153C210A128A11831203132F08DC0050
:100738002E08DB002D08DA002C08D9000A168A15C5
:10074800A9240A128A11831203135C08831603135F
:10075800C800831203135B0883160313C7008312B0
:1007680003135A0883160313C60083120313590888
:1007780083160313C500C12C5208B30001300310BF
:10078800B30DFF3E031DC32B0310330D693E8400D8
:100798000A128A110A270A128A1183120313A00067
:1007A8000A128A110A270A128A11A1000A128A114A
:1007B8000A270A128A11A2000A128A110A270A12A3
:1007C8008A11A30083160313480883120313A70092
:1007D80083160313470883120313A6008316031313
:1007E800460883120313A5008316031345088312D2
:1007F8000313A4000A168A15C5230A128A11831244
:100808000313230883160313C40083120313220857
:1008180083160313C30083120313210883160313DB
:10082800C20083120313200883160313C10000308B
:1008380083120313B0000030AF000030AE000A305E
:10084800AD0083160313440883120313B400831600
:100858000313430883120313B300831603134208D8
:1008680083120313B2008316031341088312031380
:10087800B1000A128A11A9260A128A1183120313D7
:10088800300883160313C400831203132F0883163A
:100898000313C300831203132E0883160313C20025
:1008A800831203132D0883160313C1004108303E39
:1008B800B3004F0884003308831780000130B30069
:1008C8003308CF075208B30001300310B30DFF3EC1
:1008D800031D692C0310330D693E84000A128A1126
:1008E8000A270A128A1183120313AD000A128A1109
:1008F8000A270A128A11AE000A128A110A270A1256
:100908008A11AF000A128A110A270A128A11B00046
:1009180083160313480883120313B40083160313C2
:10092800470883120313B300831603134608831280
:100938000313B20083160313450883120313B1008F
:100948000A128A11A9260A128A118312031330087F
:1009580083160313C800831203132F088316031387
:10096800C700831203132E0883160313C6008312CD
:1009780003132D0883160313C5000130D202520A4F
:10098800031DC72CC82CC02BDA2C3030B3004F08FD
:1009980084003308831780000130B3003308CF0781
:1009A800FF30D0070318D10AFF30D107500851048F
:1009B800031DDF2CE02CC92C902E3C0884008313E7
:1009C8000008B300840A0008B4003308C5003408DE
:1009D800C6000030C61BFF30C700C8000230B30095
:1009E8003308BC07C81FF92CFA2C092D0330BD04A5
:1009F8000030BE04C509C609C709C809C50A0319D4
:100A0800C60A0319C70A0319C80A50085104031D66
:100A18000E2D0F2D1D2D4808470446044504031DBF
:100A2800162D172D1D2D0130D0070318D10A0030BF
:100A3800D107D201D20A5208B30001300310B30D16
:100A4800FF3E031D222D0310330D693E84000A1258
:100A58008A110A270A128A11B4000A128A110A276F
:100A68000A128A11B5000A128A110A270A128A1173
:100A7800B6000A128A110A270A128A11B700370823
:100A88004802031D512D36084702031D512D350814
:100A98004602031D512D340845020318542D552DC7
:100AA800562D602D0130B3003308D2070A305206A4
:100AB800031D5F2D602D1F2D5108803A803C031DBA
:100AC800672D5008520203186A2D6B2D722D83165C
:100AD80003135008B3003308D2008A2D831603137A
:100AE8005108803AB30080303302031D7D2D52082F
:100AF80050020318802D812D8A2D83160313520866
:100B0800B300B4013308D0003408D10083160313AE
:100B18003F0840040319912D922DA42D03303D0563
:100B2800B30000303E05B4003308340403199D2D8A
:100B38009E2DA42DFF30BF070318C00AFF30C00741
:100B48003E1FA72DA82DC32D5108803AB300400899
:100B5800803A3302031DB22D3F0850020318B52D09
:100B6800B62DBF2D831603135008BF025108031C6E
:100B7800C003C002C32D83160313BF01C001400880
:100B8800803A803C031DCA2D3F0852020318CD2D20
:100B9800CE2DDA2D831603135208B300B40133089F
:100BA800BF023408031CC003C002DE2D83160313E2
:100BB800BF01C0013F0840040319E32DE42DFB2DBC
:100BC8002030B3004F0884003308831780000130B9
:100BD800B3003308CF07FF30BF070318C00AFF3040
:100BE800C0073F084004031DFA2DFB2DE42D0330F8
:100BF8003D05B30000303E05B40033083404031942
:100C0800062E072E822E2D30B3004F08840033089D
:100C1800831780000130B3003308CF07822E0030DD
:100C280083120313B0000030AF000030AE000A306A
:100C3800AD00831603135008B30001300310B30D41
:100C4800FF3E031D222E0310330D693E84000A1255
:100C58008A110A270A128A1183120313A0000A12A2
:100C68008A110A270A128A11A1000A128A110A2770
:100C78000A128A11A2000A128A110A270A128A1174
:100C8800A30083160313480883120313A7008316CF
:100C98000313470883120313A60083160313460899
:100CA80083120313A5008316031345088312031345
:100CB800A4000A168A15C5230A128A11831203137F
:100CC8002308B4002208B3002108B2002008B100AC
:100CD8000A128A11A9260A128A11831203132D08EF
:100CE800303E83160313B4003408D2005208B30010
:100CF8004F0884003308831780000E2EFF30D0077A
:100D08000318D10AFF30D107500A031D8F2E510A4C
:100D1800031D8F2E902E132E0130A807FF302807B1
:100D280084000A128A110A270A128A11B3003308AA
:100D3800D2005208031DA12EA42E0A168A11002DD6
:100D48004F088400831780010800831203133008BA
:100D58002F042E042D040319B22EB32EF62EF601FD
:100D6800F60AC32E0130F5000310AD0DAE0DAF0D20
:100D7800B00DF50BB82E0130F5007508F607B01F59
:100D8800C62EC72EB62E30083402031DD52E2F08C6
:100D98003302031DD52E2E083202031DD52E2D0831
:100DA8003102031CD82ED92EE72E2D08B1022E08A9
:100DB800031C2E0FB2022F08031C2F0FB30230089A
:100DC800031C300FB40201300310B00CAF0CAE0C92
:100DD800AD0CFF3E031DE82E0130F602031DF52E73
:100DE800F62EC72E3408B0003308AF003208AE0024
:060DF8003108AD00080007
:100E0000FF1B0A2F83137F1883170008840A031916
:100E1000FF0A080007308A000408840A82070034A9
:100E20000034003480343F34003400342034413402
:100E300000340034C8344234003400347A3444344A
:100E4000003440341C34463400345034C334473406
:100E500000342434743449348034963418344B3498
:100E60002034BC34BE344C3428346B346E344E34AD
:100E7000F934023415345034EC347834AD34603401
:100E8000CA34F234493471340034003480343F348D
:100E9000CD34CC34CC343D340A34D73423343C34D0
:100EA0006F34123483343A341734B734D13438348D
:100EB000AC34C53427343734BD3437348634353414
:100EC0009534BF34D63433347734CC342B34323485
:100ED0005F34703489343034FF34E634DB342E34FC
:100EE0000834E5343C341E3460344234A2340D34CA
:100EF00001340034003400340A3400340034003447
:100F00006434003400340034E834033400340034F2
:100F10001034273400340034A034863401340034D3
:100F2000403442340F3400348034963498340034E2
:100F30000034E134F53405340034CA349A343B3497
:100F40005634313420342034203456343234203472
:100F500020342034203420342034203443344F349F
:100F60004E3454340034253431342E343234663423
:100F700020342034253431342E3432346634203455
:100F80002534333464340034740875040319C92FCC
:100F9000CA2FFB2F83120313A101A10ADA2F0130FC
:100FA0000310F40DF50DFF3E031DD02F0130A000FE
:100FB0002008A107F51FDD2FDE2FCF2F7508770240
:100FC000031DE42F74087602031CE72FE82FEE2F91
:100FD0007408F6027508031CF703F70201300310CA
:100FE000F50CF40CFF3E031DEF2F0130A102031D91
:100FF000FA2FFB2FDE2F7708F5007608F4000800A3
:10100000F500F4013A307502031807280828102863
:1010100030307502031C0D280E281028F401F40A44
:10102000740C080083120313A901A41F182819289F
:101030002028A309A409A30A0319A40AA901A90A3B
:10104000A61F232824282D28A509A609A50A0319C7
:10105000A60A0130A7002708A906AA01AB012308A8
:1010600024040319342835286C28A801A80A432829
:1010700001300310A30DA40DFF3E031D39280130DC
:10108000A7002708A807A41F4628472838280130AA
:101090000310AA0DAB0DFF3E031D482824082602AD
:1010A000031D542823082502031C572858285F28AD
:1010B0002308A5022408031CA603A6022A14013053
:1010C0000310A40CA30CFF3E031D60280130A802EE
:1010D000031D6B286C2847282908031970287128DC
:1010E0007628AA09AB09AA0A0319AB0A2B08A4009F
:1010F0002A08A30008000A168A1587210A128A15F1
:101100000A168A1571230A128A150A168A155F2192
:101110000A128A150F3083160313D300D30B8E28BF
:101120009128831203139F143C3083120313AF00E2
:10113000A030AE009030AD002E30AC00831603130B
:101140006008D300D401D501D6015608F700550830
:10115000F6005408F5005308F40001300A168A1509
:10116000C9250A128A15770883120313B30076087B
:10117000B2007508B1007408B0000A128A153C214B
:101180000A128A15831203132F0883160313DE0035
:10119000831203132E0883160313DD008312031337
:1011A0002D0883160313DC00831203132C08831607
:1011B0000313DB00A430D3005308A8005E08AC0082
:1011C0005D08AB005C08AA005B08A9000030B00015
:1011D0000030AF000030AE000030AD005F08D4003A
:1011E000D5015408B1005508B20090300A168A1192
:1011F000F6240A128A150A168A155F210A128A1520
:1012000083120313A001A00A01300A168A15CB210C
:101210000A128A15913083120313A0008030A100B6
:101220000A168A1545220A128A1583120313A00191
:10123000A00A02300A168A15CB210A128A159030AC
:1012400083120313A0000130A1000A168A1545225B
:101250000A128A15063083160313D5001330D40002
:10126000AD30D300D30B3229D40B3229D50B322920
:1012700094280A128A110C28831203132F0880392C
:10128000B4003408B9002F08B4003407B50035089D
:10129000BF00AE1F4C294D294E293F143F080319AA
:1012A0005229532962293F0A031D572958296029C9
:1012B0000030AF000030AE000030AD000030AC00B8
:1012C000AE176A290030AF000030AE000030AD002C
:1012D0000030AC0033088039B4003408B906330854
:1012E000B4003407B5003508BE00B21F782979294B
:1012F0007A293E143E0803197E297F298E293E0A49
:10130000031D832984298C290030B3000030B200EA
:101310000030B1000030B000B21796290030B300A1
:101320000030B2000030B1000030B0003E080319B8
:101330009A299B29A0293F08031D9F29A029A92993
:101340000030AF000030AE000030AD000030AC0027
:101350009C2C2C08B4003408F40032080A168A15B4
:10136000F1210A128A15750883120313C500740847
:10137000C4004408B400B501B601B7013708BD0088
:101380003608BC003508BB003408BA004508B40074
:10139000B501B601B7013708C3003608C2003508E9
:1013A000C1003408C0002D08B4003408F40031082E
:1013B0000A168A15F1210A128A1575088312031379
:1013C000C5007408C4004408B400B501B601B701F3
:1013D0003408BA07350803110318013E0319F1292F
:1013E000BB07360803110318013E0319F829BC078F
:1013F000370803110318013E0319FF29BD074508EB
:10140000B400B501B601B7013408C00735080311AF
:101410000318013E03190D2AC107360803110318EA
:10142000013E0319142AC207370803110318013EAD
:1014300003191B2AC3072E08B4003408F40030082F
:101440000A168A15F1210A128A15750883120313E8
:10145000C5007408C4004408B400B501B601B70162
:101460003408BA07350803110318013E0319392A55
:10147000BB07360803110318013E0319402ABC07B5
:10148000370803110318013E0319472ABD07450811
:10149000B400B501B601B7013408C007350803111F
:1014A0000318013E0319552AC10736080311031812
:1014B000013E03195C2AC207370803110318013ED5
:1014C0000319632AC3070830B4000310BA0DBB0D1B
:1014D000BC0DBD0DB40B652A2D08B4003408F40012
:1014E00030080A168A15F1210A128A157508831226
:1014F0000313C5007408C4004408B4004508B500CF
:10150000B601B7013408BA07350803110318013EC4
:1015100003198B2ABB07360803110318013E031970
:10152000922ABC07370803110318013E0319992AB0
:10153000BD072C08B4003408F40031080A168A15D7
:10154000F1210A128A15750883120313C500740865
:10155000C4004408B4004508B500B601B70134081A
:10156000BA07350803110318013E0319B82ABB074F
:10157000360803110318013E0319BF2ABC073708B8
:1015800003110318013E0319C62ABD070830B40031
:101590000310BA0DBB0DBC0DBD0DB40BC82A2C0831
:1015A000B4003408F40030080A168A15F1210A1232
:1015B0008A15750883120313C5007408C400440813
:1015C000B4004508B500B601B7013408BA073508BC
:1015D00003110318013E0319EE2ABB073608031155
:1015E0000318013E0319F52ABC0737080311031835
:1015F000013E0319FC2ABD072D08B4003408F4008D
:1016000032080A168A15F1210A128A157508831202
:101610000313C5007408C4004408B4004508B500AD
:10162000B601B7013408C007350803110318013E9D
:1016300003191B2BC107360803110318013E0319B8
:10164000222BC207370803110318013E0319292B67
:10165000C3072E08B4003408F40031080A168A15AE
:10166000F1210A128A15750883120313C500740844
:10167000C4004408B4004508B500B601B7013408F9
:10168000C007350803110318013E0319482BC10791
:10169000360803110318013E03194F2BC207370800
:1016A00003110318013E0319562BC3072E08B4007B
:1016B0003408F40032080A168A15F1210A128A1534
:1016C000750883120313C5007408C4004408B400ED
:1016D0004508B500B601B70108300310B40DB50DCB
:1016E000B60DB70DFF3E031D6D2B3408C00735083E
:1016F00003110318013E03197E2BC107360803119D
:101700000318013E0319852BC2073708031103187C
:10171000013E03198C2BC3073A08B4003B08B500FF
:101720003C08B6003D08B70018300310B70CB60CE3
:10173000B50CB40CFF3E031D952B3408C0073508CB
:1017400003110318013E0319A62BC1073608031124
:101750000318013E0319AD2BC20737080311031804
:10176000013E0319B42BC3070830B4000310BA0DAF
:10177000BB0DBC0DBD0DB40BB62B3F083E07B4002E
:10178000B501B50D3408823EC40035080318013E8A
:10179000FF3EC500E82B0130B4000310C00DC10DA1
:1017A000C20DC30DB40BCD2BBD1FD72BD82BD92BFE
:1017B00040140130B4000310BA0DBB0DBC0DBD0DBB
:1017C000B40BDB2BFF30C4070318C50AFF30C50775
:1017D000C21FEB2BEC2BCB2BBE01BD1FF02BF12B33
:1017E0000D2CFF303A05B400FF303B05B500FF304B
:1017F0003C05B6007F303D05B70037083604350498
:1018000034040319042C052C082CBE01BE0A0D2C2F
:10181000401C0B2C0C2C0D2C052C3E080319112CF4
:10182000122C432C0130C007003003180130C107CF
:10183000003003180130C207003003180130C3071D
:10184000431C232C242C432C4008B4004108B50031
:101850004208B6004308B7000130B800370DB70C96
:10186000B60CB50CB40CB80B2E2C3708C3003608D8
:10187000C2003508C1003408C0000130C407031895
:10188000C50A0030C5074508803AFF0080307F0256
:10189000031D4C2CFF304402031C4F2C502C5B2C9E
:1018A0007F3083120313C3008030C2000030C100B8
:1018B0000030C000902C831203134508803AFF00CB
:1018C00080307F02031D662C013044020318692C0E
:1018D0006A2C762C003083120313C3000030C20040
:1018E0000030C1000030C000B901902C83120313F6
:1018F0004408B4003408BF00FF30C005FF30C10504
:101900007F30C2050030C3053F1C872C882C892CF2
:10191000C2173F08B4000310340CB5003508C300EB
:101920003908B4003408C3044308AF004208AE00CD
:101930004108AD004008AC00080083120313D80032
:10194000D81FA32CA42C532ED809D80A5808803AA3
:10195000123E031CAC2CAD2C972D0A30A300003096
:10196000A4005808F600F701F61BF7036430F400F2
:101970000030F5000A168A1106200A128A15750829
:1019800083120313A6007408A5000A128A151220F8
:101990000A128A15831203132308CA0001300310A8
:1019A000CA0DFF3E031DCF2C03104A0D593E840083
:1019B0000A128A110A270A128A15CB000A128A1102
:1019C0000A270A128A15CC000A128A110A270A125B
:1019D0008A15CD000A128A110A270A128A15CE002A
:1019E0004E08AF004D08AE004C08AD004B08AC00EF
:1019F0006430A3000030A4005808A500A601A51B70
:101A0000A6030A128A1512200A128A1583120313DA
:101A10002308CF0001300310CF0DFF3E031D0B2D17
:101A200003104F0D7D3E84000A128A110A270A1204
:101A30008A15D0000A128A110A270A128A15D100C3
:101A40000A128A110A270A128A15D2000A128A116A
:101A50000A270A128A15D3005308B3005208B200AD
:101A60005108B1005008B0000A128A153C210A1230
:101A70008A15831203132F08D7002E08D6002D08CD
:101A8000D5002C08D4000A30F4000030F5005808C6
:101A9000F600F701F61BF7030A168A1106200A1250
:101AA0008A15740883120313CA0001300310CA0D8B
:101AB000FF3E031D562D03104A0D353E84000A12C9
:101AC0008A110A270A128A15CB000A128A110A27DC
:101AD0000A128A15CC000A128A110A270A128A15DC
:101AE000CD000A128A110A270A128A15CE004E0862
:101AF000AF004D08AE004C08AD004B08AC005708D5
:101B0000B3005608B2005508B1005408B0000A12DC
:101B10008A153C210A128A15831203132F08C90063
:101B20002E08C8002D08C7002C08C600FF2F580833
:101B3000803A753E031C9D2D9E2D262E0A30F40002
:101B40000030F5005808F600F701F61BF7030A16F7
:101B50008A1106200A128A15740883120313CA0018
:101B600001300310CA0DFF3E031DB12D03104A0DB5
:101B7000353E84000A128A110A270A128A15CB0000
:101B80000A128A110A270A128A15CC000A128A112F
:101B90000A270A128A15CD000A128A110A270A1288
:101BA0008A15CE004E08AF004D08AE004C08AD00BF
:101BB0004B08AC000A30A3000030A4005808A50070
:101BC000A601A51BA6030A128A1512200A128A155D
:101BD000831203132308CF0001300310CF0DFF3E03
:101BE000031DED2D03104F0D593E84000A128A117A
:101BF0000A270A128A15D0000A128A110A270A1225
:101C00008A15D1000A128A110A270A128A15D200EF
:101C10000A128A110A270A128A15D3005308B30040
:101C20005208B2005108B1005008B0000A128A15DB
:101C30003C210A128A15831203132F08C9002E08AB
:101C4000C8002D08C7002C08C600FF2F5808CA007E
:101C500001300310CA0DFF3E031D292E03104A0D4B
:101C6000353E84000A128A110A270A128A15CB000F
:101C70000A128A110A270A128A15CC000A128A113E
:101C80000A270A128A15CD000A128A110A270A1297
:101C90008A15CE004E08C9004D08C8004C08C70080
:101CA0004B08C600FF2F5808803A123E031C592EDD
:101CB0005A2E442F0A30A3000030A4005808F60022
:101CC000F701F61BF7036430F4000030F5000A1644
:101CD0008A1106200A128A15750883120313A600BA
:101CE0007408A5000A128A1512200A128A15831296
:101CF00003132308CA0001300310CA0DFF3E031D61
:101D00007C2E03104A0D253E84000A128A110A27F0
:101D10000A128A15CB000A128A110A270A128A159A
:101D2000CC000A128A110A270A128A15CD000A125B
:101D30008A110A270A128A15CE004E08AF004D08F4
:101D4000AE004C08AD004B08AC006430A30000307E
:101D5000A4005808A500A601A51BA6030A128A150F
:101D600012200A128A15831203132308CF000130B0
:101D70000310CF0DFF3E031DB82E03104F0D493E3B
:101D800084000A128A110A270A128A15D0000A1240
:101D90008A110A270A128A15D1000A128A110A2703
:101DA0000A128A15D2000A128A110A270A128A1503
:101DB000D3005308B3005208B2005108B1005008D4
:101DC000B0000A128A153C210A128A1583120313E5
:101DD0002F08D7002E08D6002D08D5002C08D400D7
:101DE0000A30F4000030F5005808F600F701F61B41
:101DF000F7030A168A1106200A128A15740883123C
:101E00000313CA0001300310CA0DFF3E031D032F48
:101E100003104A0D013E84000A128A110A270A1291
:101E20008A15CB000A128A110A270A128A15CC00D9
:101E30000A128A110A270A128A15CD000A128A117B
:101E40000A270A128A15CE004E08AF004D08AE00D0
:101E50004C08AD004B08AC005708B3005608B20060
:101E60005508B1005408B0000A128A153C210A1224
:101E70008A15831203132F08C9002E08C8002D08E5
:101E8000C7002C08C600FF2F5808803A753E031C77
:101E90004A2F4B2FD32F0A30F4000030F50058089A
:101EA000F600F701F61BF7030A168A1106200A123C
:101EB0008A15740883120313CA0001300310CA0D77
:101EC000FF3E031D5E2F03104A0D013E84000A12DF
:101ED0008A110A270A128A15CB000A128A110A27C8
:101EE0000A128A15CC000A128A110A270A128A15C8
:101EF000CD000A128A110A270A128A15CE004E084E
:101F0000AF004D08AE004C08AD004B08AC000A30E5
:101F1000A3000030A4005808A500A601A51BA60335
:101F20000A128A1512200A128A1583120313230833
:101F3000CF0001300310CF0DFF3E031D9A2F031079
:101F40004F0D253E84000A128A110A270A128A15AB
:101F5000D0000A128A110A270A128A15D1000A1221
:101F60008A110A270A128A15D2000A128A110A2730
:101F70000A128A15D3005308B3005208B200510860
:101F8000B1005008B0000A128A153C210A128A15C5
:101F9000831203132F08C9002E08C8002D08C7009C
:101FA0002C08C600FF2F5808CA0001300310CA0DC4
:101FB000FF3E031DD62F03104A0D013E84000A1276
:101FC0008A110A270A128A15CB000A128A110A27D7
:101FD0000A128A15CC000A128A110A270A128A15D7
:101FE000CD000A128A110A270A128A15CE004E085D
:101FF000C9004D08C8004C08C7004B08C6000800BF
:10200000F40074088312031388000800831203137A
:10201000A201F71F0C280D281428F609F709F60A63
:102020000319F70AA201A20AF51F172818281D286C
:10203000F409F509F40A0319F50A7408750403197B
:10204000222823285228A101A10A31280130031097
:10205000F40DF50DFF3E031D27280130A0002008D8
:10206000A107F51F34283528262875087702031D97
:102070003B2874087602031C3E283F284528740834
:10208000F6027508031CF703F70201300310F50C84
:10209000F40CFF3E031D46280130A102031D512808
:1020A0005228352822080319562857285C28F60993
:1020B000F709F60A0319F70A7708F5007608F4001D
:1020C000080083120313D9006E305902031C6928DB
:1020D0006A2879293F30AF000030AE000030AD00F3
:1020E0000030AC006430A2000030A3005908CA00E0
:1020F000CB014A08A4004B08A5000A168A158B22BA
:102100000A168A11831203132208CC00013003102F
:10211000CC0DFF3E031D872803104C0D7D3E84002F
:102120000A128A110A270A168A11CD000A128A1188
:102130000A270A168A11CE000A128A110A270A16DD
:102140008A11CF000A128A110A270A168A11D000B2
:102150005008B3004F08B2004E08B1004D08B0005F
:102160000A128A153C210A168A11831203132F08BA
:10217000D8002E08D7002D08D6002C08D5000A302C
:10218000A2000030A3005908CA00CB014A08F6009B
:102190004B08F7006430F4000030F5000A128A1191
:1021A000C4270A168A11750883120313A500740840
:1021B000A4000A168A158B220A168A1183120313A9
:1021C0002208CC0001300310CC0DFF3E031DE32894
:1021D00003104C0D593E84000A128A110A270A1670
:1021E0008A11CD000A128A110A270A168A11CE0016
:1021F0000A128A110A270A168A11CF000A128A11B6
:102200000A270A168A11D0005008AF004F08AE0006
:102210004E08AD004D08AC005808B3005708B20096
:102220005608B1005508B0000A128A153C210A165A
:102230008A11831203132F08D4002E08D3002D080F
:10224000D2002C08D1000A30F4000030F500590803
:10225000CA00CB014A08F6004B08F7000A128A119F
:10226000C4270A168A11740883120313CC000130A4
:102270000310CC0DFF3E031D382903104C0D353ED5
:1022800084000A128A110A270A168A11CD000A123E
:102290008A110A270A168A11CE000A128A110A2701
:1022A0000A168A11CF000A128A110A270A168A1101
:1022B000D0005008AF004F08AE004E08AD004D08EA
:1022C000AC005408B3005308B2005208B1005108E2
:1022D000B0000A128A153C210A168A1183120313D0
:1022E0002F08C9002E08C8002D08C7002C08C600FA
:1022F0006D2A0B305902031C7E297F292A2A3F3080
:10230000AF000030AE000030AD000030AC000A304D
:10231000A2000030A3005908CA00CB014A08A4005B
:102320004B08A5000A168A158B220A168A118312F9
:1023300003132208CC0001300310CC0DFF3E031D17
:102340009C2903104C0D593E84000A128A110A2759
:102350000A168A11CD000A128A110A270A168A1152
:10236000CE000A128A110A270A168A11CF000A1211
:102370008A110A270A168A11D0005008B3004F08A4
:10238000B2004E08B1004D08B0000A128A153C2177
:102390000A168A11831203132F08D8002E08D700BB
:1023A0002D08D6002C08D5000A30F4000030F500C6
:1023B0005908CA00CB014A08F6004B08F7000A1278
:1023C0008A11C4270A168A11740883120313CC00D9
:1023D00001300310CC0DFF3E031DE92903104C0D05
:1023E000353E84000A128A110A270A168A11CD0086
:1023F0000A128A110A270A168A11CE000A128A11B5
:102400000A270A168A11CF000A128A110A270A1609
:102410008A11D0005008AF004F08AE004E08AD0042
:102420004D08AC005808B3005708B2005608B10078
:102430005508B0000A128A153C210A168A11831227
:1024400003132F08C9002E08C8002D08C7002C0848
:10245000C6006D2A3F30AF000030AE000030AD0046
:102460000030AC005908CA0001300310CA0DFF3E0D
:10247000031D352A03104A0D353E84000A128A11C5
:102480000A270A168A11CB000A128A110A270A168D
:102490008A11CC000A128A110A270A168A11CD0065
:1024A0000A128A110A270A168A11CE004E08B300B2
:1024B0004D08B2004C08B1004B08B0000A128A1552
:1024C0003C210A168A11831203132F08C9002E0813
:1024D000C8002D08C7002C08C6000800831203138B
:1024E0005D088039E2006208EA005D08E2006207E8
:1024F000E3006308EC00DC1F7E2A7F2A802A6C142C
:102500006C080319842A852A952A6C0A031D892AD6
:102510008A2A922A0030DD000030DC000030DB0027
:102520000030DA00DC17DD019D2A0030DD000030CC
:10253000DC000030DB000030DA0061088039E200A6
:102540006208EB006B086A060319A72AA82AA92AC1
:102550006A176108E2006207E3006308EB00E01F0E
:10256000B22AB32AB42A6B146B080319B82AB92A01
:10257000C92A6B0A031DBD2ABE2AC62A0030E10003
:102580000030E0000030DF000030DE00E017E10145
:10259000D12A0030E1000030E0000030DF000030E0
:1025A000DE006C086B020318D62AD72A1B2B6A1F81
:1025B000DA2ADB2ADF2A8030E2006208EA066C08A9
:1025C000E2006208ED006B08E2006208EC006D08B2
:1025D000E2006208EB005A08E2006208ED005E08C3
:1025E000E2006208DA006D08E2006208DE005B08C3
:1025F000E2006208ED005F08E2006208DB006D089F
:10260000E2006208DF005C08E2006208ED0060089A
:10261000E2006208DC006D08E2006208E0005D088C
:10262000E2006208ED006108E2006208DD006D086A
:10263000E2006208E100ED016B08E200E3016308DB
:10264000E5006C086202E400031CE5036508803ABB
:10265000FF0080307F02031D2F2B1A306402031C01
:10266000322B332B702B831203135D085C045B0445
:102670005A04031D3C2B3E2B01303F2B0030E2005F
:102680006208ED000030DD000030DC000030DB00CF
:102690000030DA006B08E2006208EC00782B6D1C59
:1026A000522B532B5C2B6D08E2000310620C013897
:1026B000E3006308ED005E2B0310ED0C5A1C612B48
:1026C000622B632BED170130E2005D0DDD0CDC0C9D
:1026D000DB0CDA0CE20B652B0130E2006208EC0740
:1026E000831203136B086C02031C772B782B4F2B80
:1026F0006A1B7B2B7C2BC72B6C08031D802B812B2B
:102700008A2B0030DD000030DC000030DB000030C0
:10271000DA00F52C5E08DA075F0803110318013EA2
:102720000319932BDB07600803110318013E0319FB
:102730009A2BDC07610803110318013E0319A12B32
:10274000DD075D1CA42BA52B7B2C6D1CA82BA92BB6
:10275000B22B6D08E2000310620C0138E30063083D
:10276000ED00B42B0310ED0C5A1CB72BB82BB92B72
:10277000ED170130E2005D0DDD0CDC0CDB0CDA0C3A
:10278000E20BBB2B0130E2006208EC077B2C5D08FA
:10279000803AFF006108803A7F02031DD92B600850
:1027A0005C02031DD92B5F085B02031DD92B5E0859
:1027B0005A020318DC2BDD2B352CFF30E200FF30F2
:1027C000E300FF30E400FF30E5005E08E6005F084C
:1027D000E7006008E8006108E9005A08E6025B08C3
:1027E000031C5B0FF42BF52BE7025C08031C5C0F4A
:1027F000FA2BFB2BE8025D08031C5D0F002C012C5B
:10280000E9026608E20767080318670F082C092C1D
:10281000E30768080318680F0E2C0F2CE4076908FB
:102820000318690AE5076508DD006408DC00630831
:10283000DB006208DA008030E2006208EA06ED0997
:10284000ED0A6D08031D252C262C432C0130DA07D8
:10285000003003180130DB07003003180130DC07BB
:10286000003003180130DD07432C5E08DA025F08F0
:10287000031C5F0FDB026008031C600FDC026108B1
:10288000031C610FDD025D085C045B045A04031D38
:102890004A2C4B2C772C6D08031D4F2C502C772C79
:1028A0000030DD000030DC000030DB000030DA00FA
:1028B000F52C0130E2000310DA0DDB0DDC0DDD0D2F
:1028C000E20B5B2CED1F652C662C672C5A146D1CDB
:1028D0006A2C6B2C6E2C0314ED0D702C0310ED0D77
:1028E0006C080319742C752C772C0130EC02DC1F5A
:1028F0007A2C7B2C592CEB01ED1F7F2C802C8E2CFD
:102900006D087F390319852C862C892CEB01EB0A85
:102910008E2C5A1C8C2C8D2C8E2C862C6B0803191B
:10292000922C932CC72C0130DA07003003180130A9
:10293000DB07003003180130DC07003003180130DA
:10294000DD075D1CA42CA52CC72C5A08E2005B08EF
:10295000E3005C08E4005D08E5000130E600650D79
:10296000E50CE40CE30CE20CE60BAF2C6508DD0093
:102970006408DC006308DB006208DA006C0A0319F3
:10298000C22CC32CC72C0130E2006208EC076C0A91
:102990000319CB2CCC2CD12C6C08031DD02CD12CA2
:1029A000DF2C0030DD000030DC000030DB000030C8
:1029B000DA006C08031DDD2CDE2CDF2CEA016C1C18
:1029C000E22CE32CE52CDC17E92C7F30E2006208D6
:1029D000DC056C08E2000310620CE3006308DD0014
:1029E000EA1FF32CF42CF52CDD17080083160313D3
:1029F000CF00A930B3003308BC000A128A11902E10
:102A0000253052060319052D062D122D5208B3004C
:102A10004F0884003308831780000130B300330867
:102A2000CF07FD2CBF01C001BD01BE0128088400F5
:102A30000A128A110A270A168A110A128A15002018
:102A40000A168A11031C252D262D662D83160313C5
:102A5000BF01C0010A30F4000030F50083160313F3
:102A60004008F7003F08F6000A168A151A220A16CF
:102A70008A11750883160313C0007408BF00280864
:102A800084000A128A110A270A168A11D03EB3005E
:102A9000FF3003180030B4003308BF070318C00A22
:102AA0003408C0070130B3003308A80728088400A1
:102AB0000A128A110A270A168A110A128A15002098
:102AC0000A168A110318652D662D2A2D8316031305
:102AD000280884000A128A110A270A168A112E3A37
:102AE000031D732D742DB92D3E170130B30033082B
:102AF000A807D001D101A82D0A30F4000030F5005C
:102B0000831603135108F7005008F6000A168A15B9
:102B10001A220A168A11750883160313D100740845
:102B2000D000280884000A128A110A270A168A117E
:102B3000D03EB300FF3003180030B4003308D00794
:102B40000318D10A3408D1070130B3003308A807AD
:102B5000280884000A128A110A270A168A110A1202
:102B60008A1500200A168A110318B72DB82D7C2D5E
:102B7000BF2DD001D1013E16BF2D3E15E12D0130F4
:102B800083160313A807FF30280784000A128A114E
:102B90000A270A168A11D200B300B4013408003A99
:102BA0000319D32DFD2C3308003A0319FD2F643A85
:102BB0000319E12D023A0319BD2D0F3A0319E12D36
:102BC000FD2C00303D05B30007303E05B40033084E
:102BD00034040319EC2DEF2D0A128A11E12C3E1E4C
:102BE000F22DF32DF72D0630D0000030D1003C0837
:102BF000840083130008CB00840A0008CC00840AF8
:102C00000008CD00840A0008CE000430B300330869
:102C1000BC074E0883120313A300831603134D0849
:102C200083120313A200831603134C0883120313A9
:102C3000A100831603134B0883120313A000003076
:102C4000A7000030A6000030A5000030A4000A163E
:102C50008A1525250A168A1103182F2E302E4D2E7F
:102C6000831603134E08F7004D08F6004C08F500D4
:102C70004B08F4000A168A1554210A168A1177089F
:102C800083160313CE007608CD007508CC007408B7
:102C9000CB000330BD040030BE0483160313C9010A
:102CA000CA014E0883120313A300831603134D08B1
:102CB00083120313A200831603134C088312031319
:102CC000A100831603134B0883120313A0000030E6
:102CD000A7000030A6000030A5000030A4000A16AE
:102CE0008A15D1220A168A110318772E782E942F6E
:102CF0000310831603134D0D4E0D823EC900FF30A5
:102D000003180030CA00FF30C9070318CA0AFF3091
:102D1000CA070330F4000030F5004A08F7004908FC
:102D2000F6000A168A151A220A168A1175088316E1
:102D30000313CA007408C9000A3083120313A300E6
:102D40000030A400831603134A0883120313A6005D
:102D500083160313490883120313A5000A128A1568
:102D600012200A168A1183120313240883160313F0
:102D7000CA0083120313230883160313C900CA1F52
:102D8000C22EC32EC92EFF30C9070318CA0AFF304E
:102D9000CA074903FF3A0A128A159D240A168A11A6
:102DA00083120313490883160313C4008312031309
:102DB000480883160313C3008312031347088316BE
:102DC0000313C20083120313460883160313C100C2
:102DD0004E0883120313AF00831603134D088312AA
:102DE0000313AE00831603134C0883120313AD00C4
:102DF000831603134B0883120313AC0083160313CB
:102E0000440883120313B300831603134308831289
:102E10000313B20083160313420883120313B10095
:102E200083160313410883120313B0000A128A1594
:102E30003C210A168A11831203132F0883160313E9
:102E4000C400831203132E0883160313C3008312D6
:102E500003132D0883160313C200831203132C08D7
:102E600083160313C100440883120313A3008316BF
:102E70000313430883120313A200831603134208AB
:102E800083120313A1008316031341088312031353
:102E9000A0003F30A7008030A6000030A500003021
:102EA000A4000A168A1525250A168A110318592F17
:102EB0005A2F632FFF3083160313C9070318CA0A5A
:102EC000FF30CA07942F8316031344088312031399
:102ED000A30083160313430883120313A20083166F
:102EE0000313420883120313A1008316031341083E
:102EF00083120313A0004130A7002030A600003049
:102F0000A5000030A4000A168A1525250A168A1184
:102F1000031C8B2F8C2F942F013083160313C907AA
:102F20000318CA0A0030CA07831603135108803AEF
:102F3000FF0080307F02031D9F2F0D3050020318C9
:102F4000A22FA32FEA2F8316031350080A168A1103
:102F500061200A168A11831203134908DD0048080C
:102F6000DC004708DB004608DA00831603134E082E
:102F700083120313E100831603134D088312031316
:102F8000E000831603134C0883120313DF0083163B
:102F900003134B0883120313DE000A168A116E22F4
:102FA0000A168A11831203135D0883160313CE00D9
:102FB000831203135C0883160313CD0083120313DB
:102FC0005B0883160313CC00831203135A0883167D
:102FD0000313CB00831603134A08803AFF008030A6
:102FE0007F02031DF52F0A3049020318FA2F0A1237
:102FF0008A1127280A128A1186280A128A11A42EF9
:1032980064008001840A04060319003404064D29D9
:1032A800770876047504740403195B295C295E2980
:1032B8008030F706080000300A168A15A8210A1679
:1032C8008A1501300A168A15A8210A168A150800D7
:1032D800F60083120313091476080A168A110020CF
:1032E8000A168A158312031389141A30F500F50B90
:1032F8007B2900008312031389100630F500F50BB3
:103308008329000008000330831603178800890109
:103318000330831603138500831203138501831674
:10332800031387018312031387018316031388018C
:10333800831203138801831603138901831203136D
:103348008901C3309F050800F70083120313091091
:1033580077080A168A1100200A168A1583120313A1
:1033680089140B30F6006230F500F50BB929F60B1D
:10337800B92900008312031389100630F600303093
:10338800F500F50BC529F60BC529000008008312C6
:103398000313A2002203031DD229D329DF29200801
:1033A800803EA1002108A30023080A168A15A82137
:1033B8000A168A15F02902302206031DE429E52998
:1033C800F0292008C03EA1002108A30023080A16FE
:1033D8008A15A8210A168A15080083120313A40067
:1033E800A001A1017408F600F7017608A200770889
:1033F800A300241C002A012A072A2208A007031870
:10340800A10A2308A10701300310A20DA30DFF3E56
:10341800031D082A0310A40C2408031D142A152AC6
:10342800FD292108F5002008F40008008312031381
:10343800A001A101741C212A222A2A2A76088312B3
:103448000313A0070318A10A7708A1070130031086
:10345800F60DF70DFF3E031D2B2A01300310F50C66
:10346800F40CFF3E031D322A74087504031D3D2A1F
:103478003E2A1E2A831203132108F5002008F400AF
:10348800080083120313A501A6016E2A2508200748
:10349800A3002108A2000318A20AA51F542AA20308
:1034A800831203132208A4002408FF0023088400C1
:1034B8000A128A1100270A168A150A168A156C211B
:1034C8000A168A15013083120313A5070318A60AE2
:1034D8000030A60725082007A3002108A20003182A
:1034E800A20AA51F782AA203831203132208A400A4
:1034F8002408FF00230884000A128A1100270A16EC
:103508008A15003A031D892A8A2A4A2A0800831242
:103518000313A701A801220823040319942A952A52
:10352800CC2AA901A90AA32A01300310A20DA30DD0
:10353800FF3E031D992A0130A6002608A907A31FEC
:10354800A62AA72A982A01300310A70DA80DFF3E26
:10355800031DA82A23082502031DB42A22082402D1
:10356800031CB72AB82ABF2A2208A4022308031C6E
:10357800A503A502271401300310A30CA20CFF3EDB
:10358800031DC02A0130A902031DCB2ACC2AA72A71
:103598002808A3002708A20008000030831203139C
:1035A8002005F40000302105F50080302205F600E2
:1035B8007F302305F7007708760475047404031D2B
:1035C800E62AE72AEF2A0030A3000030A2000030E4
:1035D800A1000030A00000302405F40000302505CB
:1035E800F50080302605F6007F302705F7007708BC
:1035F800760475047404031D022B032B0B2B003077
:10360800A7000030A6000030A5000030A40027085D
:103618002306031D192B26082206031D192B25082E
:103628002106031D192B2408200603191C2B1D2B0A
:103638001F2B0310202B031408008030831603135C
:10364800A306270883120313DD0083160313260835
:1036580083120313DC008316031325088312031354
:10366800DB0083160313240883120313DA0083167E
:103678000313230883120313E1008316031322089C
:1036880083120313E0008316031321088312031324
:10369800DF0083160313200883120313DE000A16C3
:1036A8008A116E220A168A15831203135D0883167F
:1036B8000313A300831203135C0883160313A200E9
:1036C800831203135B0883160313A10083120313E9
:1036D8005A0883160313A000080083120313091065
:1036E800891000300A168A1100200A168A1534300B
:1036F80083120313A100F130A000A00B812BA10BB2
:10370800812B30300A168A15A8210A168A150D3021
:1037180083120313A100FB30A000A00B912BA10B77
:10372800912B30300A168A15A8210A168A151D30E1
:1037380083120313A1009030A000A00BA12BA10BB2
:10374800A12B000030300A168A15A8210A168A15FE
:1037580038300A168A15A8210A168A150C300A1656
:103768008A15A8210A168A1501300A168A15A82171
:103778000A168A1506300A168A15A8210A168A1505
:103788000800003083120313AB000030AA00003099
:10379800A9000030A80023082204210420040319EA
:1037A800D62BD72B242CAC01AC0AE72B0130F40024
:1037B8000310A00DA10DA20DA30DF40BDC2B0130FD
:1037C800F4007408AC07A31FEA2BEB2BDA2B0130AB
:1037D800F4000310A80DA90DAA0DAB0DF40BED2BE9
:1037E80023082702031D022C22082602031D022C8F
:1037F80021082502031D022C20082402031C052C85
:10380800062C152C2008A4022108031C210FA50250
:103818002208031C220FA6022308031C230FA70259
:10382800281401300310A30CA20CA10CA00CFF3E1D
:10383800031D162C0130AC02031D232C242CEB2B6A
:103848002B08A3002A08A2002908A1002808A00024
:103858000800831203138C1E322C332C4D2C1A08AB
:10386800F0007008F8002B307806031D3C2C3D2C26
:10387800432C0130F000700883160313DF072D3046
:103888007806031D482C492C4D2C01308316031350
:10389800DF0283129F1C512C532C0130542C003012
:1038A800F0001F0CF100710C0F39003A03195D2C60
:1038B8005F2C0130602C0030700500380319652C2E
:1038C800662C7B2C1E08F000700883160313E0009A
:1038D800831203131F08C33904389F001030F00007
:1038E800F00B742C0000831203139F140C139F1CFD
:1038F8007E2C802C0130812C0030F0001F0CF10050
:10390800710C0F39013A03198A2C8C2C01308D2C3B
:103918000030700500380319922C932CA22C1E0835
:10392800F0007008F900C3309F051030F000F00B6C
:103938009B2C0000831203139F140C1373088A0036
:10394800720E8300FE0E7E0E09000310831203130D
:103958005B0D5C0DDD005D08E3006308031DB52CFD
:10396800B62CBF2C0030DC000030DB000030DA0061
:103978000030D900242D5908DD005A08DE005B0804
:10398800DF005C08E0001F300310E00CDF0CDE0CE9
:10399800DD0CFF3E031DC82C5D08E1006108E20054
:1039A800DB17FF30D905FF30DA05FF30DB050030C3
:1039B800DC059630E302E31FE22CE32CFD2C6308C0
:1039C800803A973E0318E92CEA2CEB2CB62C0130F0
:1039D8000310DC0CDB0CDA0CD90CFF3E031DEC2CBD
:1039E8000130DD005D08E307031DFB2CFC2CEB2CEC
:1039F800142D20306302031C022D032D0F2DB62C2D
:103A08000130DD000310D90DDA0DDB0DDC0DDD0B07
:103A1800062D0130E3026308031D132D142D042D18
:103A280062080319182D192D242DD909DA09DB0983
:103A3800DC09D90A0319DA0A0319DB0A0319DC0AB3
:103A480008000030831203132005F400003021051C
:103A5800F50080302205F6007F302305F70077084F
:103A6800760475047404031D3A2D3B2D432D003054
:103A7800A3000030A2000030A1000030A0000030F8
:103A88002405F40000302505F50080302605F600F1
:103A98007F302705F7007708760475047404031D42
:103AA800562D572D5F2D0030A7000030A60000309E
:103AB800A5000030A400A31F622D632D872D0030C0
:103AC800F4000030F5000030F6008030F7002008E0
:103AD800F4022108031C210F722D732DF502220810
:103AE800031C220F782D792DF6022308031C230FBF
:103AF8007E2D7F2DF7027708A3007608A2007508AF
:103B0800A1007408A000A71F8A2D8B2DAF2D0030AF
:103B1800F4000030F5000030F6008030F70024088B
:103B2800F4022508031C250F9A2D9B2DF502260863
:103B3800031C260FA02DA12DF6022708031C270F12
:103B4800A62DA72DF7027708A7007608A600750806
:103B5800A5007408A4008030A3068030A7062708B3
:103B68002302031DC12D26082202031DC12D25088D
:103B78002102031DC12D240820020318C42DC52DC0
:103B8800C72D0310C82D0314080083120313A400C3
:103B980024080319D02DD12DE52DF71FD42DD52DAF
:103BA800E52D7409A6007509A7007609A80077090C
:103BB800A900A60A0319A70A0319A80A0319A90A3A
:103BC800ED2D7708A9007608A8007508A7007408E5
:103BD800A6007708760475047404031DF42DF52DEA
:103BE800FE2D0030F7000030F6000030F500003000
:103BF800F400842E9630A0002008A500102E013075
:103C0800A0002008A50701300310A90CA80CA70CD8
:103C1800A60CFF3E031D082EFE302905031D152E98
:103C2800162E032E322E0130A0002008A5070130E1
:103C3800A607003003180130A70700300318013029
:103C4800A807003003180130A90701300310A90C98
:103C5800A80CA70CA60CFF3E031D2A2EFF30290531
:103C6800031D372E382E172E442E0130A5020130A1
:103C7800A0000310A60DA70DA80DA90DA00B3D2EA1
:103C8800A81B472E482E4E2E0230250203184D2E13
:103C98004E2E392E2518512E522E5A2EFF30A6059B
:103CA800FF30A7057F30A805FF30A9050310A50C34
:103CB8002508A000A101A201A30118300310A00D3E
:103CC800A10DA20DA30DFF3E031D622E2008A60420
:103CD8002108A7042208A8042308A9042408031912
:103CE800762E772E7C2EF71F7A2E7B2E7C2EA91708
:103CF8002908F7002808F6002708F5002608F40028
:103D08000800831203132008F4002108F500220894
:103D1800F6000310750D760DF7007708AD002D0835
:103D2800031D972E982EA12E0030A3000030A2006C
:103D38000030A1000030A000412F2408F40025081D
:103D4800F5002608F6000310750D760DF7007708C4
:103D5800AC002C08031DB12EB22EB32E982EA1173D
:103D6800FF30A005FF30A1050030A205A517FF30E0
:103D7800A405FF30A5050030A6050030AB000030D3
:103D8800AA000030A9000030A8007F30AD029830AA
:103D98002C07F4007408AD021830F4007408AC0065
:103DA8000130F4000310A80DA90DAA0DAB0DF40BFA
:103DB800D62E26082202031DE72E25082102031D00
:103DC800E72E24082002031CEA2EEB2EF62E2408E8
:103DD800A0022508031C250FA1022608031C260A99
:103DE800A202281401300310A00DA10DA20DFF3E60
:103DF800031DF72E0130AC02031D032F042FD42E10
:103E0800AD1F072F082F222F2D08803A973E031841
:103E18000E2F0F2F102F982E01300310AB0CAA0C69
:103E2800A90CA80CFF3E031D112F0130F4007408E3
:103E3800AD07031D202F212F102F392F18302D02E9
:103E4800031C272F282F342F982E0130F40003103D
:103E5800A80DA90DAA0DAB0DF40B2B2F0130AD0247
:103E68002D08031D382F392F292F2B08A3002A08C6
:103E7800A2002908A1002808A00008000310831246
:103E88000313220D230DF4007408AD002D08031D43
:103E98004E2F4F2F582F0030A3000030A2000030C3
:103EA800A1000030A000FF2F0310260D270DF400FD
:103EB8007408AC002C08031D622F632F642F4F2F4A
:103EC800A217FF30A005FF30A105FF30A205003082
:103ED800A305A617FF30A405FF30A505FF30A605EA
:103EE8000030A7050030AB000030AA000030A90060
:103EF8000030A8007F30AD02A0302C07F400740811
:103F0800AD022030F4007408AC000130F400031056
:103F1800A80DA90DAA0DAB0DF40B8B2F27082302B2
:103F2800031DA02F26082202031DA02F2508210209
:103F3800031DA02F24082002031CA32FA42FB32F96
:103F48002408A0022508031C250FA1022608031C2B
:103F5800260FA2022708031C270FA30228140130EA
:103F6800F4000310A00DA10DA20DA30DF40BB52FA5
:103F78000130AC02031DC12FC22F892FAD1FC52FE1
:103F8800C62FE02F2D08803A9F3E0318CC2FCD2F47
:103F9800CE2F4F2F01300310AB0CAA0CA90CA80C84
:103FA800FF3E031DCF2F0130F4007408AD07031D39
:103FB800DE2FDF2FCE2FF72F20302D02031CE52F09
:103FC800E62FF22F4F2F0130F4000310A80DA90D92
:103FD800AA0DAB0DF40BE92F0130AD022D08031D1E
:103FE800F62FF72FE72F2B08A3002A08A20029088D
:083FF800A1002808A000080048
:04400E00D120FF3F7F
:00000001FF
