:020000040000FA
:060000000A128A110E280D
:10000800FE00030EF1000408F2000A08F3000A12C9
:100018008A11042A0A128A111128F701F801F90134
:1000280083120313C201C301C401C501C601C7017C
:10003800C801C90183010A128A11322983120313E4
:10004800A901A31F282829283628A009A109A2093F
:10005800A309A00A0319A10A0319A20A0319A30AEA
:10006800A901A90AA71F39283A284928A409A509D6
:10007800A609A709A40A0319A50A0319A60A0319B8
:10008800A70A0130F4007408A9060030AD0000305A
:10009800AC000030AB000030AA0023082204210481
:1000A8002004031958285928A628A801A80A69284D
:1000B8000130F4000310A00DA10DA20DA30DF40B47
:1000C8005E280130F4007408A807A31F6C286D2867
:1000D8005C280130F4000310AA0DAB0DAC0DAD0D7A
:1000E800F40B6F2823082702031D84282208260200
:1000F800031D842821082502031D842820082402C2
:10010800031C8728882897282008A4022108031C94
:10011800210FA5022208031C220FA6022308031C94
:10012800230FA7022A1401300310A30CA20CA10C60
:10013800A00CFF3E031D98280130A802031DA52826
:10014800A6286D2829080319AA28AB28B628AA09C1
:10015800AB09AC09AD09AA0A0319AB0A0319AC0A21
:100168000319AD0A2D08A3002C08A2002B08A10032
:100178002A08A000080083160313181398161812EB
:10018800181183160317871183120313981718166B
:100198002E08B2002F08B3003008B4003108B500AB
:1001A80006300310B20DB30DB40DB50DFF3E031D9F
:1001B800D5283508A3003408A2003308A100320866
:1001C800A0002E08B6002F08B7003008B800310884
:1001D800B90006300310B60DB70DB80DB90DFF3EC6
:1001E800031DEE280030BA001230BB007A30BC0084
:1001F8000030BD003608BA023708031C370F05293E
:100208000629BB023808031C380F0B290C29BC022D
:100218003908031C390F11291229BD023D08A7000E
:100228003C08A6003B08A5003A08A4000A128A1157
:1002380022200A128A11831203132308C1002208FC
:10024800C0002108BF002008BE003E088316031323
:1002580099008B170B178C160C1608000A128A11B6
:1002680090220A128A117030831603138F043230D9
:100278008312A4000030A5000A128A114F220A1224
:100288008A11831203132408F6007608C20033305B
:10029800A4000030A5000A128A114F220A128A11FE
:1002A800831203132408F6007608C3003430A40030
:1002B8000030A5000A128A114F220A128A118312ED
:1002C80003132408F6007608C4003530A400003073
:1002D800A5000A128A114F220A128A1183120313E7
:1002E8002408F6007608C5003630A4000030A500C2
:1002F8000A128A114F220A128A1183120313240840
:10030800F6007608C6003730A4000030A5000A12AF
:100318008A114F220A128A11831203132408F60045
:100328007608C700440886003B290A128A110E285D
:10033800003083120313AB000030AA000030A9007C
:100348000030A80023082204210420040319AD2941
:10035800AE29FB29AC01AC0ABE290130F400031018
:10036800A00DA10DA20DA30DF40BB3290130F400CB
:100378007408AC07A31FC129C229B1290130F400B0
:100388000310A80DA90DAA0DAB0DF40BC429230861
:100398002702031DD92922082602031DD92921086D
:1003A8002502031DD92920082402031CDC29DD2984
:1003B800EC292008A4022108031C210FA502220809
:1003C800031C220FA6022308031C230FA7022814CC
:1003D80001300310A30CA20CA10CA00CFF3E031DBE
:1003E800ED290130AC02031DFA29FB29C2292B088B
:1003F800A3002A08A2002908A1002808A0000800D4
:10040800831203138C1E092A0A2A2C2A1A08F000C0
:100418007008F90002307906031D132A142A172AD6
:1004280005140130860003307906031D1C2A1D2A95
:100438001E2A051004307906031D232A242A252A9A
:10044800851405307906031D2A2A2B2A2C2A8510A3
:100458000C1E2F2A302A462A7708423E840083132E
:1004680000089900053077067804031D3C2A3D2AC8
:10047800402AF701F801462A0130F7070318F80A5D
:100488000030F80773088A0072088400710E830030
:10049800FE0E7E0E09000A128A11B8230A128A116A
:1004A800A630F4000030F5000A128A11A5230A12BA
:1004B8008A11831203132508F5002408F4000A1290
:1004C8008A11A5230A128A110A128A11B8230A125C
:1004D8008A11A730F4000030F5000A128A11A5230A
:1004E8000A128A110030F400F5000A128A113F231B
:1004F8000A128A11750883120313A7007408A6004C
:100508000A128A11AF230A128A11831203132708C9
:10051800A5002608A400080083160317880183167F
:1005280003138501831203138501831603178901B9
:10053800831603138601831203138601831603139C
:100548008801831203138801831603138901831218
:10055800031389010030B1000030B0002530AF002E
:100568008030AE000A128A11BF200A128A110030A8
:1005780083120313B0000130AF008630AE00A03004
:10058800AD000A128A11D0220A128A110A128A119F
:100598000A230A128A1108002830831203139400D0
:1005A800831603139101831203132D08B1002E083B
:1005B800B2002F08B3003008B40002300310B10DA8
:1005C800B20DB30DB40DFF3E031DE22A3408A3009B
:1005D8003308A2003208A1003108A0000030A700AB
:1005E8007A30A6001230A5000030A4000A128A1141
:1005F8009C210A128A11831203132008FF3E8316D6
:1006080003139300940187150716080031308312ED
:100618000313A0000030A1000B30A2000030A3009B
:100628000A128A116E230A128A11063083120313E2
:10063800A5002F30A400A40B1F2BA50B1F2B242BC8
:100648002D3083120313A0000030A1000830A2004F
:100658000030A3000A128A116E230A128A1106308A
:1006680083120313A5002F30A400A40B392BA50B6C
:10067800392B3E2B08000A128A1198230A128A1174
:100688008316031391150A128A1198230A128A11E4
:10069800831203131308A000A1012008A200210857
:1006A800A3000A128A1198230A128A117408750481
:1006B80003195F2B632B831603139116662B83167E
:1006C800031391121116831203132308F50022084D
:1006D800F40008000A128A11B8230A128A11A630F7
:1006E800F4000030F5000A128A11A5230A128A11B3
:1006F800831203132108F5002008F4000A128A1156
:10070800A5230A128A11831203132308F50022086D
:10071800F4000A128A11A5230A128A110A128A11F0
:10072800AF230A128A1108008316031314199D2B8C
:100738009E2B982B11081F39031DA32BA42B982B34
:1007480008000A128A1198230A128A11740883125F
:100758000313930008000A128A1198230A128A11B7
:1007680083160313111508000A128A1198230A1216
:0A0778008A11831603131114080000
:04400E00D420FF3F7C
:00000001FF
