:020000040000FA
:060000000A128A110C280F
:10000800FE00030EF8000A08F9000A128A111828DF
:100018000A128A110F28F001F101F201F301F4012B
:1000280083010A128A1199280B1C1B281C285028A6
:1000380083120313061C2128222836287408013E3F
:10004800F5007508F4000B100230F7000430F600D4
:10005800BA30F500F50B2E28F60B2E28F70B2E28B4
:10006800000037280B1083120313861C3C283D28F8
:1000780050287408FF3EF5007508F4000B10023094
:10008800F7000430F600BA30F500F50B4928F60BF6
:100098004928F70B49280000831203139F18552895
:1000A800562859280C130F30860079088A00780ED4
:1000B8008300FE0E7E0E09000130831603178800A8
:1000C8008901013083160313850083120313850108
:1000D80003308316031386008312031386018316E5
:1000E80003138701831203138701831603138801FF
:1000F80083120313880183160313890183120313E0
:100108008901C9308B0003308316031396004030F1
:10011800831203138C004030831603138C009F0155
:10012800C130831203139F0008000A128A1160204D
:0C0138000A128A119E280A128A110C2853
:04400E00D720FF3F79
:00000001FF
