:020000040000FA
:060000000A128A1110280B
:10000800FE00030E83120313B3000408B4000A08A9
:10001800B5000A128A1190280A128A11132883132C
:100028003030FD000130FE004C30FF0020308400ED
:100038000A128A113D210A128A11F901FA01FB01FB
:10004800FC0183010A128A112029F601F11F2D28CB
:100058002E283528F009F109F00A0319F10AF601EA
:10006800F60AF31F382839284228F209F309F20A58
:100078000319F30A0130F4007408F606F701F801D1
:1000880070087104031949284A288128F501F50ADE
:10009800582801300310F00DF10DFF3E031D4E28C6
:1000A8000130F4007408F507F11F5B285C284D281F
:1000B80001300310F70DF80DFF3E031D5D28710890
:1000C8007302031D692870087202031C6C286D28CE
:1000D80074287008F2027108031CF303F302771402
:1000E80001300310F10CF00CFF3E031D75280130A0
:1000F800F502031D802881285C28760803198528C5
:1001080086288B28F709F809F70A0319F80A7808E6
:10011800F1007708F00008009F1893289428BF285A
:100128001E08B0003008FB001030F0000030F1006D
:100138007B08B000B1013008F2003108F3000A1260
:100148008A1129200A128A11700883120313B20037
:100158003208FB007B08203E8400831300088700D8
:100168000F3083120313B000B00BB828BB288312DA
:1001780003139F140C130B1CC228C328D328061C76
:10018800C628C728CC280130B0003008FC070B105F
:10019800861CCF28D028D3280130FC020B100B1D59
:1001A800D628D728DC280130B0003008F9070B1111
:1001B80035088A0034088400330E8300FE0E7E0E54
:1001C800090001308316031788008901013083165E
:1001D8000313850083120313850103308316031369
:1001E8008600831203138601831603138701831283
:1001F80003138701831603138801831203138801ED
:10020800831603138901831203138901E8308B00D5
:100218000330831603139600831203138C014030B6
:10022800831603138C009F018130831203139F00F0
:1002380083160313810108000A128A11E5200A12A5
:100248008A11831203130914193083120313B60099
:10025800B60B2C292F29831203139F1481017C08C4
:10026800880033290A128A1110287E088A007F081C
:1002780082000A128A1139210A128A118000840A1E
:1002880004087D0603190034FF0A0319FE0A3D29F4
:100298003F3406345B344F3466346D347D34073470
:1002A8007F34673477347C3439347E34F9347134AC
:04400E00D120FF3F7F
:00000001FF
