:020000040000FA
:060000000A128A1110280B
:10000800FE00030E83120313B3000408B4000A08A9
:10001800B5000A128A112E280A128A11132883138E
:100028003030FD000130FE007430FF0020308400C5
:100038000A128A1165210A128A110A128A11842168
:100048000A128A11FC00F901FA01FB0183010A1264
:100058008A114A299F183128322857281E08B000CB
:100068003008FA001030F0000030F1007A08B000D3
:10007800B1013008F2003108F3000A128A11A720F2
:100088000A128A11700883120313B2003208FA00A8
:100098000F3083120313B000B00B5028532883127B
:1000A80003139F140C130B1C5A285B286B28061C7F
:1000B8005E285F2864280130B0003008FB070B1069
:1000C800861C672868286B280130FB020B100B1D63
:1000D8006E286F289E280B110130B0003008FC07ED
:1000E8007A08203E840083130008870009141A3018
:1000F80083120313B100F730B000B00B8128B10BA5
:100108008128862883120313091089147A08203E4F
:1001180084008313000887001A3083120313B10088
:10012800F730B000B00B9628B10B96289B288312A5
:100138000313891035088A0034088400330E8300BD
:10014800FE0E7E0E0900F601F11FAB28AC28B3287D
:10015800F009F109F00A0319F10AF601F60AF31F8A
:10016800B628B728C028F209F309F20A0319F30AD6
:100178000130F4007408F606F701F80170087104FC
:100188000319C728C828FF28F501F50AD628013021
:100198000310F00DF10DFF3E031DCC280130F400D3
:1001A8007408F507F11FD928DA28CB280130031085
:1001B800F70DF80DFF3E031DDB2871087302031DC0
:1001C800E72870087202031CEA28EB28F228700856
:1001D800F2027108031CF303F302771401300310D1
:1001E800F10CF00CFF3E031DF3280130F502031D4E
:1001F800FE28FF28DA287608031903290429092983
:10020800F709F809F70A0319F80A7808F1007708D6
:10021800F0000800013083160317880089010130B7
:100228008316031385008312031385010330831695
:1002380003138600831203138601831603138701B1
:100248008312031387018316031388018312031390
:100258008801831603138901831203138901E83087
:100268008B000330831603139600831203138C014B
:100278004030831603138C009F01813083120313CF
:100288009F00043083160313810008000A128A11A4
:100298000E210A128A11193083120313B600B60B05
:1002A80053295629831203139F149C3081007B081D
:1002B80088005B290A128A1110287E088A007F08A4
:1002C80082000A128A1161210A128A118000840AA6
:1002D80004087D0603190034FF0A0319FE0A65297C
:1002E8003F3406345B344F3466346D347D34073420
:1002F8007F34673477347C3439347E34F93471345C
:02030800C834F7
:04400E00D120FF3F7F
:00000001FF
