:020000040000FA
:060000000A128A110E280D
:10000800FE00030EF8000408F9000A08FA000A12B4
:100018008A11DF280A128A11112883133030FD0053
:100028000130FE002030FF00203084000A128A11BF
:1000380011210A128A11F001F101F201F301F40110
:10004800F50183010A128A11BF28013083160317AC
:100058008800890101308316031385008312031376
:100068008501033083160313860083120313860168
:10007800831603138701831203138701831603135F
:1000880088018312031388018316031389018312DD
:1000980003138901E8308B0003308316031396009D
:1000A800831203138C014030831603138C009F01C5
:1000B8008130831203139F000530831603138100D8
:1000C80008000B1D68286928982883120313091C47
:1000D8006E286F28802809107208203E8400831338
:1000E8000008870089141530F700C630F600F60BB3
:1000F8007B28F70B7B28000083120313891C8528B3
:100108008628972889107308203E840083130008E6
:10011800870009141530F700C630F600F60B922850
:10012800F70B922800000B110800831203139F1885
:100138009E289F28BE281E08F6007608F4001E0890
:10014800F60004300310F60CFF3E031DA6287608BF
:100158000F39F7007708F3001E080F39F600760804
:10016800F2001030F600F60BB728000083120313D4
:100178009F140C1308000A128A1129200A128A11E6
:100188008312031389141030FB00FB0BC9280000ED
:10019800831203139F14810175088800740875027F
:1001A800031CD728D828DA280911D0280915D028FF
:1001B8000A128A110E280A128A11F7200A128A11C5
:1001C8000A128A1199200A128A110A128A116520C4
:1001D8000A128A117A088A0079088400780E830046
:1001E800FE0E7E0E09000B1CFA28FB280C29831230
:1001F8000313061C0029012905290130F600760899
:10020800F507861C082909290B290130F5020B106E
:1002180008007E088A007F0882000A128A110D21D0
:100228000A128A118000840A04087D060319003422
:10023800FF0A0319FE0A11293F3406345B344F3490
:1002480066346D347D3407347F34673477347C34D6
:0802580039345E34F9347134CD
:04400E00D120FF3F7F
:00000001FF
