:020000040000FA
:060000000A128A110E280D
:10000800FE00030EF9000408FA000A08FB000A12B1
:100018008A11D8280A128A11112883133030FD005A
:100028000130FE001930FF00203084000A128A11C6
:100038000A210A128A11F001F101F201F301F40117
:10004800F501F60183010A128A11C02801308316CE
:100058000317880089010130831603138500831272
:1000680003138501033083160313860083120313D9
:1000780086018316031387018312031387018316EE
:10008800031388018312031388018316031389015C
:10009800831203138901E8308B000330831603139E
:1000A8009600831203138C014030831603138C00CF
:1000B8009F018130831203139F00053083160313B9
:1000C800810008000B1D69286A28992883120313E8
:1000D800091C6F287028812809107308203E8400A5
:1000E80083130008870089141530F800C630F7001C
:1000F800F70B7C28F80B7C28000083120313891C5B
:1001080086288728982889107408203E840083133D
:100118000008870009141530F800C630F700F70BFF
:100128009328F80B932800000B110800831203137F
:100138009F189F28A028BF281E08F7007708F500F9
:100148001E08F70004300310F70CFF3E031DA72814
:1001580077080F39F8007808F4001E080F39F700FF
:100168007708F3001030F700F70BB8280000831267
:1001780003139F140C1308000A128A112A200A126A
:100188008A118312031389141030FC00FC0BCA284F
:100198000000831203139F14810176088800091157
:1001A800D1280A128A110E280A128A11F0200A127E
:1001B8008A110A128A119A200A128A110A128A11BD
:1001C80066200A128A117B088A007A088400790E50
:1001D8008300FE0E7E0E09000B1CF328F428052967
:1001E80083120313061CF928FA28FE280130F700A9
:1001F8007708F607861C0129022904290130F6022E
:100208000B1008007E088A007F0882000A128A11F3
:1002180006210A128A118000840A04087D0603193F
:100228000034FF0A0319FE0A0A293F3406345B34F6
:100238004F3466346D347D3407347F346734773413
:0A0248007C3439345E34F93471342B
:04400E00D120FF3F7F
:00000001FF
