:020000040000FA
:060000000A128A110C280F
:10000800FE00030EF1000A08F2000A128A114E28B7
:100018000A128A110F28F301F40183010A128A11C6
:10002800832801308316031788008901013083165D
:10003800031385008312031385010330831603130A
:100048008600831203138601831603138701831224
:10005800031387018316031388018312031388018E
:10006800831603138901831203138901C9308B0096
:1000780003308316031396004030831203138C0059
:100088004030831603138C009F01813083120313C1
:100098009F000800831203130C1F53285428642858
:1000A8009F185728582864281E08F0007008F30085
:1000B8000D30F000F00B5E28831203139F140C130D
:1000C8000B1C672868287C288B1D6B286C287C28CB
:1000D800061C6F28702875280130F0007008F40796
:1000E8000B10861C782879287C280130F4020B1024
:1000F80072088A00710E8300FE0E7E0E09000A1235
:100108008A1115200A128A1183120313091473081D
:0E0118008800740887008B280A128A110C28B0
:04400E00D120FF3F7F
:00000001FF
