:020000040000FA
:060000000A128A110C280F
:10000800FE00030EF1000A08F2000A128A114D28B8
:100018000A128A110F28F601F70183010A128A11C0
:100028007D28013083160317880089010130831663
:10003800031385008312031385010330831603130A
:100048008600831203138601831603138701831224
:10005800031387018316031388018312031388018E
:10006800831603138901831203138901C8308B0097
:100078000330831603139600831203138C01403058
:10008800831603138C009F018130831203139F0092
:100098000800831203131E08F0007008F6007608A3
:1000A80088009F185828592862281030F000F00B53
:1000B8005B280000831203139F140C130B1C652884
:1000C80066287628061C69286A286F280130F000FF
:1000D8007008F7070B10861C7228732876280130E1
:1000E800F7020B1072088A00710E8300FE0E7E0E56
:1000F80009000A128A1115200A128A111A30F3000F
:10010800F30B84280000831203139F1477088312CB
:10011800031387000230F5000430F400BA30F3000E
:10012800F30B9428F40B9428F50B942800008A28E4
:060138000A128A110C28D6
:04400E00D120FF3F7F
:00000001FF
