:020000040000FA
:060000000A128A110C280F
:10000800FE00030EF1000A08F2000A128A111528F0
:100018000A128A110F28F401F50183010A128A11C4
:100028006A280B1C182819282A2883120313061C6F
:100038001E281F2823280130F0007008F507861CA9
:100048002628272829280130F5020B1083120313CC
:100058008C1D2F28302840288316031314183528A0
:1000680036283C28831203131308F0007008F400A4
:100078007508831293008C1172088A00710E830030
:10008800FE0E7E0E090001308316031788008901D1
:100098000130831603138500831203138501831629
:1000A800031388018312031388018316031389013C
:1000B8008312031389010A128A1190200A128A11E5
:1000C8000A128A117D200A128A1108000A128A115E
:1000D80047200A128A111030F300F30B7128000030
:1000E800831203139F147508880077280A128A114F
:1000F8000C2883160313871587128516243083125C
:1001080003139400831603139401831203138C11B1
:10011800831603138C1508008B178B150B10831689
:080128000313161496140800DD
:04400E00D120FF3F7F
:00000001FF
