:020000040000FA
:060000000A128A110C280F
:10000800FE00030EF1000A08F2000A128A113D28C8
:100018000A128A110F28F30183010A128A116C2827
:1000280001308316031788008901013083160313F2
:100038008500831203138501831603138701831236
:10004800031387018316031388018312031388019E
:100058008316031389018312031389010A128A1173
:1000680079200A128A110A128A1159200A128A1151
:1000780008000B1C40284128522883120313061C31
:10008800462847284B280130F0007008F307861CE3
:100098004E284F2851280130F3020B1072088A00AD
:1000A800710E8300FE0E7E0E09008316031387155A
:1000B80087128516243083120313940083160313C2
:1000C8009401831203138C11831603138C150800F3
:1000D8000A128A1114200A128A1173088312031350
:1000E800880071280A128A110C288B178B150B109F
:0A00F8008316031316149614080073
:04400E00D120FF3F7F
:00000001FF
