:020000040000FA
:060000000A128A110C280F
:10000800FE00030EF2000A08F3000A168A11CD2931
:100018000A128A110F288313A0308400BE300A16F2
:100028008A1569250A128A1183010A168A11A02ED7
:100038008316031352085104500403192428252851
:10004800B528500883120313C700831603135108F9
:1000580083120313C8008316031352088312031371
:10006800C9000A128A1528200A128A11831203135A
:100078004A08490448044704031D43284428B5286E
:10008800831603134F08803AFF0080307F02031D58
:100098004F2802304E02031C52285328B5288316D5
:1000A80003134608F4004708F5004808F6007030C6
:1000B800F7008930F8004030F9000A168A1502273F
:1000C8000A128A11031869286A287328F7308316D8
:1000D8000313CE070318CF0AFF30CF077B28F83069
:1000E80083160313CE070318CF0AFF30CF074E0835
:1000F8000A128A155D220A128A11831203133E0816
:1001080083160313C600831203133F0883160313D1
:10011800C70083120313400883160313C80050084E
:10012800F4005108F5005208F6004608F7004708A1
:10013800F8004808F9000A168A1181230A128A1160
:10014800770883160313CD007608CC007508CB001A
:100158007408CA000030D0000030D1000030D2004E
:10016800322983160313500883120313C70083161A
:100178000313510883120313C8008316031352088C
:1001880083120313C9000A128A1528200A128A1139
:10019800831203134A0883160313CD008312031333
:1001A800490883160313CC008312031348088316E7
:1001B8000313CB0083120313470883160313CA00E3
:1001C8004D0883120313A600831603134C088312E9
:1001D8000313A500831603134B0883120313A4000B
:1001E800831603134A0883120313A3000A168A15F9
:1001F800CF260A128A11831203132308DB0024086E
:10020800DC002508DD00831603135008831203134E
:10021800DE0083160313510883120313DF008316CD
:100228000313520883120313E0000A168A150B26DB
:100238000A128A11831203135B0883160313D00072
:10024800831203135C0883160313D100831203136C
:100258005D0883160313D200CE01CF01D601D60A5A
:10026800560883120313EA0001300310EA0DFF3E1B
:10027800031D392903106A0D4F3E84000A168A119E
:100288000A200A128A11EB000A168A110A200A1299
:100298008A11EC000A168A110A200A128A11ED0046
:1002A8000A168A110A200A128A11EE006E088316AD
:1002B80003134D02031D7629831203136D08831659
:1002C80003134C02031D7629831203136C0883164B
:1002D80003134B02031D7629831203136B0883163D
:1002E80003134A02031879297A297B2989290130BD
:1002F80083120313EA006A0883160313D6070A3029
:100308005606031D8829892934295608540783125B
:100318000313EA008316031355080318550A8312BA
:100328000313EB00831603134E08831203136A07A3
:10033800EC00831603134F0803184F0A83120313A4
:100348006B07ED006C0883160313C40283120313B2
:100358006D0883160313031CC503C502540855040E
:100368000319B729B829BE29FF30C4070318C50ADD
:10037800FF30C5070330420583120313EA0000303B
:1003880083160313430583120313EB006A086B04F7
:100398000319CF29D029ED29FF3083160313C40789
:1003A8000318C50AFF30C507ED292030831203134F
:1003B800EA008316031353088400831203136A08A0
:1003C800831380000130EA006A0883160313D307F9
:1003D800D029831603134508803AFF0080307F0236
:1003E800031DF829013044020318FB29FC29D929E7
:1003F800033083160313420583120313EA00003007
:1004080083160313430583120313EB006A086B0476
:1004180003190F2A102AD02A2D30EA008316031355
:1004280053088400831203136A0883138000013081
:10043800EA006A0883160313D307D02A56088312E2
:100448000313EA0001300310EA0DFF3E031D272ABB
:1004580003106A0D4F3E84000A168A110A200A12F8
:100468008A11A0000A168A110A200A128A11A1000C
:100478000A168A110A200A128A11A2000A168A117B
:100488000A200A128A11A300831603134D08831247
:100498000313A700831603134C0883120313A60043
:1004A800831603134B0883120313A5008316031343
:1004B8004A0883120313A4000A168A112E220A126C
:1004C8008A1183120313230883160313C9008312A6
:1004D8000313220883160313C80083120313210889
:1004E80083160313C700831203132008831603130C
:1004F800C600003083120313AB000030AA0000309E
:10050800A9000A30A80083160313490883120313AD
:10051800AF0083160313480883120313AE00831633
:100528000313470883120313AD0083160313460809
:1005380083120313AC000A168A111C210A128A11AD
:10054800831203132B0883160313C90083120313A2
:100558002A0883160313C800831203132908831675
:100568000313C70083120313280883160313C60056
:100578004608303E83120313EA0083160313530818
:100588008400831203136A08831380000130EA0091
:100598006A0883160313D307013083160313D602A0
:1005A800560A031DD82AD92A222AF32A3030831260
:1005B8000313EA00831603135308840083120313FA
:1005C8006A08831380000130EA006A08831603135F
:1005D800D307FF30CE070318CF0AFF30CF074F08E5
:1005E800803AFF0080307F02031DFC2A01304E0252
:1005F8000318FF2A002BDA2A831603135508803ABA
:10060800FF0080307F02031D0B2B09305402031CAE
:100618000E2B0F2B182B083083120313EA006A08DD
:1006280083160313D600222B831603135408831250
:100638000313EA006A0883160313D60056088312C8
:100648000313EA00EB016A0883160313D40283122A
:1006580003136B0883160313031CD503D50256082E
:100668000319372B382B4B2B2E3083120313EA0038
:100678008316031353088400831203136A08831331
:1006880080000130EA006A0883160313D30756086E
:100698000A128A155D220A128A11831203133E0870
:1006A80083160313BE00831203133F088316031334
:1006B800BF0083120313400883160313C0003E08CB
:1006C80083120313B100831603133F088312031325
:1006D800B20083160313400883120313B300831672
:1006E8000313500883120313AE0083160313510833
:1006F80083120313AF0083160313520883120313E4
:10070800B0000A128A1116270A128A1183120313DB
:100718002E08C7002F08C8003008C9000A128A1519
:1007280028200A128A11831203134A088316031316
:10073800CD0083120313490883160313CC008312D8
:100748000313480883160313CB00831203134708C7
:1007580083160313CA00B92C560883120313EA0040
:1007680001300310EA0DFF3E031DB52B03106A0D7F
:100778004F3E84000A168A110A200A128A11A00024
:100788000A168A110A200A128A11A1000A168A1169
:100798000A200A128A11A2000A168A110A200A12CD
:1007A8008A11A300831603134D0883120313A700AD
:1007B800831603134C0883120313A600831603132E
:1007C8004B0883120313A500831603134A088312E8
:1007D8000313A4000A168A112E220A128A11831200
:1007E8000313230883160313C90083120313220873
:1007F80083160313C80083120313210883160313F7
:10080800C70083120313200883160313C6000030A1
:1008180083120313AB000030AA000030A9000A308D
:10082800A80083160313490883120313AF00831625
:100838000313480883120313AE00831603134708F3
:1008480083120313AD0083160313460883120313A0
:10085800AC000A168A111C210A128A11831203138A
:100868002B0883160313C900831203132A0883165F
:100878000313C80083120313290883160313C70040
:1008880083120313280883160313C6004608303E54
:1008980083120313EA008316031353088400831298
:1008A80003136A08831380000130EA006A0883167C
:1008B8000313D307560883120313EA000130031009
:1008C800EA0DFF3E031D632C03106A0D4F3E8400A2
:1008D8000A168A110A200A128A11A8000A168A1111
:1008E8000A200A128A11A9000A168A110A200A1275
:1008F8008A11AA000A168A110A200A128A11AB0064
:10090800831603134D0883120313AF0083160313D2
:100918004C0883120313AE00831603134B0883128B
:100928000313AD00831603134A0883120313AC00A4
:100938000A168A111C210A128A11831203132B0822
:1009480083160313CD00831203132A088316031397
:10095800CC0083120313290883160313CB008312D8
:100968000313280883160313CA000130D602560A57
:10097800031DBF2CC02CB02BDA2C3030831203138C
:10098800EA008316031353088400831203136A08CA
:10099800831380000130EA006A0883160313D30723
:1009A800FF30D4070318D50AFF30D507540855047B
:1009B800031DDF2CE02CC12CF82E831603134108ED
:1009C80084008313000883120313EA00840A0008D2
:1009D800EB006A0883160313CA00831203136B081B
:1009E80083160313CB000030CB1BFF30CC00CD00A7
:1009F800023083120313EA006A0883160313C1073F
:100A0800CD1F072D082D172D0330C2040030C30455
:100A1800CA09CB09CC09CD09CA0A0319CB0A03199B
:100A2800CC0A0319CD0A54085504031D1C2D1D2D8D
:100A38002B2D4D084C044B044A04031D242D252D51
:100A48002B2D0130D4070318D50A0030D507D6015D
:100A5800D60A560883120313EA0001300310EA0D80
:100A6800FF3E031D322D03106A0D4F3E84000A1607
:100A78008A110A200A128A11EB000A168A110A2022
:100A88000A128A11EC000A168A110A200A128A111F
:100A9800ED000A168A110A200A128A11EE006E0861
:100AA800831603134D02031D6F2D831203136D0864
:100AB800831603134C02031D6F2D831203136C0856
:100AC800831603134B02031D6F2D831203136B0848
:100AD800831603134A020318722D732D742D822D69
:100AE800013083120313EA006A0883160313D6073A
:100AF8000A305606031D812D822D2D2D5508803A6A
:100B0800803C031D892D5408560203188C2D8D2D09
:100B1800982D83160313540883120313EA006A08F6
:100B280083160313D600BC2D831603135508803A89
:100B380083120313EA0080306A02031DA72D83166F
:100B48000313560854020318AA2DAB2DBC2D831687
:100B58000313560883120313EA00EB016A0883168D
:100B68000313D400831203136B0883160313D500F1
:100B780083160313440845040319C32DC42DDE2D21
:100B88000330420583120313EA000030831603136F
:100B9800430583120313EB006A086B040319D52D70
:100BA800D62DDE2DFF3083160313C4070318C50A9C
:100BB800FF30C50783160313431FE32DE42D072ECB
:100BC8005508803A83120313EA0083160313450875
:100BD800803A831203136A02031DF62D831603134A
:100BE800440854020318F92DFA2D032E8316031313
:100BF8005408C4025508031CC503C502072E8316F2
:100C08000313C401C5014508803A803C031D0E2E1C
:100C1800440856020318112E122E262E831603138B
:100C2800560883120313EA00EB016A0883160313BC
:100C3800C402831203136B0883160313031CC50332
:100C4800C5022A2E83160313C401C50144084504AE
:100C580003192F2E302E4F2E203083120313EA0053
:100C68008316031353088400831203136A0883133B
:100C780080000130EA006A0883160313D307FF30A7
:100C8800C4070318C50AFF30C50744084504031DF7
:100C98004E2E4F2E302E0330420583120313EA00E6
:100CA800003083160313430583120313EB006A080D
:100CB8006B040319602E612EE82E2D30EA0083168E
:100CC800031353088400831203136A0883138000F4
:100CD8000130EA006A0883160313D307E82E0030B0
:100CE80083120313AB000030AA000030A9000A30B9
:100CF800A80083160313540883120313EA00013073
:100D08000310EA0DFF3E031D842E03106A0D4F3EAB
:100D180084000A168A110A200A128A11A0000A16EB
:100D28008A110A200A128A11A1000A168A110A20B9
:100D38000A128A11A2000A168A110A200A128A11B6
:100D4800A300831603134D0883120313A700831609
:100D580003134C0883120313A600831603134B08CE
:100D680083120313A500831603134A08831203137F
:100D7800A4000A168A112E220A128A11831203135A
:100D88002308AF002208AE002108AD002008AC00FF
:100D98000A168A111C210A128A11831203132808C1
:100DA800303EEB006B0883160313D60056088312F7
:100DB8000313EA00831603135308840083120313F2
:100DC8006A08831380006C2EFF3083160313D40740
:100DD8000318D50AFF30D507540A031DF72E550A04
:100DE800031DF72EF82E732E01308312E107FF3012
:100DF800610784000A168A110A200A128A11EA0079
:100E08006A0883160313D6005608031D0C2F0F2FEC
:100E18000A128A15262D8316031353088400831398
:100E280080010800831203132E08B4002F08B500B0
:100E38003008B6000310350D360DB7003708B80076
:100E48003808031D282F292F302F0030AE0000301E
:100E5800AF000030B000FA2F3108B4003208B500F6
:100E68003308B6000310350D360DB7003708BD003E
:100E78003D08031D402F412F482F0030AE000030A1
:100E8800AF000030B000FA2F3D087B3EB4003408B4
:100E9800B8072E08B4002F08B5003008B600103087
:100EA8000310B60CB50CB40CFF3E031D542F3408C8
:100EB800B7003708BD003108B4003208B500330860
:100EC800B60010300310B60CB50CB40CFF3E031D71
:100ED800662F3408B7003708BD068030B4003408E0
:100EE800BD05AF17B217FF30B105FF30B2050030AE
:100EF800B3050030B9000030BA000030BB0007303D
:100F0800B4003408BC002E1C8A2F8B2F9B2F31086D
:100F1800B907320803110318320A0319942FBA07C4
:100F2800330803110318330A03199B2FBB07013039
:100F38000310B00CAF0CAE0CFF3E031D9C2F01300C
:100F48000310B10DB20DB30DFF3E031DA42F0130E8
:100F5800BC02031DB02FB12F872F0930B40034080D
:100F6800BC002E1CB82FB92FC92F3108B907320879
:100F780003110318320A0319C22FBA0733080311E1
:100F88000318330A0319C92FBB0701300310B00C2B
:100F9800AF0CAE0CFF3E031DCA2F01300310BB0C73
:100FA800BA0CB90CFF3E031DD22F0130BC02031D41
:100FB800DE2FDF2FB52F3908F4003A08F5003B087B
:100FC800F6003808B4003408F7003D08B5003508C5
:100FD800F8000A168A11FF220A128A11740883126D
:100FE8000313AE007508AF007608B00008000C3097
:100FF800831603139900080003308316031788002B
:1010080089010330831603138500831203138501B6
:1010180083160313870183120313870183160313AF
:10102800880183120313880183160313890183122D
:10103800031389010A168A15A2250A128A15C330D4
:10104800831203139F050800831203134708CB007C
:101058004808CC004908CD0003104C0D4D0DCE00BA
:101068004E08D4005408031D3A283B284428003071
:10107800CA000030C9000030C8000030C700B328DB
:101088004708CB004808CC004908CD0017300310AA
:10109800CD0CCC0CCB0CFF3E031D4B284B08CE00CF
:1010A8004E08CF00C817FF30C705FF30C80500300D
:1010B800C9054708D0004808D1004908D200D30123
:1010C8008E30D402D41F69286A2884285408803AAC
:1010D8008F3E03187028712872283B2801300310AE
:1010E800D30CD20CD10CD00CFF3E031D7328013059
:1010F800CB004B08D407031D8228832872289B281D
:1011080018305402031C89288A2896283B28013065
:10111800CB000310D00DD10DD20DD30DCB0B8D28E4
:101128000130D4025408031D9A289B288B284F08A5
:1011380003199F28A028AB28D009D109D209D309BF
:10114800D00A0319D10A0319D20A0319D30A53087A
:10115800CA005208C9005108C8005008C700080052
:1011680083120313CD006E304D02031CBC28BD282A
:101178009A290330C1004108AA004D08C200C301E2
:101188004208F6004308F7006430F4000030F50028
:101198000A168A153A270A128A1575088312031344
:1011A800A3007408A2000A30A0000030A1000A16AB
:1011B8008A15BA270A128A158312031320080A16F9
:1011C8008A15B6250A128A15433E84000A168A1122
:1011D8000A200A128A1583120313AE000A168A110E
:1011E8000A200A128A15AF000A168A110A200A1262
:1011F8008A15B0000330C4004408AA004D08C50091
:10120800C6014508A2004608A3006430A0000030CB
:10121800A1000A168A15BA270A128A15831203131F
:1012280020080A168A15B6250A128A155E3E840019
:101238000A168A110A200A128A1583120313B100AA
:101248000A168A110A200A128A15B2000A168A1189
:101258000A200A128A15B3000A128A1116270A12DE
:101268008A15831203132E08CA002F08CB003008F2
:10127800CC000330C1004108AA004D08C200C301D8
:101288004208F6004308F7000A30F4000030F50081
:101298000A168A153A270A128A1574080A168A1530
:1012A800B6250A128A15283E84000A168A110A20D1
:1012B8000A128A1583120313AE000A168A110A202D
:1012C8000A128A15AF000A168A110A200A128A150C
:1012D800B0004A08B1004B08B2004C08B3000A122B
:1012E8008A1116270A128A15831203132E08C700BB
:1012F8002F08C8003008C9000030AE000030AF0029
:101308003F30B0004708B1004808B2004908B300B0
:101318000A128A1116270A128A15831203132E0835
:10132800BE002F08BF003008C0005C2A0B304D02F9
:10133800031C9F29A029292A0330C1004108AA00BB
:101348004D08C200C3014208F6004308F7000A30FE
:10135800F4000030F5000A168A153A270A128A1591
:1013680074080A168A15B6250A128A15283E8400BA
:101378000A168A110A200A128A1583120313AE006C
:101388000A168A110A200A128A15AF000A168A114B
:101398000A200A128A15B0000330C4004408AA00C3
:1013A8004D08C500C6014508A2004608A3000A303A
:1013B800A0000030A1000A168A15BA270A128A1559
:1013C8008312031320080A168A15B6250A128A15ED
:1013D800433E84000A168A110A200A128A158312CB
:1013E8000313B1000A168A110A200A128A15B200DC
:1013F8000A168A110A200A128A15B3000A128A11DB
:1014080016270A128A15831203132E08CA002F08FA
:10141800CB003008CC000030AE000030AF003F30C9
:10142800B0004A08B1004B08B2004C08B3000A12D9
:101438008A1116270A128A15831203132E08BE0072
:101448002F08BF003008C0005C2A0030AE00003012
:10145800AF003F30B0000330C1004108AA004D087A
:101468000A168A15B6250A128A15283E84000A1615
:101478008A110A200A128A1583120313B1000A1668
:101488008A110A200A128A15B2000A168A110A203D
:101498000A128A15B3000A128A1116270A128A1527
:1014A800831203132E08BE002F08BF003008C000A7
:1014B800080083120313C600C61F632A642ABF2BC1
:1014C800C609C60A4608803A123E031C6C2A6D2AD1
:1014D8002B2B0330C1004108AA004608F600F7018B
:1014E800F61BF7036430F4000030F5000A168A1181
:1014F80072210A128A15750883120313A50074084D
:10150800A4000A30A2000030A3000A168A1196220D
:101518000A128A158312031322080A168A15B62599
:101528000A128A15433E84000A168A110A200A12F2
:101538008A1583120313AE000A168A110A200A12AA
:101548008A15AF000A168A110A200A128A15B000F5
:101558000330C2004208AA004608A400A501A41B43
:10156800A5036430A2000030A3000A168A1196224F
:101578000A128A158312031322080A168A15B62539
:101588000A128A155E3E84000A168A110A200A1277
:101598008A1583120313B1000A168A110A200A1247
:1015A8008A15B2000A168A110A200A128A15B3008F
:1015B8000A128A1116270A128A15831203132E0893
:1015C800C3002F08C4003008C5000330C10041081B
:1015D800AA004608F600F701F61BF7030A30F400E4
:1015E8000030F5000A168A1172210A128A15740849
:1015F8000A168A15B6250A128A15283E84000A1684
:101608008A110A200A128A1583120313AE000A16D9
:101618008A110A200A128A15AF000A168A110A20AE
:101628000A128A15B0004308B1004408B200450800
:10163800B3000A128A1116270A128A158312031395
:101648002E08BE002F08BF003008C000172D46081E
:10165800803A753E031C312B322B9E2B0330C10080
:101668004108AA004608F600F701F61BF7030A30FE
:10167800F4000030F5000A168A1172210A128A1540
:1016880074080A168A15B6250A128A15283E840097
:101698000A168A110A200A128A1583120313AE0049
:1016A8000A168A110A200A128A15AF000A168A1128
:1016B8000A200A128A15B0000330C2004208AA00A4
:1016C8004608A400A501A41BA5030A30A200003007
:1016D800A3000A168A1196220A128A158312031386
:1016E80022080A168A15B6250A128A15433E84006E
:1016F8000A168A110A200A128A1583120313B100E6
:101708000A168A110A200A128A15B2000A168A11C4
:101718000A200A128A15B3000A128A1116270A1219
:101728008A15831203132E08BE002F08BF00300845
:10173800C000172D0330C1004108AA0046080A1648
:101748008A15B6250A128A15283E84000A168A11B7
:101758000A200A128A1583120313BE000A168A1178
:101768000A200A128A15BF000A168A110A200A12CC
:101778008A15C000172D4608803A123E031CC52B57
:10178800C62B842C0330C1004108AA004608F60085
:10179800F701F61BF7036430F4000030F5000A1671
:1017A8008A1172210A128A15750883120313A5007B
:1017B8007408A4000A30A2000030A3000A168A1197
:1017C80096220A128A158312031322080A168A150A
:1017D800B6250A128A151C3E84000A168A110A20A8
:1017E8000A128A1583120313AE000A168A110A20F8
:1017F8000A128A15AF000A168A110A200A128A15D7
:10180800B0000330C2004208AA004608A400A5019F
:10181800A41BA5036430A2000030A3000A168A1195
:1018280096220A128A158312031322080A168A15A9
:10183800B6250A128A15373E84000A168A110A202C
:101848000A128A1583120313B1000A168A110A2094
:101858000A128A15B2000A168A110A200A128A1573
:10186800B3000A128A1116270A128A158312031363
:101878002E08C3002F08C4003008C5000330C1007B
:101888004108AA004608F600F701F61BF7030A30DC
:10189800F4000030F5000A168A1172210A128A151E
:1018A80074080A168A15B6250A128A15013E84009C
:1018B8000A168A110A200A128A1583120313AE0027
:1018C8000A168A110A200A128A15AF000A168A1106
:1018D8000A200A128A15B0004308B1004408B20071
:1018E8004508B3000A128A1116270A128A158312AC
:1018F80003132E08BE002F08BF003008C000172DA4
:101908004608803A753E031C8A2C8B2CF72C033032
:10191800C1004108AA004608F600F701F61BF703C4
:101928000A30F4000030F5000A168A1172210A12F2
:101938008A1574080A168A15B6250A128A15013EF0
:1019480084000A168A110A200A128A1583120313C0
:10195800AE000A168A110A200A128A15AF000A1662
:101968008A110A200A128A15B0000330C200420800
:10197800AA004608A400A501A41BA5030A30A200DA
:101988000030A3000A168A1196220A128A158312B9
:10199800031322080A168A15B6250A128A151C3E50
:1019A80084000A168A110A200A128A158312031360
:1019B800B1000A168A110A200A128A15B2000A16FC
:1019C8008A110A200A128A15B3000A128A111627E8
:1019D8000A128A15831203132E08BE002F08BF00AF
:1019E8003008C000172D0330C1004108AA0046087E
:1019F8000A168A15B6250A128A15013E84000A16A7
:101A08008A110A200A128A1583120313BE000A16C5
:101A18008A110A200A128A15BF000A168A110A209A
:101A28000A128A15C000080083160313D300623017
:101A380083120313EA006A0883160313C1000A120B
:101A48008A11F82E2530560603192B2D2C2D402DE2
:101A5800560883120313EA008316031353088400FD
:101A6800831203136A08831380000130EA006A08AE
:101A780083160313D307232DC401C501C201C30173
:101A880083120313610884000A168A110A200A12B5
:101A98008A150A168A11BB200A128A15031C552DAD
:101AA800562DA02D83160313C401C5010A30F40076
:101AB8000030F500831603134508F7004408F600C4
:101AC8000A168A1530260A128A1575088316031312
:101AD800C5007408C40083120313610884000A1641
:101AE8008A110A200A128A15D03EEA00FF3003182C
:101AF8000030EB006A0883160313C4070318C50AED
:101B0800831203136B0883160313C507013083126E
:101B18000313EA006A08E107610884000A168A11BB
:101B28000A200A128A150A168A11BB200A128A1577
:101B380003189F2DA02D5A2D8312031361088400CA
:101B48000A168A110A200A128A152E3A031DAD2D8B
:101B5800AE2D042E8316031343170130831203138B
:101B6800EA006A08E10783160313D401D501F22DB0
:101B78000A30F4000030F500831603135508F70007
:101B88005408F6000A168A1530260A128A157508AE
:101B980083160313D5007408D40083120313610855
:101BA80084000A168A110A200A128A15D03EEA0011
:101BB800FF3003180030EB006A0883160313D407BC
:101BC8000318D50A831203136B0883160313D5076A
:101BD800013083120313EA006A08E10783126108DF
:101BE80084000A168A110A200A128A150A168A110E
:101BF800BB200A128A150318022E032EBC2D0E2EA6
:101C080083160313D401D50143160E2E831603132E
:101C18004315342E013083120313E107FF306107A7
:101C280084000A168A110A200A128A1583160313D9
:101C3800D60083120313EA00EB016B08003A03197C
:101C4800262E232D6A08003A0319FD2F643A03193A
:101C5800342E023A03190A2E0F3A0319342E232D73
:101C6800003083160313420583120313EA0007307A
:101C780083160313430583120313EB006A086B04EE
:101C88000319472E4A2E0A128A11E12C83160313D0
:101C9800431E4F2E502E542E0630D4000030D5004F
:101CA8004108840083130008D000840A0008D1008A
:101CB800840A0008D200033083120313EA006A087A
:101CC80083160313C1075008F4005108F5005208A1
:101CD800F6000030F7000030F8000030F9000A166E
:101CE8008A1502270A128A1503187B2E7C2E952E38
:101CF800831603135008F4005108F5005208F60043
:101D08000A168A1571250A128A1574088316031390
:101D1800D0007508D1007608D2000330C204003024
:101D2800C30483160313CE01CF0152085104500493
:101D380003199F2EA02EA22FD030840083130008F1
:101D480083120313EA00840A0008EB00840A0008DF
:101D5800EC00840A0008ED000F300310ED0CEC0CC9
:101D6800EB0CEA0CFF3E031DB12EFF306A05EE00B6
:101D780000306B05EF006E08823E83160313CE0019
:101D8800831203136F080318013EFF3E83160313E3
:101D9800CF00FF30CE070318CF0AFF30CF0703303C
:101DA800F4000030F5004F08F7004E08F6000A1658
:101DB8008A1530260A128A15750883160313CF0070
:101DC8007408CE000A3083120313A2000030A30067
:101DD800831603134F0883120313A50083160313F6
:101DE8004E0883120313A4000A168A1196220A12B7
:101DF8008A1583120313230883160313CF00831253
:101E08000313220883160313CE00CF1F0C2F0D2FA8
:101E1800132FFF30CE070318CF0AFF30CF074E032A
:101E2800FF3A0A128A155D220A128A1583120313D1
:101E38003E0883160313C600831203133F08831654
:101E48000313C70083120313400883160313C80043
:101E5800500883120313AE0083160313510883122C
:101E68000313AF0083160313520883120313B00041
:101E780083160313460883120313B1008316031352
:101E8800470883120313B20083160313480883120A
:101E98000313B3000A128A1116270A128A1583122D
:101EA80003132E0883160313C600831203132F0887
:101EB80083160313C7008312031330088316031312
:101EC800C8004608F4004708F5004808F600003046
:101ED800F7008030F8003F30F9000A168A1502270B
:101EE8000A128A150318792F7A2F832FFF30831649
:101EF8000313CE070318CF0AFF30CF07A22F83168C
:101F080003134608F4004708F5004808F6000030B7
:101F1800F7002030F8004130F9000A168A15022728
:101F28000A128A15031C992F9A2FA22F01308316A3
:101F38000313CE070318CF0A0030CF078316031305
:101F48005508803AFF0080307F02031DAD2F0D3009
:101F580054020318B02FB12FEA2F83160313540825
:101F68000A128A15B4200A128A15831203133E082E
:101F7800CE003F08CF004008D00083160313500856
:101F880083120313D100831603135108831203131A
:101F9800D20083160313520883120313D3000A16C0
:101FA8008A116A250A128A15831203134E088316AA
:101FB8000313D000831203134F0883160313D100B1
:101FC80083120313500883160313D20083160313D6
:101FD8004F08803AFF0080307F02031DF52F0A303A
:101FE8004E020318FA2F0A128A111C280A128A11A3
:101FF80053280A128A110F2FFF1B0A2883137F18F0
:1020080083170008840A0319FF0A080010308A00A1
:102018000408840A82070034003480343F340034D2
:10202800203441340034C834423400347A344434DF
:1020380040341C3446345034C33447342434743464
:102048004934973418344B34BC34BE344C346B3474
:102058006E344E340334153450347934AD3460342E
:10206800F33449347134003480343F34CD34CC34C3
:102078003D34D73423343C34123483343A34B734BF
:10208800D1343834C6342734373438348634353488
:10209800C034D6343334CC342B34323470348934AD
:1020A8003034E734DB342E34E5343C341E344234E7
:1020B800A2340D3401340034003400340A340034BE
:1020C800003400346434003400340034E834033419
:1020D800003400341034273400340034A0348634FB
:1020E80001340034403442340F34003480349634A0
:1020F800983400340034E134F53405340034CA34FB
:102108009A343B345634313420342034203420344B
:1021180020345634323420342034203443344F347D
:102128004E34543420340A340034253431342E34B7
:102138003134663420342034253431342E3431346B
:10214800663420342534333464340034563431341E
:10215800203420342034563432342034203420348F
:0C216800203443344F344E3454340034DF
:10217600F500F4013A3075020318C228C328CB28AB
:1021860030307502031CC828C928CB28F401F40A8C
:10219600740C0800831203130910891000300A1604
:1021A6008A155B250A168A113430F900F130F800D9
:1021B600F80BDB28F90BDB28E02830300A168A15E5
:1021C600E8250A168A110D30F900FB30F800F80BE5
:1021D600EA28F90BEA28EF2830300A168A15E8258E
:1021E6000A168A111D30F9009130F800F80BF9280B
:1021F600F90BF92830300A168A15E8250A168A11CD
:1022060038300A168A15E8250A168A110C300A167D
:102216008A15E8250A168A1101300A168A15E82554
:102226000A168A1106300A168A15E8250A168A1130
:102236000800831203132B082A042904280403190F
:10224600252926296929B101B10A36290130B000AC
:102256000310A80DA90DAA0DAB0DB00B2B2901304B
:10226600B0003008B107AB1F39293A2929292B08B4
:102276002F02031D48292A082E02031D4829290872
:102286002D02031D482928082C02031C4B294C2922
:102296005A292808AC022908031C290FAD022A086E
:1022A600031C2A0FAE022B08031C2B0FAF020130B2
:1022B6000310AB0CAA0CA90CA80CFF3E031D5B294E
:1022C6000130B102031D682969293A292F08AB009C
:1022D6002E08AA002D08A9002C08A80008008312C1
:1022E6000313A101F71F782979298029F609F7092F
:1022F600F60A0319F70AA101A10AF51F8329842901
:102306008929F409F509F40A0319F50A740875040C
:1023160003198E298F29BE29A001A00A9D29013003
:102326000310F40DF50DFF3E031D93290130F8004F
:102336007808A007F51FA029A12992297508770218
:10234600031DA72974087602031CAA29AB29B12903
:102356007408F6027508031CF703F7020130031030
:10236600F50CF40CFF3E031DB2290130A002031D3B
:10237600BD29BE29A12921080319C229C329C829B3
:10238600F609F709F60A0319F70A7708F500760839
:10239600F4000800831203139F1CD229D4290130AC
:1023A600D5290030F0001F0CF100710C0F39003AEE
:1023B6000319DE29E0290130E129003070050038D3
:1023C6000319E629E729FC291E08F0007008831680
:1023D6000313A900831203131F08C33904389F008F
:1023E6001030F000F00BF5290000831203139F1440
:1023F6000C139F1CFF29012A0130022A0030F0002D
:102406001F0CF100710C0F39013A03190B2A0D2A22
:1024160001300E2A0030700500380319132A142AD9
:10242600272A1E08F000700883160313A800C3307D
:10243600831203139F051030F000F00B202A0000D2
:10244600831203139F140C1373088A00720E830001
:10245600FE0E7E0E09000030F8000030F700003056
:10246600F6000030F500831203132308220421042A
:10247600200403193F2A402A8D2AF901F90A502A15
:102486000130F4000310A00DA10DA20DA30DF40B55
:10249600452A0130F4007408F907A31F532A542A69
:1024A600432A0130F4000310F50DF60DF70DF80D73
:1024B600F40B562A23082702031D6B2A220826023C
:1024C600031D6B2A21082502031D6B2A20082402FE
:1024D600031C6E2A6F2A7E2A2008A4022108031CE8
:1024E600210FA5022208031C220FA6022308031CA3
:1024F600230FA702751401300310A30CA20CA10C24
:10250600A00CFF3E031D7F2A0130F902031D8C2A11
:102516008D2A542A7808A3007708A2007608A1001D
:102526007508A000080083120313A701A31F9C2AA5
:102536009D2AA42AA209A309A20A0319A30AA7018C
:10254600A70AA51FA72AA82AB12AA409A509A40A89
:102556000319A50A0130F9007908A706A801A901FF
:10256600220823040319B82AB92AF02AA601A60AC2
:10257600C72A01300310A20DA30DFF3E031DBD2A7D
:102586000130F9007908A607A31FCA2ACB2ABC2A5C
:1025960001300310A80DA90DFF3E031DCC2A230808
:1025A6002502031DD82A22082402031CDB2ADC2A62
:1025B600E32A2208A4022308031CA503A502281463
:1025C60001300310A30CA20CFF3E031DE42A0130C8
:1025D600A602031DEF2AF02ACB2A27080319F42A9C
:1025E600F52AFA2AA809A909A80A0319A90A29088D
:1025F600A3002808A200080077080319032B042B60
:102606000B2B760875047404031D0A2B0B2B202B49
:102616000030F4000030F5000030F600802B013069
:1026260083120313A0002008F70701300310F60CED
:10263600F50CF40CFF3E031D192BFE307605031D29
:10264600252B262B122B3F2B013083120313A000C0
:102656002008F7070130F407003003180130F507AA
:10266600003003180130F60701300310F60CF50CA4
:10267600F40CFF3E031D382BFF307605031D442B5B
:10268600452B272B502B0130F70201300310F40D98
:10269600F50DF60DFF3E031D492BF51B532B542B51
:1026A6005A2B023077020318592B5A2B462B7718D0
:1026B6005D2B5E2B642BFF30F4057F30F505FF3074
:1026C600F6050310F70C770883120313A000A10187
:1026D600A20110300310A00DA10DA20DFF3E031D97
:1026E6006D2B2008F4042108F5042208F604780866
:1026F60003197E2B7F2B802BF61708007408831294
:102706000313A0007508A1007608A2000310210D8E
:10271600220DA3002308A9002908031D932B942B3F
:102726009D2B0030F7000030F6000030F500003039
:10273600F4003D2C7708A0007808A1007908A200D3
:102746000310210D220DA3002308A8002808031D4D
:10275600AD2BAE2BAF2B942BF517FF30F405FF30C6
:10276600F5050030F605F817FF30F705FF30F805D8
:102776000030F9050030A7000030A6000030A500A3
:102786000030A4007F30A90298302807A000200856
:10279600A9021830A0002008A8000130A0000310EC
:1027A600A40DA50DA60DA70DA00BD22B79087602B8
:1027B600031DE32B78087502031DE32B77087402CB
:1027C600031CE62BE72BF22B7708F4027808031C90
:1027D600780FF5027908031C790AF60224140130F1
:1027E6000310F40DF50DF60DFF3E031DF32B01301E
:1027F600A802031DFF2B002CD02BA91F032C042C91
:102806001E2C2908803A973E03180A2C0B2C0C2CF8
:10281600942B01300310A70CA60CA50CA40CFF3EAC
:10282600031D0D2C0130A0002008A907031D1C2C38
:102836001D2C0C2C352C18302902031C232C242C7F
:10284600302C942B0130A0000310A40DA50DA60D6D
:10285600A70DA00B272C0130A9022908031D342C33
:10286600352C252C2708F7002608F6002508F50044
:102876002408F4000800743084000008831203134F
:10288600A000840A0008A100840A0008A200840AA5
:102896000008A3000310220D230DA4002408AD0098
:1028A6002D08031D572C582C612C0030F7000030E2
:1028B600F6000030F5000030F400692D7730840012
:1028C6000008A000840A0008A100840A0008A200EB
:1028D600840A0008A3000310220D230DA400240877
:1028E600AC002C08031D782C792C7A2C582C7430CB
:1028F600840000308004840A00308004840A80301A
:102906008004840A0030800474308400FF3080051F
:10291600840AFF308005840AFF308005840A00306F
:1029260080057730840000308004840A00308004FB
:10293600840A80308004840A003080047730840062
:10294600FF308005840AFF308005840AFF30800549
:10295600840A003080050030AB000030AA00003049
:10296600A9000030A8007F30AD02A0302C07A000DF
:102976002008AD022030A0002008AC000130A000E5
:102986000310A80DA90DAA0DAB0DA00BC32C773013
:1029960084000008A000840A0008A100840A000838
:1029A600A200840A0008A300743084000008A40072
:1029B600840A0008A500840A0008A600840A000804
:1029C600A70023082702031DF22C22082602031D56
:1029D600F22C21082502031DF22C20082402031CD8
:1029E600F52CF62C192D773084000008A000840AF7
:1029F6000008A100840A0008A200840A0008A300B7
:102A06007430840020088002840A2108031C210FE8
:102A16008002840A2208031C220F8002840A2308EB
:102A2600031C230A800203308402281474308400B5
:102A36000310800D840A800D840A800D840A800D9F
:102A46008403840384030130AC02031D2B2D2C2D3B
:102A5600C12CAD1F2F2D302D4A2D2D08803A9F3EBB
:102A66000318362D372D382D582C01300310AB0C9A
:102A7600AA0CA90CA80CFF3E031D392D0130A0009D
:102A86002008AD07031D482D492D382D612D203016
:102A96002D02031C4F2D502D5C2D582C0130A0000B
:102AA6000310A80DA90DAA0DAB0DA00B532D0130D7
:102AB600AD022D08031D602D612D512D2B08F70049
:102AC6002A08F6002908F5002808F40008008312F1
:102AD60003134E08D4004F08D5005008D600031043
:102AE600550D560DD7005708DA005108D400520884
:102AF600D5005308D6000310550D560DD7005708BC
:102B0600D9005A080319882D892D992D59085A027A
:102B160003188E2D8F2DA02D5908D4005A08D402E3
:102B260019305402031C982D992DA02D5108CE0062
:102B36005208CF005308D0009F2E59080319A42D20
:102B4600A52DB52D5A0859020318AA2DAB2DB62D61
:102B56005A08D4005908D40219305402031CB42D63
:102B6600B52DB62D9F2E0630D4005408D800D01FA0
:102B7600BD2DBE2DBF2DD817D31FC22DC32DC42DDD
:102B86005817CF17FF30CE05FF30CF050030D005E0
:102B9600D217FF30D105FF30D2050030D3055908D2
:102BA6005A020318D72DD82D042E01300310D10D4B
:102BB600D20DD30DFF3E031DD92D0130D902590880
:102BC6005A060319E72DE82DFD2D0130D8025808C5
:102BD6000739031DEF2DF02DD82DFD2D01300310E3
:102BE600D00CCF0CCE0CFF3E031DF22D0130D400CD
:102BF6005408DA075A085906031D022E032EF12D32
:102C0600352E5A0859020318092E0A2E352E013080
:102C16000310CE0DCF0DD00DFF3E031D0B2E013040
:102C2600DA0259085A060319192E1A2E2F2E0130C8
:102C3600D80258080739031D212E222E0A2E2F2EC0
:102C460001300310D30CD20CD10CFF3E031D242EF1
:102C56000130D4005408D9075A085906031D342EEA
:102C6600352E232ED81F382E392E492EFF30CE066C
:102C7600FF30CF06FF30D0060130CE0700300318F4
:102C86000130CF07003003180130D007581F4C2EF3
:102C96004D2E5D2EFF30D106FF30D206FF30D30613
:102CA6000130D107003003180130D2070030031875
:102CB6000130D307D8014E08D1074F080311031876
:102CC6004F0A0319672ED207500803110318500A3A
:102CD60003196E2ED307D31F712E722E842EFF304A
:102CE600D106FF30D206FF30D3060130D1070030BF
:102CF60003180130D207003003180130D307D8017A
:102D0600D80A5108F4005208F5005308F6005A088C
:102D1600D4005408F7005808D5005508F8000A16DC
:102D26008A11FF220A168A11740883120313CE0031
:102D36007508CF007608D00008000A128A15002010
:102D46000A168A110A168A11CD200A168A110A163F
:102D56008A1587250A168A110A128A11FB270A166E
:102D66008A110A168A1594250A168A110A168A15D0
:102D760061250A168A110F3083160313D700D70B65
:102D8600C22EC52E831203139F1490308312031391
:102D9600AE00A030AF003C30B00083160313290804
:102DA600D700D801570883120313A3008316031311
:102DB600580883120313A4000A168A157B260A16DE
:102DC6008A11831203132308B1002408B2002508D0
:102DD600B3000A128A1116270A168A1183120313E0
:102DE6002E0883160313A300831203132F088316DA
:102DF6000313A40083120313300883160313A500DC
:102E0600903083120313AE00A030AF003C30B00008
:102E1600831603132808D700D80157088312031313
:102E2600A30083160313580883120313A4000A167B
:102E36008A157B260A168A11831203132308B1000A
:102E46002408B2002508B3000A128A1116270A16AA
:102E56008A11831203132E0883160313A00083120C
:102E660003132F0883160313A100831203133008DC
:102E760083160313A2007730F5008030F6000A1699
:102E86008A15A4260A168A110D300A168A157B257C
:102E96000A168A110A300A168A157B250A168A111D
:102EA6008A3083160313D700570883120313E100F1
:102EB60083160313230883120313E20083160313F6
:102EC600240883120313E3008316031325088312D1
:102ED6000313E40083160313200883120313E5008B
:102EE60083160313210883120313E60083160313C4
:102EF600220883120313E700831603132608D8005B
:102F0600D901580883120313E800831603135908DE
:102F160083120313E900AA300A128A1518250A1625
:102F26008A11AA30F5000030F6000A168A15A42682
:102F36000A168A110D300A168A157B250A168A1179
:102F46000A300A168A157B250A168A110A168A1568
:102F560087250A168A11F801F80A01300A168A1519
:102F660055260A168A119B30F7008030F8000A169B
:102F76008A1574270A168A11F801F80A02300A1609
:102F86008A1555260A168A11AA30F7000030F8006D
:102F96000A168A1574270A168A11831203138C1EC1
:102FA600D52FD62FEE2F1A0883160313D7005708EE
:102FB600A7002B302706031DE12FE22FE62F013055
:102FC600D7005708A6072D302706031DEB2FEC2F39
:102FD600EE2F0130A602063083160313D9001330F4
:102FE600D800AD30D700D70BF62FD80BF62FD90B5C
:0A2FF600F62FC82E0A128A110C28CB
:103AB600F4007408831203138800080083160313A6
:103AC6001812831203139817181608006400800151
:103AD600840A04060319003404066A2D7608750460
:103AE60074040319772D782D7A2D8030F606080098
:103AF600F40083160313981C812D822D7C2D7408E7
:103B0600831203139900080000300A168A15E82567
:103B16000A168A1501300A168A15E8250A168A1524
:103B26000800831603139816831203130C128316C8
:103B360003130C128B170B170713871708008B1725
:103B46000B17831203130C13831603130C1783121C
:103B560003131F083F3980389F009F101F148316D8
:103B660003139F01080083120313AD00AC012D1C43
:103B7600BD2DBE2DC22D2A08AB002B08AC070310A5
:103B8600AA0D0310AD0C2D08031DCA2DCB2DBA2D81
:103B96002C080800F60083120313091476080A1687
:103BA6008A155B250A168A158312031389141A309F
:103BB600F500F50BDC2D0000831203138910063087
:103BC600F500F50BE42D00000800F700831203133F
:103BD600091077080A168A155B250A168A158312B4
:103BE600031389140B30F6006230F500F50BF92D3E
:103BF600F60BF92D00008312031389100630F60028
:103C06003030F500F50B052EF60B052E00000800EA
:103C1600831203135D085C045B040319132E142E30
:103C2600162E8030DD065E08CE005F08CF006008E5
:103C3600D0005B08D1005C08D2005D08D3000A16EC
:103C46008A116A250A168A15831203134E08DB00A9
:103C56004F08DC005008DD000800F801F901741C6B
:103C6600352E362E3C2E7608F8070318F90A770803
:103C7600F90701300310F60DF70DFF3E031D3D2E2B
:103C860001300310F50CF40CFF3E031D442E74089E
:103C96007504031D4F2E502E322E7908F500780834
:103CA600F400080083120313A0002003031D5C2EFA
:103CB6005D2E692E7808803EF9007908A10021085A
:103CC6000A168A15E8250A168A157A2E0230200663
:103CD600031D6E2E6F2E7A2E7808C03EF9007908E5
:103CE600A10021080A168A15E8250A168A15080071
:103CF600F90183120313A41F812E822E892EA30994
:103D0600A409A30A0319A40AF901F90A2308F4006D
:103D16002408F500F6018E30A6002608F70079087B
:103D2600A7002708F8000A168A11FF220A168A1524
:103D3600740883120313A3007508A4007608A5006F
:103D46000800F801BB2E780875078400760803186A
:103D5600760AFF000A168A1100200A168A150A1624
:103D66008A157B250A168A150130F7007708F807A9
:103D760078087507840076080318760A83120313F9
:103D8600FF000A168A1100200A168A15003A031D3A
:103D9600CD2ECE2EA62E08008E30F900790883127D
:103DA6000313A700E32E01300310A60CA50CA40CE8
:103DB600A30CFF3E031DD72E0130F9007908A70793
:103DC600FF302605031DE82EE92ED62E2308F40023
:103DD6002408F5002508F6002708F9007908F700F9
:103DE600F8010A168A11FF220A168A157408831228
:103DF6000313A3007508A4007608A5000800F61FA3
:103E0600052F062F132F7408003CF4007508031CB9
:103E1600750F003CF5007608031C760F803CF60013
:103E2600F91F162F172F242F7708003CF700780864
:103E3600031C780F003CF8007908031C790F803CBE
:103E4600F9008030F6068030F90679087602031DFF
:103E5600322F78087502031D322F77087402031873
:103E6600352F362F382F0310392F03140800740806
:103E7600750403193F2F402F6F2FF901F90A4E2FB2
:103E860001300310F40DF50DFF3E031D442F0130E4
:103E9600F8007808F907F51F512F522F432F7508A0
:103EA6007702031D582F74087602031C5B2F5C2FC4
:103EB600622F7408F6027508031CF703F702013037
:103EC6000310F50CF40CFF3E031D632F0130F902BD
:103ED600031D6E2F6F2F522F7708F5007608F4001A
:103EE600080083120313A301A4019D2F230877075B
:103EF600A1007808A0000318A00AA31F832FA0031F
:103F0600831203132008A2002208FF002108840060
:103F16000A168A1100200A168A150A168A15CD2550
:103F26000A168A15013083120313A3070318A40A7D
:103F36000030A40723087707A1007808A00003181B
:103F4600A00AA31FA72FA003831203132008A20011
:103F56002208FF00210884000A168A1100200A168A
:103F66008A15003A031DB82FB92F792F080083123E
:103F76000313A501A601200821040319C32FC42F8A
:103F8600FB2FA701A70AD22F01300310A00DA10D08
:103F9600FF3E031DC82F0130A4002408A707A11F58
:103FA600D52FD62FC72F01300310A50DA60DFF3E26
:103FB600031DD72F21082302031DE32F2008220209
:103FC600031CE62FE72FEE2F2008A2022108031C70
:103FD600A303A302251401300310A10CA00CFF3E7D
:103FE600031DEF2F0130A702031DFA2FFB2FD62F3B
:0A3FF6002608A1002508A00008001D
:04400E00D120FF3F7F
:00000001FF
