:020000040000FA
:060000000A128A110C280F
:10000800FE00030EF2000A08F3000A168A116F2A8E
:100018000A128A110F28F9018313BF308400DC30DB
:100028000A168A1520260A128A1183010A168A11CD
:10003800CC2E831603133A083904380403192528EB
:100048002628E428380883120313C80083160313EC
:10005800390883120313C900831603133A0883125D
:100068000313CA000A168A1171230A128A1183120D
:1000780003134B084A0449044804031D442845282F
:10008800E428831603133708803AFF0080307F0284
:10009800031D502802303602031C53285428E42834
:1000A800831603132E0883120313A0008316031369
:1000B8002F0883120313A100831603133008831239
:1000C8000313A2007030A3008930A4004030A500BB
:1000D8000A168A15C6270A128A1103187428752861
:1000E8007E28F73083160313B6070318B70AFF30C4
:1000F800B7078628F83083160313B6070318B70A1C
:10010800FF30B70736080A128A156D220A128A11BB
:10011800831203133F0883160313AE0083120313DD
:10012800400883160313AF00831203134108831694
:100138000313B000380883120313A00083160313B7
:10014800390883120313A100831603133A08831294
:100158000313A200831603132E0883120313A300AC
:10016800831603132F0883120313A40083160313A3
:10017800300883120313A5000A168A11FD230A12F8
:100188008A1183120313230883160313B5008312FD
:100198000313220883160313B400831203132108E0
:1001A80083160313B3008312031320088316031363
:1001B800B2000030B8000030B9000030BA00612940
:1001C80083160313380883120313C8008316031316
:1001D800390883120313C900831603133A088312DC
:1001E8000313CA000A168A1171230A128A1183128C
:1001F80003134B0883160313B500831203134A082D
:1002080083160313B40083120313490883160313D8
:10021800B30083120313480883160313B20035088A
:1002280083120313A60083160313340883120313DF
:10023800A50083160313330883120313A40083163F
:100248000313320883120313A3000A168A11062027
:100258000A128A11831203132308DC002408DD0024
:100268002508DE0083160313380883120313DF0002
:1002780083160313390883120313E000831603134C
:100288003A0883120313E1000A168A15D4260A12C3
:100298008A11831203135C0883160313B8008312B0
:1002A80003135D0883160313B900831203135E0852
:1002B80083160313BA00B601B701BE01BE0A3E0891
:1002C800A00001300310A00DFF3E031D6629031096
:1002D800200D4F3E84000A128A150A200A128A113C
:1002E800A1000A128A150A200A128A11A2000A120B
:1002F8008A150A200A128A11A3000A128A150A20EE
:100308000A128A11A40024083502031D952923081E
:100318003402031D952922083302031D952921085B
:1003280032020318982999299A29A4290130A00092
:100338002008BE070A303E06031DA329A429632905
:100348003E083C07A0003D0803183D0AA1003608F6
:100358002007A20037080318370A2107A30022083C
:10036800AC022308031CAD03AD023C083D0403198D
:10037800BE29BF29C529FF30AC070318AD0AFF30D5
:10038800AD0703302A05A00000302B05A100200886
:1003980021040319D029D129E629FF30AC07031815
:1003A800AD0AFF30AD07E629203083160313A000FD
:1003B8003B0884002008831380000130A000200837
:1003C800BB07D1292D08803AFF0080307F02031D2A
:1003D800EF2901302C020318F229F329D829033018
:1003E800831603132A05A00000302B05A10020085E
:1003F80021040319002A012AB32A2D30A0003B0842
:1004080084002008831380000130A0002008BB0767
:10041800B32A3E08A00001300310A00DFF3E031DC3
:10042800102A0310200D4F3E84000A128A150A2054
:100438000A128A1183120313A0000A128A150A20CD
:100448000A128A11A1000A128A150A200A128A11B0
:10045800A2000A128A150A200A128A11A30083161A
:100468000313350883120313A700831603133408F4
:1004780083120313A600831603133308831203138E
:10048800A50083160313320883120313A4000A126B
:100498008A1198270A128A118312031323088316D4
:1004A8000313B10083120313220883160313B00049
:1004B80083120313210883160313AF008312031357
:1004C800200883160313AE00003083120313B00014
:1004D8000030AF000030AE000A30AD0083160313C1
:1004E800310883120313B4008316031330088312F0
:1004F8000313B300831603132F0883120313B200E8
:10050800831603132E0883120313B1000A168A11E7
:1005180055210A128A118312031330088316031314
:10052800B100831203132F0883160313B00083123C
:1005380003132E0883160313AF00831203132D0829
:1005480083160313AE002E08303EA0003B0884003B
:100558002008831380000130A0002008BB07013069
:10056800BE023E0A031DB92ABA2A0D2ACE2A303005
:1005780083160313A0003B0884002008831380001F
:100588000130A0002008BB07FF30B6070318B70AE0
:10059800FF30B7073708803AFF0080307F02031D1D
:1005A800D72A013036020318DA2ADB2ABB2A831637
:1005B80003133D08803AFF0080307F02031DE62ABE
:1005C80009303C02031CE92AEA2AF12A083083167A
:1005D8000313A0002008BE00F72A831603133C0863
:1005E800A0002008BE003E08A000A1012008BC020F
:1005F8002108031CBD03BD023E080319042B052B6B
:10060800102B2E30A0003B088400200883138000A4
:100618000130A0002008BB073E080A128A156D2287
:100628000A128A11831203133F0883160313A600C4
:1006380083120313400883160313A70083120313BE
:10064800410883160313A800260883120313B20077
:1006580083160313270883120313B30083160313A7
:10066800280883120313B40083160313380883126F
:100678000313AF0083160313390883120313B00062
:10068800831603133A0883120313B1000A168A115A
:10069800BA240A128A11831203132F08C8003008DB
:1006A800C9003108CA000A168A1171230A128A1170
:1006B800831203134B0883160313B5008312031325
:1006C8004A0883160313B4008312031349088316D8
:1006D8000313B30083120313480883160313B200ED
:1006E800762C3E08A00001300310A00DFF3E031D2C
:1006F800782B0310200D4F3E84000A128A150A2019
:100708000A128A1183120313A0000A128A150A20FA
:100718000A128A11A1000A128A150A200A128A11DD
:10072800A2000A128A150A200A128A11A300831647
:100738000313350883120313A70083160313340821
:1007480083120313A60083160313330883120313BB
:10075800A50083160313320883120313A4000A1298
:100768008A1198270A128A11831203132308831601
:100778000313B10083120313220883160313B00076
:1007880083120313210883160313AF008312031384
:10079800200883160313AE00003083120313B00041
:1007A8000030AF000030AE000A30AD0083160313EE
:1007B800310883120313B40083160313300883121D
:1007C8000313B300831603132F0883120313B20015
:1007D800831603132E0883120313B1000A168A1115
:1007E80055210A128A118312031330088316031342
:1007F800B100831203132F0883160313B00083126A
:1008080003132E0883160313AF00831203132D0856
:1008180083160313AE002E08303EA0003B08840068
:100828002008831380000130A0002008BB073E0881
:10083800A00001300310A00DFF3E031D1E2C031065
:10084800200D4F3E84000A128A150A200A128A11C6
:1008580083120313AD000A128A150A200A128A119C
:10086800AE000A128A150A200A128A11AF000A126B
:100878008A150A200A128A11B00083160313350854
:1008880083120313B400831603133408831203136B
:10089800B30083160313330883120313B2008316BD
:1008A8000313320883120313B1000A168A11552163
:1008B8000A128A1183120313300883160313B50032
:1008C800831203132F0883160313B4008312031330
:1008D8002E0883160313B300831203132D088316FF
:1008E8000313B2000130BE023E0A031D7C2C7D2C8E
:1008F800752B8F2C3030A0003B0884002008831310
:1009080080000130A0002008BB07FF30BC07031897
:10091800BD0AFF30BD073C083D04031D942C952CEF
:100928007E2C452E2908840083130008A000840A21
:100938000008A1002008B2002108B3000030B31B52
:10094800FF30B400B5000230A0002008A907B51F89
:10095800AE2CAF2CBE2C0330AA040030AB04B20975
:10096800B309B409B509B20A0319B30A0319B40AD9
:100978000319B50A3C083D04031DC32CC42CD22C12
:100988003508340433043204031DCB2CCC2CD22C70
:100998000130BC070318BD0A0030BD07BE01BE0AFE
:1009A8003E08A00001300310A00DFF3E031DD72C08
:1009B8000310200D4F3E84000A128A150A200A12DD
:1009C8008A11A1000A128A150A200A128A11A200A5
:1009D8000A128A150A200A128A11A3000A128A1515
:1009E8000A200A128A11A40024083502031D062DC4
:1009F80023083402031D062D22083302031D062D89
:100A0800210832020318092D0A2D0B2D152D01304E
:100A1800A0002008BE070A303E06031D142D152D20
:100A2800D42C3D08803A803C031D1C2D3C083E0216
:100A380003181F2D202D272D831603133C08A00013
:100A48002008BE003F2D831603133D08803AA000FE
:100A580080302002031D322D3E083C020318352D3C
:100A6800362D3F2D831603133E08A000A101200850
:100A7800BC002108BD00831603132C082D0403199C
:100A8800462D472D592D03302A05A00000302B058F
:100A9800A100200821040319522D532D592DFF3090
:100AA800AC070318AD0AFF30AD072B1F5C2D5D2D79
:100AB800782D3D08803AA0002D08803A2002031DB9
:100AC800672D2C083C0203186A2D6B2D742D831694
:100AD80003133C08AC023D08031CAD03AD02782D9E
:100AE80083160313AC01AD012D08803A803C031D29
:100AF8007F2D2C083E020318822D832D8F2D8316FF
:100B080003133E08A000A1012008AC022108031C21
:100B1800AD03AD02932D83160313AC01AD012C0870
:100B28002D040319982D992DB02D2030A0003B08D5
:100B380084002008831380000130A0002008BB0730
:100B4800FF30AC070318AD0AFF30AD072C082D04A1
:100B5800031DAF2DB02D992D03302A05A0000030BC
:100B68002B05A100200821040319BB2DBC2D372E0D
:100B78002D30A0003B08840020088313800001303A
:100B8800A0002008BB07372E003083120313B000E3
:100B98000030AF000030AE000A30AD0083160313FA
:100BA8003C08A00001300310A00DFF3E031DD72D07
:100BB8000310200D4F3E84000A128A150A200A12DB
:100BC8008A1183120313A0000A128A150A200A1236
:100BD8008A11A1000A128A150A200A128A11A20093
:100BE8000A128A150A200A128A11A300831603130F
:100BF800350883120313A7008316031334088312DE
:100C08000313A60083160313330883120313A500E6
:100C180083160313320883120313A4000A128A11DD
:100C280098270A128A11831203132308B400220892
:100C3800B3002108B2002008B1000A168A11552114
:100C48000A128A11831203132D08303E83160313E8
:100C5800A1002108BE003E08A0003B08840020082F
:100C680083138000C32DFF30BC070318BD0AFF3073
:100C7800BD073C0A031D442E3D0A031D442E452E84
:100C8800C82D013083120313E207FF306207840086
:100C98000A128A150A200A128A1183160313A00061
:100CA8002008BE003E08031D5A2E5D2E0A128A1522
:100CB800322D3B088400831380010800831203133C
:100CC8004F08D5005008D6005108D7000310560D1C
:100CD800570DD8005808DB005208D5005308D60035
:100CE8005408D7000310560D570DD8005808DA00DD
:100CF8005B080319802E812E912E5A085B02031877
:100D0800862E872E982E5A08D5005B08D5021930F2
:100D18005502031C902E912E982E5208CF0053088E
:100D2800D0005408D100972F5A0803199C2E9D2EE5
:100D3800AD2E5B085A020318A22EA32EAE2E5B0816
:100D4800D5005A08D50219305502031CAC2EAD2E19
:100D5800AE2E972F0630D5005508D900D11FB52ED5
:100D6800B62EB72ED917D41FBA2EBB2EBC2E5917A4
:100D7800D017FF30CF05FF30D0050030D105D3178D
:100D8800FF30D205FF30D3050030D4055A085B0286
:100D98000318CF2ED02EFC2E01300310D20DD30D08
:100DA800D40DFF3E031DD12E0130DA025A085B062E
:100DB8000319DF2EE02EF52E0130D9025908073924
:100DC800031DE72EE82ED02EF52E01300310D10C8E
:100DD800D00CCF0CFF3E031DEA2E0130D50055087C
:100DE800DB075B085A06031DFA2EFB2EE92E2D2F72
:100DF8005B085A020318012F022F2D2F0130031010
:100E0800CF0DD00DD10DFF3E031D032F0130DB02A6
:100E18005A085B060319112F122F272F0130D90208
:100E280059080739031D192F1A2F022F272F0130B0
:100E38000310D40CD30CD20CFF3E031D1C2F013021
:100E4800D5005508DA075B085A06031D2C2F2D2FED
:100E58001B2FD91F302F312F412FFF30CF06FF30E6
:100E6800D006FF30D1060130CF070030031801301B
:100E7800D007003003180130D107591F442F452FE0
:100E8800552FFF30D206FF30D306FF30D40601308D
:100E9800D207003003180130D3070030031801309F
:100EA800D407D9014F08D207500803110318500A74
:100EB80003195F2FD307510803110318510A0319A7
:100EC800662FD407D41F692F6A2F7C2FFF30D206D4
:100ED800FF30D306FF30D4060130D20700300318A4
:100EE8000130D307003003180130D407D901D90ADB
:100EF8005208F4005308F5005408F6005B08D500C2
:100F08005508F7005908D6005608F8000A168A113D
:100F1800EF220A128A11740883120313CF0075088E
:100F2800D0007608D1000800003083120313AB000C
:100F38000030AA000030A9000030A80023082204CD
:100F4800210420040319A92FAA2FF72FAC01AC0AFA
:100F5800BA2F0130F4000310A00DA10DA20DA30DAE
:100F6800F40BAF2F0130F4007408AC07A31FBD2F9A
:100F7800BE2FAD2F0130F4000310A80DA90DAA0D46
:100F8800AB0DF40BC02F23082702031DD52F220811
:100F98002602031DD52F21082502031DD52F200861
:100FA8002402031CD82FD92FE82F2008A4022108D7
:100FB800031C210FA5022208031C220FA6022308E6
:100FC800031C230FA702281401300310A30CA20C42
:100FD800A10CA00CFF3E031DE92F0130AC02031D3C
:100FE800F62FF72FBE2F2B08A3002A08A2002908E6
:100FF800A1002808A0000800FF1B0A2883137F18F7
:1010080083170008840A0319FF0A080008308A00B9
:101018000408840A82070034003480343F340034E2
:10102800203441340034C834423400347A344434EF
:1010380040341C3446345034C33447342434743474
:101048004934973418344B34BC34BE344C346B3484
:101058006E344E340334153450347934AD3460343E
:10106800F33449347134003480343F34CD34CC34D3
:101078003D34D73423343C34123483343A34B734CF
:10108800D1343834C6342734373438348634353498
:10109800C034D6343334CC342B34323470348934BD
:1010A8003034E734DB342E34E5343C341E344234F7
:1010B800A2340D3401340034003400340A340034CE
:1010C800003400346434003400340034E834033429
:1010D800003400341034273400340034A03486340B
:1010E80001340034403442340F34003480349634B0
:1010F800983400340034E134F53405340034CA340B
:101108009A343B345634313420342034203420345B
:1011180020345634323420342034203443344F348D
:101128004E34543420340A340034563431342034A4
:1011380020342034563432342034203420342034BF
:1011480020342034203443344F344E345434003463
:10115800253431342E343234663420342034253466
:1011680031342E3432346634203425343334643404
:02117800003441
:10117C00F40074088312031388000800831203130D
:10118C00CE006E304E02031CCC28CD28AA29033089
:10119C00C2004208AB004E08C300C4014308F6006D
:1011AC004408F7006430F4000030F5000A168A1188
:1011BC0039200A128A15750883120313A4007408C7
:1011CC00A3000A30A1000030A2000A168A11BB202D
:1011DC000A128A158312031321080A168A157F2610
:1011EC000A128A15433E84000A128A150A200A1232
:1011FC008A1583120313AF000A128A150A200A12E9
:10120C008A15B0000A128A150A200A128A15B10032
:10121C000330C5004508AB004E08C600C7014608A0
:10122C00A3004708A4006430A1000030A2000A16F5
:10123C008A11BB200A128A158312031321080A167D
:10124C008A157F260A128A155E3E84000A128A15B8
:10125C000A200A128A1583120313B2000A128A1585
:10126C000A200A128A15B3000A128A150A200A12D9
:10127C008A15B4000A168A11BA240A128A15831226
:10128C0003132F08CB003008CC003108CD000330FD
:10129C00C2004208AB004E08C300C4014308F6006C
:1012AC004408F7000A30F4000030F5000A168A11E1
:1012BC0039200A128A1574080A168A157F260A1212
:1012CC008A15283E84000A128A150A200A128A15E9
:1012DC0083120313AF000A128A150A200A128A1508
:1012EC00B0000A128A150A200A128A15B1004B089E
:1012FC00B2004C08B3004D08B4000A168A11BA2487
:10130C000A128A15831203132F08C8003008C9006B
:10131C003108CA000030AF000030B0003F30B100DF
:10132C004808B2004908B3004A08B4000A168A11EA
:10133C00BA240A128A15831203132F08BF0030082F
:10134C00C0003108C1006C2A0B304E02031CAF29BF
:10135C00B029392A0330C2004208AB004E08C30042
:10136C00C4014308F6004408F7000A30F4000030CA
:10137C00F5000A168A1139200A128A1574080A1601
:10138C008A157F260A128A15283E84000A128A15AD
:10139C000A200A128A1583120313AF000A128A1547
:1013AC000A200A128A15B0000A128A150A200A129B
:1013BC008A15B1000330C5004508AB004E08C600C5
:1013CC00C7014608A3004708A4000A30A10000305A
:1013DC00A2000A168A11BB200A128A158312031363
:1013EC0021080A168A157F260A128A15433E8400A4
:1013FC000A128A150A200A128A1583120313B200E4
:10140C000A128A150A200A128A15B3000A128A15C2
:10141C000A200A128A15B4000A168A11BA240A1272
:10142C008A15831203132F08CB003008CC00310827
:10143C00CD000030AF000030B0003F30B1004B08A1
:10144C00B2004C08B3004D08B4000A168A11BA2435
:10145C000A128A15831203132F08BF003008C0002C
:10146C003108C1006C2A0030AF000030B0003F30B2
:10147C00B1000330C2004208AB004E080A168A15B0
:10148C007F260A128A15283E84000A128A150A2021
:10149C000A128A1583120313B2000A128A150A2043
:1014AC000A128A15B3000A128A150A200A128A1522
:1014BC00B4000A168A11BA240A128A15831203136D
:1014CC002F08BF003008C0003108C100080083128B
:1014DC000313C700C71F732A742ACF2BC709C70A67
:1014EC004708803A123E031C7C2A7D2A3B2B033092
:1014FC00C2004208AB004708F600F701F61BF703E1
:10150C006430F4000030F5000A168A11AB210A127F
:10151C008A15750883120313A5007408A4000A30F9
:10152C00A2000030A3000A168A1106220A128A159C
:10153C008312031322080A168A157F260A128A15AB
:10154C00433E84000A128A150A200A128A15831255
:10155C000313AF000A128A150A200A128A15B0006A
:10156C000A128A150A200A128A15B1000330C30028
:10157C004308AB004708A400A501A41BA5036430D5
:10158C00A2000030A3000A168A1106220A128A153C
:10159C008312031322080A168A157F260A128A154B
:1015AC005E3E84000A128A150A200A128A158312DA
:1015BC000313B2000A128A150A200A128A15B30004
:1015CC000A128A150A200A128A15B4000A168A1100
:1015DC00BA240A128A15831203132F08C400300888
:1015EC00C5003108C6000330C2004208AB004708F2
:1015FC00F600F701F61BF7030A30F4000030F50093
:10160C000A168A11AB210A128A1574080A168A1551
:10161C007F260A128A15283E84000A128A150A208F
:10162C000A128A1583120313AF000A128A150A20B4
:10163C000A128A15B0000A128A150A200A128A1593
:10164C00B1004408B2004508B3004608B4000A16BD
:10165C008A11BA240A128A15831203132F08BF00A9
:10166C003008C0003108C100272D4708803A753E6C
:10167C00031C412B422BAE2B0330C2004208AB00A3
:10168C004708F600F701F61BF7030A30F4000030A8
:10169C00F5000A168A11AB210A128A1574080A166B
:1016AC008A157F260A128A15283E84000A128A158A
:1016BC000A200A128A1583120313AF000A128A1524
:1016CC000A200A128A15B0000A128A150A200A1278
:1016DC008A15B1000330C3004308AB004708A400CF
:1016EC00A501A41BA5030A30A2000030A3000A1612
:1016FC008A1106220A128A158312031322080A166B
:10170C008A157F260A128A15433E84000A128A150E
:10171C000A200A128A1583120313B2000A128A15C0
:10172C000A200A128A15B3000A128A150A200A1214
:10173C008A15B4000A168A11BA240A128A15831261
:10174C0003132F08BF003008C0003108C100272D3B
:10175C000330C2004208AB0047080A168A157F26E0
:10176C000A128A15283E84000A128A150A200A12C7
:10177C008A1583120313BF000A128A150A200A1253
:10178C008A15C0000A128A150A200A128A15C1008D
:10179C00272D4708803A123E031CD52BD62B942CB0
:1017AC000330C2004208AB004708F600F701F61BF5
:1017BC00F7036430F4000030F5000A168A11AB21EF
:1017CC000A128A15750883120313A5007408A40065
:1017DC000A30A2000030A3000A168A1106220A124F
:1017EC008A158312031322080A168A157F260A12F9
:1017FC008A151C3E84000A128A150A200A128A15C0
:10180C0083120313AF000A128A150A200A128A15D2
:10181C00B0000A128A150A200A128A15B100033088
:10182C00C3004308AB004708A400A501A41BA503F3
:10183C006430A2000030A3000A168A1106220A1294
:10184C008A158312031322080A168A157F260A1298
:10185C008A15373E84000A128A150A200A128A1544
:10186C0083120313B2000A128A150A200A128A156F
:10187C00B3000A128A150A200A128A15B4000A1635
:10188C008A11BA240A128A15831203132F08C40072
:10189C003008C5003108C6000330C2004208AB0056
:1018AC004708F600F701F61BF7030A30F400003086
:1018BC00F5000A168A11AB210A128A1574080A1649
:1018CC008A157F260A128A15013E84000A128A158F
:1018DC000A200A128A1583120313AF000A128A1502
:1018EC000A200A128A15B0000A128A150A200A1256
:1018FC008A15B1004408B2004508B3004608B4008C
:10190C000A168A11BA240A128A15831203132F0895
:10191C00BF003008C0003108C100272D4708803AAD
:10192C00753E031C9A2C9B2C072D0330C2004208D9
:10193C00AB004708F600F701F61BF7030A30F4007A
:10194C000030F5000A168A11AB210A128A157408A8
:10195C000A168A157F260A128A15013E84000A127D
:10196C008A150A200A128A1583120313AF000A1271
:10197C008A150A200A128A15B0000A128A150A2042
:10198C000A128A15B1000330C3004308AB004708A4
:10199C00A400A501A41BA5030A30A2000030A300DB
:1019AC000A168A1106220A128A15831203132208B8
:1019BC000A168A157F260A128A151C3E84000A1202
:1019CC008A150A200A128A1583120313B2000A120E
:1019DC008A150A200A128A15B3000A128A150A20DF
:1019EC000A128A15B4000A168A11BA240A128A1528
:1019FC00831203132F08BF003008C0003108C10048
:101A0C00272D0330C2004208AB0047080A168A157E
:101A1C007F260A128A15013E84000A128A150A20B2
:101A2C000A128A1583120313BF000A128A150A20A0
:101A3C000A128A15C0000A128A150A200A128A157F
:101A4C00C100080083160313BB006330A0002008FC
:101A5C00A9000A128A11452E25303E060319372D8E
:101A6C00382D442D3E08A0003B0884002008831329
:101A7C0080000130A0002008BB072F2DAC01AD0168
:101A8C00AA01AB0183120313620884000A128A159F
:101A9C000A200A128A150A168A1559260A128A155C
:101AAC00031C592D5A2DA02D83160313AC01AD0127
:101ABC000A30F4000030F500831603132D08F700EC
:101ACC002C08F6000A168A159B270A128A15750827
:101ADC0083160313AD007408AC0083120313620861
:101AEC0084000A128A150A200A128A15D03E83161F
:101AFC000313A000FF3003180030A1002008AC072E
:101B0C000318AD0A2108AD070130A000200883128C
:101B1C000313E207620884000A128A150A200A12CB
:101B2C008A150A168A1559260A128A1503189F2D2A
:101B3C00A02D5E2D83120313620884000A128A15ED
:101B4C000A200A128A152E3A031DAD2DAE2D002E39
:101B5C00831603132B170130A000200883120313E4
:101B6C00E20783160313BC01BD01EE2D0A30F4000D
:101B7C000030F500831603133D08F7003C08F6000F
:101B8C000A168A159B270A128A15750883160313E1
:101B9C00BD007408BC0083120313620884000A128F
:101BAC008A150A200A128A15D03E83160313A00048
:101BBC00FF3003180030A1002008BC070318BD0A31
:101BCC002108BD070130A000200883120313E2078F
:101BDC008312620884000A128A150A200A128A15D6
:101BEC000A168A1559260A128A150318FE2DFF2D7E
:101BFC00BC2D082E83160313BC01BD012B16082E19
:101C0C002B152C2E013083120313E207FF306207D1
:101C1C0084000A128A150A200A128A1583160313E5
:101C2C00BE00A000A1012108003A03191E2E2F2D81
:101C3C002008003A0319FD2F643A03192C2E023A9E
:101C4C000319062E0F3A03192C2E2F2D00302A05BE
:101C5C00A00007302B05A100200821040319372E02
:101C6C003A2E0A128A11962C2B1E3D2E3E2E422EF7
:101C7C000630BC000030BD00290884008313000826
:101C8C00B800840A0008B900840A0008BA000330BE
:101C9C00A0002008A907380883120313A00083169C
:101CAC000313390883120313A100831603133A0894
:101CBC0083120313A2000030A3000030A4000030F4
:101CCC00A5000A168A15C6270A128A1503186F2E44
:101CDC00702E892E831603133808F4003908F5008A
:101CEC003A08F6000A168A1528260A128A1574086C
:101CFC0083160313B8007508B9007608BA000330D0
:101D0C00AA040030AB0483160313B601B7013A08DA
:101D1C00390438040319932E942EA22FB830840062
:101D2C0083130008A000840A0008A100840A00089C
:101D3C00A200840A0008A3000F300310A30CA20C0D
:101D4C00A10CA00CFF3E031DA32EFF302005A40008
:101D5C0000302105A5002408823EB6002508031892
:101D6C00013EFF3EB700FF30B6070318B70AFF303D
:101D7C00B7070330F4000030F5003708F7003608D9
:101D8C00F6000A168A159B270A128A1575088316FF
:101D9C000313B7007408B6000A3083120313A200B1
:101DAC000030A30083160313370883120313A50016
:101DBC0083160313360883120313A4000A168A1120
:101DCC0006220A128A15831203132308831603139F
:101DDC00B70083120313220883160313B600B71F30
:101DEC00F82EF92EFF2EFF30B6070318B70AFF3076
:101DFC00B7073603FF3A0A128A156D220A128A15A2
:101E0C00831203133F0883160313AE0083120313CC
:101E1C00400883160313AF00831203134108831683
:101E2C000313B000380883120313AF008316031397
:101E3C00390883120313B000831603133A08831274
:101E4C000313B100831603132E0883120313B2007D
:101E5C00831603132F0883120313B3008316031383
:101E6C00300883120313B4000A168A11BA240A121A
:101E7C008A15831203132F0883160313AE008312E3
:101E8C000313300883160313AF00831203133108B6
:101E9C0083160313B0002E0883120313A0008316BD
:101EAC0003132F0883120313A100831603133008A6
:101EBC0083120313A2000030A3008030A4003F3033
:101ECC00A5000A168A15C6270A128A1503186F2F41
:101EDC00702F792FFF3083160313B6070318B70A38
:101EEC00FF30B707A22F831603132E088312031398
:101EFC00A000831603132F0883120313A10083166B
:101F0C000313300883120313A2000030A300203007
:101F1C00A4004130A5000A168A15C6270A128A1594
:101F2C00031C992F9A2FA22F013083160313B60787
:101F3C000318B70A0030B707831603133D08803A1D
:101F4C00FF0080307F02031DAD2F0D303C020318C3
:101F5C00B02FB12FEA2F831603133C080A128A15EF
:101F6C00C4200A128A15831203133F08CF004008BD
:101F7C00D0004108D10083160313380883120313D1
:101F8C00D20083160313390883120313D30083166C
:101F9C0003133A0883120313D4000A128A1162261F
:101FAC000A128A15831203134F0883160313B80001
:101FBC0083120313500883160313B90083120313FF
:101FCC00510883160313BA00831603133708803A9B
:101FDC00FF0080307F02031DF52F0A3036020318F4
:101FEC00FA2F0A128A111D280A128A1154280A1271
:041FFC008A115D2EBB
:102002000C3083160313990008008E3083120313D9
:10201200A7002708A8001A2801300310A60CA50C57
:10202200A40CA30CFF3E031D0E280130A7002708B5
:10203200A807FF302605031D1F2820280D28230886
:10204200F4002408F5002508F6002808A700270850
:10205200F700F8010A168A11EF220A168A1174088B
:1020620083120313A3007508A4007608A5000800D4
:102072007408750403193E283F287028831203133D
:10208200A001A00A4F2801300310F40DF50DFF3E08
:10209200031D45280130F8007808A007F51F5228D3
:1020A2005328442875087702031D592874087602BC
:1020B200031C5C285D2863287408F6027508031C5B
:1020C200F703F70201300310F50CF40CFF3E031D79
:1020D20064280130A002031D6F2870285328770856
:1020E200F5007608F400080083120313A301A4018B
:1020F2009E2823087707A1007808A0000318A00AE9
:10210200A31F8428A003831203132008A20022081D
:10211200FF00210884000A128A1500200A168A117B
:102122000A168A1596260A168A110130831203139B
:10213200A3070318A40A0030A40723087707A10005
:102142007808A0000318A00AA31FA828A0038312DE
:1021520003132008A2002208FF00210884000A12AB
:102162008A1500200A168A11003A031DB928BA28D6
:102172007A28080083120313A601A701210822046A
:102182000319C428C528FC28A801A80AD3280130AD
:102192000310A10DA20DFF3E031DC9280130A500A9
:1021A2002508A807A21FD628D728C828013003105F
:1021B200A60DA70DFF3E031DD82822082402031DE9
:1021C200E42821082302031CE728E828EF28210835
:1021D200A3022208031CA403A40226140130031044
:1021E200A20CA10CFF3E031DF0280130A802031D22
:1021F200FB28FC28D7282708A2002608A1000800EF
:10220200831203130910891000300A128A15BE20A6
:102212000A168A11343083120313A100F130A00090
:10222200A00B1129A10B112930300A168A15B126EB
:102232000A168A110D3083120313A100FB30A0008D
:10224200A00B2129A10B212930300A168A15B126AB
:102252000A168A111D3083120313A1009030A000C8
:10226200A00B3129A10B3129000030300A168A1542
:10227200B1260A168A1138300A168A15B1260A16AC
:102282008A110C300A168A15B1260A168A110130F3
:102292000A168A15B1260A168A1106300A168A15F6
:1022A200B1260A168A1108008312031330082F047C
:1022B2002E042D0403195E295F29A229F601F60ACC
:1022C2006F290130F5000310AD0DAE0DAF0DB00D4D
:1022D200F50B64290130F5007508F607B01F722965
:1022E2007329622930083402031D81292F08330221
:1022F200031D81292E083202031D81292D08310276
:10230200031C8429852993292D08B1022E08031C58
:102312002E0FB2022F08031C2F0FB3023008031C2A
:10232200300FB40201300310B00CAF0CAE0CAD0C88
:10233200FF3E031D94290130F602031DA129A229A3
:1023420073293408B0003308AF003208AE003108F8
:10235200AD00080083120313A101F71FB129B229AE
:10236200B929F609F709F60A0319F70AA101A10A20
:10237200F51FBC29BD29C229F409F509F40A03197C
:10238200F50A740875040319C729C829F729A00199
:10239200A00AD62901300310F40DF50DFF3E031DEE
:1023A200CC290130F8007808A007F51FD929DA29CD
:1023B200CB2975087702031DE02974087602031CF5
:1023C200E329E429EA297408F6027508031CF703D5
:1023D200F70201300310F50CF40CFF3E031DEB294C
:1023E2000130A002031DF629F729DA292108031971
:1023F200FB29FC29012AF609F709F60A0319F70A4B
:102402007708F5007608F400080083120313A80188
:10241200A31F0C2A0D2A142AA209A309A20A03192E
:10242200A30AA801A80AA51F172A182A212AA40963
:10243200A509A40A0319A50A0130A6002608A806C0
:10244200A901AA01220823040319282A292A602A99
:10245200A701A70A372A01300310A20DA30DFF3EE0
:10246200031D2D2A0130A6002608A707A31F3A2A1A
:102472003B2A2C2A01300310A90DAA0DFF3E031D91
:102482003C2A23082502031D482A22082402031C91
:102492004B2A4C2A532A2208A4022308031CA50310
:1024A200A502291401300310A30CA20CFF3E031D48
:1024B200542A0130A702031D5F2A602A3B2A2808FA
:1024C2000319642A652A6A2AA909AA09A90A031909
:1024D200AA0A2A08A3002908A200080083120313EB
:1024E2008C1E742A752A8F2A1A08F0007008F900C7
:1024F2002B307906031D7E2A7F2A852A0130F000BF
:10250200700883160313C5072D307906031D8A2A26
:102512008B2A8F2A013083160313C50283129F1C54
:10252200932A952A0130962A0030F0001F0CF10000
:10253200710C0F39003A03199F2AA12A0130A22AED
:102542000030700500380319A72AA82ABD2A1E08E0
:10255200F000700883160313C700831203131F08C9
:10256200C33904389F001030F000F00BB62A000087
:10257200831203139F140C139F1CC02AC22A01301A
:10258200C32A0030F0001F0CF100710C0F39013A20
:102592000319CC2ACE2A0130CF2A00307005003828
:1025A2000319D42AD52AE82A1E08F00070088316D7
:1025B2000313C600C330831203139F051030F000CB
:1025C200F00BE12A0000831203139F140C1373080B
:1025D2008A00720E8300FE0E7E0E09007708031930
:1025E200F32AF42AFB2A760875047404031DFA2AD6
:1025F200FB2A102B0030F4000030F5000030F6000A
:10260200702B013083120313A0002008F70701305A
:102612000310F60CF50CF40CFF3E031D092BFE30E3
:102622007605031D152B162B022B2F2B013083123F
:102632000313A0002008F7070130F4070030031845
:102642000130F507003003180130F607013003109E
:10265200F60CF50CF40CFF3E031D282BFF3076051B
:10266200031D342B352B172B402B0130F702013081
:102672000310F40DF50DF60DFF3E031D392BF51B6E
:10268200432B442B4A2B023077020318492B4A2B47
:10269200362B77184D2B4E2B542BFF30F4057F3001
:1026A200F505FF30F6050310F70C770883120313C4
:1026B200A000A101A20110300310A00DA10DA20DD6
:1026C200FF3E031D5D2B2008F4042108F5042208B7
:1026D200F604780803196E2B6F2B702BF61708007F
:1026E200831203134808CC004908CD004A08CE00E3
:1026F20003104D0D4E0DCF004F08D5005508031D98
:10270200832B842B8D2B0030CB000030CA0000308D
:10271200C9000030C800FC2B4808CC004908CD0095
:102722004A08CE0017300310CE0CCD0CCC0CFF3E65
:10273200031D942B4C08CF004F08D000C917FF305F
:10274200C805FF30C9050030CA054808D10049084C
:10275200D2004A08D300D4018E30D502D51FB22B45
:10276200B32BCD2B5508803A8F3E0318B92BBA2BC9
:10277200BB2B842B01300310D40CD30CD20CD10C04
:10278200FF3E031DBC2B0130CC004C08D507031DB6
:10279200CB2BCC2BBB2BE42B18305502031CD22B9A
:1027A200D32BDF2B842B0130CC000310D10DD20DA3
:1027B200D30DD40DCC0BD62B0130D5025508031DF9
:1027C200E32BE42BD42B50080319E82BE92BF42B31
:1027D200D109D209D309D409D10A0319D20A03199A
:1027E200D30A0319D40A5408CB005308CA0052086A
:1027F200C9005108C8000800831203132008F4001E
:102802002108F5002208F6000310750D760DF70079
:102812007708AB002B08031D0F2C102C192C00304D
:10282200A3000030A2000030A1000030A000B92CAB
:102832002308F4002408F5002508F6000310750D9E
:10284200760DF7007708AA002A08031D292C2A2CE6
:102852002B2C102CA117FF30A005FF30A105003052
:10286200A205A417FF30A305FF30A4050030A5057B
:102872000030A9000030A8000030A7000030A600F8
:102882007F30AB0298302A07F4007408AB0218308C
:10289200F4007408AA000130F4000310A60DA70D7D
:1028A200A80DA90DF40B4E2C25082202031D5F2C46
:1028B20024082102031D5F2C23082002031C622C22
:1028C200632C6E2C2308A0022408031C240FA102EF
:1028D2002508031C250AA202261401300310A00DAC
:1028E200A10DA20DFF3E031D6F2C0130AA02031D94
:1028F2007B2C7C2C4C2CAB1F7F2C802C9A2C2B08F5
:10290200803A973E0318862C872C882C102C013095
:102912000310A90CA80CA70CA60CFF3E031D892CC2
:102922000130F4007408AB07031D982C992C882CF5
:10293200B12C18302B02031C9F2CA02CAC2C102C79
:102942000130F4000310A60DA70DA80DA90DF40B7C
:10295200A32C0130AB022B08031DB02CB12CA12CEF
:102962002908A3002808A2002708A1002608A00021
:102972000800831203132F08B5003008B60031088F
:10298200B7000310360D370DB8003808B900390802
:10299200031DCC2CCD2CD42C0030AF000030B00065
:1029A2000030B1009E2D3208B5003308B60034085D
:1029B200B7000310360D370DB8003808BE003E08C8
:1029C200031DE42CE52CEC2C0030AF000030B000ED
:1029D2000030B1009E2D3E087B3EB5003508B90798
:1029E2002F08B5003008B6003108B70010300310C8
:1029F200B70CB60CB50CFF3E031DF82C3508B80019
:102A02003808BE003208B5003308B6003408B700F3
:102A120010300310B70CB60CB50CFF3E031D0A2D87
:102A22003508B8003808BE068030B5003508BE0546
:102A3200B017B317FF30B205FF30B3050030B4054D
:102A42000030BA000030BB000030BC000730B500D7
:102A52003508BD002F1C2E2D2F2D3F2D3208BA0711
:102A6200330803110318330A0319382DBB0734083E
:102A720003110318340A03193F2DBC070130031058
:102A8200B10CB00CAF0CFF3E031D402D0130031002
:102A9200B20DB30DB40DFF3E031D482D0130BD0232
:102AA200031D542D552D2B2D0930B5003508BD00C1
:102AB2002F1C5C2D5D2D6D2D3208BA0733080311D2
:102AC2000318330A0319662DBB07340803110318D0
:102AD200340A03196D2DBC0701300310B10CB00C80
:102AE200AF0CFF3E031D6E2D01300310BC0CBB0C5E
:102AF200BA0CFF3E031D762D0130BD02031D822D4F
:102B0200832D592D3A08F4003B08F5003C08F600E5
:102B12003908B5003508F7003E08B6003608F80057
:102B22000A168A11EF220A168A11740883120313F5
:102B3200AF007508B0007608B100080020308400AC
:102B42008313000883120313A600840A0008A70057
:102B5200840A0008A800840A0008A9000310280DAE
:102B6200290DAA002A08B3003308031DB92DBA2D76
:102B7200C32D0030A3000030A2000030A1000030BD
:102B8200A000CB2E233084000008A600840A00088F
:102B9200A700840A0008A800840A0008A9000310FC
:102BA200280D290DAA002A08B2003208031DDA2DC9
:102BB200DB2DDC2DBA2D2030840000308004840A05
:102BC20000308004840A80308004840A003080044B
:102BD20020308400FF308005840AFF308005840A9B
:102BE200FF308005840A00308005233084000030E5
:102BF2008004840A00308004840A80308004840ABD
:102C02000030800423308400FF308005840AFF30C6
:102C12008005840AFF308005840A00308005003078
:102C2200B1000030B0000030AF000030AE007F30A5
:102C3200B302A0303207A6002608B3022030A60055
:102C42002608B2000130A6000310AE0DAF0DB00D84
:102C5200B10DA60B252E233084000008A600840A9D
:102C62000008A700840A0008A800840A0008A90036
:102C7200203084000008AA00840A0008AB00840AFD
:102C82000008AC00840A0008AD0029082D02031DCB
:102C9200542E28082C02031D542E27082B02031D34
:102CA200542E26082A02031C572E582E7B2E233020
:102CB20084000008A600840A0008A700840A00080D
:102CC200A800840A0008A900203084002608800297
:102CD200840A2708031C270F8002840A2808031C81
:102CE200280F8002840A2908031C290A8002033063
:102CF20084022E14203084000310800D840A800D7B
:102D0200840A800D840A800D8403840384030130C5
:102D1200B202031D8D2E8E2E232EB31F912E922EC4
:102D2200AC2E3308803A9F3E0318982E992E9A2E85
:102D3200BA2D01300310B10CB00CAF0CAE0CFF3E3B
:102D4200031D9B2E0130A6002608B307031DAA2EE1
:102D5200AB2E9A2EC32E20303302031CB12EB22E7C
:102D6200BE2EBA2D0130A6000310AE0DAF0DB00D70
:102D7200B10DA60BB52E0130B3023308031DC22ECE
:102D8200C32EB32E3108A3003008A2002F08A100E1
:102D92002E08A00008000A168A151F270A168A1193
:102DA2000A168A1101210A168A110A168A153E2666
:102DB2000A168A110A168A1101200A168A110A169F
:102DC2008A154B260A168A110A168A1518260A1619
:102DD2008A110F3083120313EB00EB0BEE2EF12E50
:102DE200831203139F14903083120313AF00A03099
:102DF200B0003C30B100831603134708831203135B
:102E0200EB00EC016B08A3006C08A4000A168A15FB
:102E120047270A168A11831203132308B2002408D3
:102E2200B3002508B4000A168A11BA240A168A11B8
:102E3200831203132F0883160313C2008312031392
:102E4200300883160313C300831203133108831659
:102E52000313C400903083120313AF00A030B000FC
:102E62003C30B10083160313460883120313EB00B0
:102E7200EC016B08A3006C08A4000A168A15472708
:102E82000A168A11831203132308B2002408B3001E
:102E92002508B4000A168A11BA240A168A11831266
:102EA20003132F0883160313BF0083120313300882
:102EB20083160313C000831203133108831603130E
:102EC200C1007730F5008030F6000A168A157027A7
:102ED2000A168A110D300A168A1532260A168A1126
:102EE2000A300A168A1532260A168A119D30831272
:102EF2000313EB006B08E2008316031342088312EC
:102F02000313E30083160313430883120313E4003D
:102F120083160313440883120313E5008316031375
:102F22003F0883120313E60083160313400883123B
:102F32000313E70083160313410883120313E80007
:102F420083160313450883120313EC00ED016C088A
:102F5200E9006D08EA00C8300A128A1528250A1607
:102F62008A11C830F5000030F6000A168A1570275B
:102F72000A168A110D300A168A1532260A168A1185
:102F82000A300A168A1532260A168A110A168A1574
:102F92003E260A168A11F801F80A01300A168A1525
:102FA200F9260A168A118A30F7008030F8000A16CC
:102FB2008A1175200A168A11F801F80A02300A16D7
:102FC2008A15F9260A168A11C830F7000030F8006F
:102FD2000A168A1175200A168A1106308312031303
:102FE200ED001330EC00AD30EB00EB0BF62FEC0BE9
:0E2FF200F62FED0BF62FF42E0A128A110C2882
:103C3000831603131812831203139817181608001B
:103C400064008001840A0406031900340406212E4E
:103C500076087504740403192E2E2F2E312E803011
:103C6000F6060800F40083160313981C382E392E2C
:103C7000332E7408831203139900080000300A16CB
:103C80008A15B1260A168A1501300A168A15B12638
:103C90000A168A1508008316031398168312031355
:103CA0000C12831603130C128B170B1707138717AD
:103CB0000800F500F4013A3075020318602E612EF9
:103CC000692E30307502031C662E672E692EF401B2
:103CD000F40A740C08008B170B17831203130C13D0
:103CE000831603130C17831203131F083F39803800
:103CF0009F009F101F14831603139F010800831257
:103D00000313AE00AD012E1C862E872E8B2E2B08A2
:103D1000AC002C08AD070310AB0D0310AE0C2E0841
:103D2000031D932E942E832E2D080800F600831277
:103D30000313091476080A128A15BE200A168A157A
:103D40008312031389141A30F500F50BA52E000019
:103D50008312031389100630F500F50BAD2E000019
:103D60000800F70083120313091077080A128A1556
:103D7000BE200A168A158312031389140B30F6002D
:103D80006230F500F50BC22EF60BC22E0000831236
:103D9000031389100630F6003030F500F50BCE2EF7
:103DA000F60BCE2E00000800831203135E085D049C
:103DB0005C040319DC2EDD2EDF2E8030DE065F086A
:103DC000CF006008D0006108D1005C08D2005D0817
:103DD000D3005E08D4000A128A1162260A168A15D8
:103DE000831203134F08DC005008DD005108DE0089
:103DF000080083120313A1002103031D002F012FCC
:103E00000D2F7808803EA0002008A20022080A1684
:103E10008A15B1260A168A151E2F02302106031DA7
:103E2000122F132F1E2F7808C03EA0002008A200DA
:103E300022080A168A15B1260A168A1508000330C8
:103E40008316031788008901033083160313850046
:103E5000831203138501831603138701831203134F
:103E600087018316031388018312031388018316C5
:103E7000031389018312031389010A168A156B261D
:103E80000A168A15C330831203139F050800831294
:103E90000313A801A41F4D2F4E2F552FA309A409CA
:103EA000A30A0319A40AA801A80A2308F4002408F5
:103EB000F500F6018E30A6002608F7002808A700B6
:103EC0002708F8000A168A11EF220A168A157408C4
:103ED00083120313A3007508A4007608A500080048
:103EE000F801872F78087507840076080318760A8A
:103EF000FF000A128A1500200A168A150A168A156A
:103F000032260A168A150130F7007708F807780874
:103F10007507840076080318760A83120313FF00DE
:103F20000A128A1500200A168A15003A031D992FD5
:103F30009A2F722F080083120313A001A101741C91
:103F4000A22FA32FAB2F760883120313A007031809
:103F5000A10A7708A10701300310F60DF70DFF3E07
:103F6000031DAC2F01300310F50CF40CFF3E031DB4
:103F7000B32F74087504031DBE2FBF2F9F2F83120C
:103F800003132108F5002008F4000800831203132E
:103F9000A21FCB2FCC2FD92F2008003CA000210836
:103FA000031C210F003CA1002208031C220F803CAF
:103FB000A200A51FDC2FDD2FEA2F2308003CA30061
:103FC0002408031C240F003CA4002508031C250F13
:103FD000803CA5008030A2068030A506250822027C
:103FE000031DF82F24082102031DF82F23082002A7
:103FF0000318FB2FFC2FFE2F0310FF2F03140800C4
:04400E00D120FF3F7F
:00000001FF
