:020000040000FA
:060000000A128A110C280F
:10000800FE00030EF1000A08F2000A128A114628BF
:100018000A128A110F28F401F50183010A128A11C4
:1000280015280A128A1174200A128A111030F30056
:10003800F30B1C280000831203139F147508860015
:100048000D307502031829282A282C280430880026
:10005800133075020318312832283A280D307502FA
:10006800031C372838283A280230880013307502D4
:10007800031C3F28402822280130880022280A1221
:100088008A110C28831203139F184B284C285928CF
:100098001E08F0007008F5001030F000F00B522830
:1000A8000000831203139F140C138C1D5C285D2819
:1000B8006D2883160313141862286328692883128D
:1000C80003131308F0007008F400750883129300F6
:1000D8008C1172088A00710E8300FE0E7E0E0900D4
:1000E8000130831603178800890101308316031332
:1000F8008500831203138501831603138801831275
:1001080003138801831603138901831203138901DA
:100118008316031386018312031386010A128A11B8
:100128009D200A128A110A128A11B1200A128A1114
:1001380008008B170B17831203130C138316031372
:100148000C17831203131F083F3980389F009F1034
:100158001F14831603139F010800831603138715C2
:100168008712851624308312031394008316031311
:100178009401831203138C11831603138C15080042
:04400E00D120FF3F7F
:00000001FF
