:020000040000FA
:060000000A128A110C280F
:10000800FE00030EF1000A08F2000A128A111528F0
:100018000A128A110F28F401F50183010A128A11C4
:100028008D28831203139F181A281B2828281E08B6
:10003800F0007008F5001030F000F00B21280000E7
:10004800831203139F140C138C1D2B282C283C2877
:1000580083160313141831283228382883120313FF
:100068001308F0007008F4007508831293008C11CF
:1000780072088A00710E8300FE0E7E0E09000130A0
:10008800831603178800890101308316031385003E
:100098008312031385018316031388018312031344
:1000A80088018316031389018312031389010A1235
:1000B8008A1166200A128A110A128A117A200A12F3
:1000C8008A1108008B170B17831203130C1383165E
:1000D80003130C17831203131F083F3980389F003E
:1000E8009F101F14831603139F0108008316031320
:1000F80087158712851624308312031394008316FC
:1001080003139401831203138C11831603138C15A4
:1001180008000A128A1143200A128A111030F300CB
:10012800F30B94280000831203139F149A280A12D1
:040138008A110C28F4
:04400E00D120FF3F7F
:00000001FF
